{
  "_format": "hh-sol-artifact-1",
  "contractName": "CryptoHunkz",
  "sourceName": "contracts/CryptoHunkz.sol",
  "abi": [
    {
      "inputs": [
        {
          "internalType": "string",
          "name": "_initURI",
          "type": "string"
        }
      ],
      "stateMutability": "nonpayable",
      "type": "constructor"
    },
    {
      "anonymous": false,
      "inputs": [
        {
          "indexed": true,
          "internalType": "address",
          "name": "owner",
          "type": "address"
        },
        {
          "indexed": true,
          "internalType": "address",
          "name": "approved",
          "type": "address"
        },
        {
          "indexed": true,
          "internalType": "uint256",
          "name": "tokenId",
          "type": "uint256"
        }
      ],
      "name": "Approval",
      "type": "event"
    },
    {
      "anonymous": false,
      "inputs": [
        {
          "indexed": true,
          "internalType": "address",
          "name": "owner",
          "type": "address"
        },
        {
          "indexed": true,
          "internalType": "address",
          "name": "operator",
          "type": "address"
        },
        {
          "indexed": false,
          "internalType": "bool",
          "name": "approved",
          "type": "bool"
        }
      ],
      "name": "ApprovalForAll",
      "type": "event"
    },
    {
      "anonymous": false,
      "inputs": [
        {
          "indexed": true,
          "internalType": "address",
          "name": "from",
          "type": "address"
        },
        {
          "indexed": true,
          "internalType": "address",
          "name": "to",
          "type": "address"
        },
        {
          "indexed": true,
          "internalType": "uint256",
          "name": "tokenId",
          "type": "uint256"
        }
      ],
      "name": "Transfer",
      "type": "event"
    },
    {
      "inputs": [],
      "name": "PUBLIC_SUPPLY",
      "outputs": [
        {
          "internalType": "uint256",
          "name": "",
          "type": "uint256"
        }
      ],
      "stateMutability": "view",
      "type": "function"
    },
    {
      "inputs": [],
      "name": "RESERVED",
      "outputs": [
        {
          "internalType": "uint256",
          "name": "",
          "type": "uint256"
        }
      ],
      "stateMutability": "view",
      "type": "function"
    },
    {
      "inputs": [],
      "name": "TOTAL_SUPPLY",
      "outputs": [
        {
          "internalType": "uint256",
          "name": "",
          "type": "uint256"
        }
      ],
      "stateMutability": "view",
      "type": "function"
    },
    {
      "inputs": [
        {
          "internalType": "address",
          "name": "",
          "type": "address"
        }
      ],
      "name": "admins",
      "outputs": [
        {
          "internalType": "bool",
          "name": "",
          "type": "bool"
        }
      ],
      "stateMutability": "view",
      "type": "function"
    },
    {
      "inputs": [
        {
          "internalType": "address",
          "name": "to",
          "type": "address"
        },
        {
          "internalType": "uint256",
          "name": "tokenId",
          "type": "uint256"
        }
      ],
      "name": "approve",
      "outputs": [],
      "stateMutability": "nonpayable",
      "type": "function"
    },
    {
      "inputs": [
        {
          "internalType": "address",
          "name": "owner",
          "type": "address"
        }
      ],
      "name": "balanceOf",
      "outputs": [
        {
          "internalType": "uint256",
          "name": "",
          "type": "uint256"
        }
      ],
      "stateMutability": "view",
      "type": "function"
    },
    {
      "inputs": [],
      "name": "baseURI",
      "outputs": [
        {
          "internalType": "string",
          "name": "",
          "type": "string"
        }
      ],
      "stateMutability": "view",
      "type": "function"
    },
    {
      "inputs": [
        {
          "internalType": "uint256",
          "name": "tokenId",
          "type": "uint256"
        }
      ],
      "name": "getApproved",
      "outputs": [
        {
          "internalType": "address",
          "name": "",
          "type": "address"
        }
      ],
      "stateMutability": "view",
      "type": "function"
    },
    {
      "inputs": [],
      "name": "hiddenURI",
      "outputs": [
        {
          "internalType": "string",
          "name": "",
          "type": "string"
        }
      ],
      "stateMutability": "view",
      "type": "function"
    },
    {
      "inputs": [
        {
          "internalType": "address",
          "name": "_owner",
          "type": "address"
        },
        {
          "internalType": "address",
          "name": "_operator",
          "type": "address"
        }
      ],
      "name": "isApprovedForAll",
      "outputs": [
        {
          "internalType": "bool",
          "name": "",
          "type": "bool"
        }
      ],
      "stateMutability": "view",
      "type": "function"
    },
    {
      "inputs": [],
      "name": "maxMintAmount",
      "outputs": [
        {
          "internalType": "uint256",
          "name": "",
          "type": "uint256"
        }
      ],
      "stateMutability": "view",
      "type": "function"
    },
    {
      "inputs": [],
      "name": "maxWLAmount",
      "outputs": [
        {
          "internalType": "uint256",
          "name": "",
          "type": "uint256"
        }
      ],
      "stateMutability": "view",
      "type": "function"
    },
    {
      "inputs": [],
      "name": "merkleRoot",
      "outputs": [
        {
          "internalType": "bytes32",
          "name": "",
          "type": "bytes32"
        }
      ],
      "stateMutability": "view",
      "type": "function"
    },
    {
      "inputs": [
        {
          "internalType": "uint256",
          "name": "_amount",
          "type": "uint256"
        }
      ],
      "name": "mintReserve",
      "outputs": [],
      "stateMutability": "nonpayable",
      "type": "function"
    },
    {
      "inputs": [],
      "name": "name",
      "outputs": [
        {
          "internalType": "string",
          "name": "",
          "type": "string"
        }
      ],
      "stateMutability": "view",
      "type": "function"
    },
    {
      "inputs": [
        {
          "internalType": "uint256",
          "name": "tokenId",
          "type": "uint256"
        }
      ],
      "name": "ownerOf",
      "outputs": [
        {
          "internalType": "address",
          "name": "",
          "type": "address"
        }
      ],
      "stateMutability": "view",
      "type": "function"
    },
    {
      "inputs": [],
      "name": "price",
      "outputs": [
        {
          "internalType": "uint256",
          "name": "",
          "type": "uint256"
        }
      ],
      "stateMutability": "view",
      "type": "function"
    },
    {
      "inputs": [],
      "name": "proxyRegistryAddress",
      "outputs": [
        {
          "internalType": "address",
          "name": "",
          "type": "address"
        }
      ],
      "stateMutability": "view",
      "type": "function"
    },
    {
      "inputs": [
        {
          "internalType": "uint256",
          "name": "_quantity",
          "type": "uint256"
        }
      ],
      "name": "publicMint",
      "outputs": [],
      "stateMutability": "payable",
      "type": "function"
    },
    {
      "inputs": [],
      "name": "reveal",
      "outputs": [],
      "stateMutability": "nonpayable",
      "type": "function"
    },
    {
      "inputs": [],
      "name": "revealed",
      "outputs": [
        {
          "internalType": "bool",
          "name": "",
          "type": "bool"
        }
      ],
      "stateMutability": "view",
      "type": "function"
    },
    {
      "inputs": [
        {
          "internalType": "address",
          "name": "from",
          "type": "address"
        },
        {
          "internalType": "address",
          "name": "to",
          "type": "address"
        },
        {
          "internalType": "uint256",
          "name": "tokenId",
          "type": "uint256"
        }
      ],
      "name": "safeTransferFrom",
      "outputs": [],
      "stateMutability": "nonpayable",
      "type": "function"
    },
    {
      "inputs": [
        {
          "internalType": "address",
          "name": "from",
          "type": "address"
        },
        {
          "internalType": "address",
          "name": "to",
          "type": "address"
        },
        {
          "internalType": "uint256",
          "name": "tokenId",
          "type": "uint256"
        },
        {
          "internalType": "bytes",
          "name": "_data",
          "type": "bytes"
        }
      ],
      "name": "safeTransferFrom",
      "outputs": [],
      "stateMutability": "nonpayable",
      "type": "function"
    },
    {
      "inputs": [],
      "name": "saleLive",
      "outputs": [
        {
          "internalType": "bool",
          "name": "",
          "type": "bool"
        }
      ],
      "stateMutability": "view",
      "type": "function"
    },
    {
      "inputs": [
        {
          "internalType": "address",
          "name": "_newAdmin",
          "type": "address"
        }
      ],
      "name": "setAdmin",
      "outputs": [],
      "stateMutability": "nonpayable",
      "type": "function"
    },
    {
      "inputs": [
        {
          "internalType": "address",
          "name": "operator",
          "type": "address"
        },
        {
          "internalType": "bool",
          "name": "approved",
          "type": "bool"
        }
      ],
      "name": "setApprovalForAll",
      "outputs": [],
      "stateMutability": "nonpayable",
      "type": "function"
    },
    {
      "inputs": [
        {
          "internalType": "string",
          "name": "_newURI",
          "type": "string"
        }
      ],
      "name": "setBaseURI",
      "outputs": [],
      "stateMutability": "nonpayable",
      "type": "function"
    },
    {
      "inputs": [
        {
          "internalType": "uint256",
          "name": "_newmaxMintAmount",
          "type": "uint256"
        }
      ],
      "name": "setMaxMintAmount",
      "outputs": [],
      "stateMutability": "nonpayable",
      "type": "function"
    },
    {
      "inputs": [
        {
          "internalType": "uint256",
          "name": "_newPrice",
          "type": "uint256"
        }
      ],
      "name": "setPrice",
      "outputs": [],
      "stateMutability": "nonpayable",
      "type": "function"
    },
    {
      "inputs": [
        {
          "internalType": "address",
          "name": "_proxyRegistryAddress",
          "type": "address"
        }
      ],
      "name": "setProxyRegistryAddress",
      "outputs": [],
      "stateMutability": "nonpayable",
      "type": "function"
    },
    {
      "inputs": [
        {
          "internalType": "bytes32",
          "name": "_merkleRoot",
          "type": "bytes32"
        }
      ],
      "name": "setRoot",
      "outputs": [],
      "stateMutability": "nonpayable",
      "type": "function"
    },
    {
      "inputs": [],
      "name": "suffix",
      "outputs": [
        {
          "internalType": "string",
          "name": "",
          "type": "string"
        }
      ],
      "stateMutability": "view",
      "type": "function"
    },
    {
      "inputs": [
        {
          "internalType": "bytes4",
          "name": "interfaceId",
          "type": "bytes4"
        }
      ],
      "name": "supportsInterface",
      "outputs": [
        {
          "internalType": "bool",
          "name": "",
          "type": "bool"
        }
      ],
      "stateMutability": "view",
      "type": "function"
    },
    {
      "inputs": [],
      "name": "symbol",
      "outputs": [
        {
          "internalType": "string",
          "name": "",
          "type": "string"
        }
      ],
      "stateMutability": "view",
      "type": "function"
    },
    {
      "inputs": [
        {
          "internalType": "address",
          "name": "_proxyAddress",
          "type": "address"
        }
      ],
      "name": "toggleProxyState",
      "outputs": [],
      "stateMutability": "nonpayable",
      "type": "function"
    },
    {
      "inputs": [],
      "name": "toggleSaleLive",
      "outputs": [],
      "stateMutability": "nonpayable",
      "type": "function"
    },
    {
      "inputs": [],
      "name": "toggleWhiteList",
      "outputs": [],
      "stateMutability": "nonpayable",
      "type": "function"
    },
    {
      "inputs": [
        {
          "internalType": "uint256",
          "name": "index",
          "type": "uint256"
        }
      ],
      "name": "tokenByIndex",
      "outputs": [
        {
          "internalType": "uint256",
          "name": "",
          "type": "uint256"
        }
      ],
      "stateMutability": "view",
      "type": "function"
    },
    {
      "inputs": [
        {
          "internalType": "address",
          "name": "owner",
          "type": "address"
        },
        {
          "internalType": "uint256",
          "name": "index",
          "type": "uint256"
        }
      ],
      "name": "tokenOfOwnerByIndex",
      "outputs": [
        {
          "internalType": "uint256",
          "name": "",
          "type": "uint256"
        }
      ],
      "stateMutability": "view",
      "type": "function"
    },
    {
      "inputs": [
        {
          "internalType": "uint256",
          "name": "tokenId",
          "type": "uint256"
        }
      ],
      "name": "tokenURI",
      "outputs": [
        {
          "internalType": "string",
          "name": "",
          "type": "string"
        }
      ],
      "stateMutability": "view",
      "type": "function"
    },
    {
      "inputs": [],
      "name": "totalSupply",
      "outputs": [
        {
          "internalType": "uint256",
          "name": "",
          "type": "uint256"
        }
      ],
      "stateMutability": "view",
      "type": "function"
    },
    {
      "inputs": [
        {
          "internalType": "address",
          "name": "from",
          "type": "address"
        },
        {
          "internalType": "address",
          "name": "to",
          "type": "address"
        },
        {
          "internalType": "uint256",
          "name": "tokenId",
          "type": "uint256"
        }
      ],
      "name": "transferFrom",
      "outputs": [],
      "stateMutability": "nonpayable",
      "type": "function"
    },
    {
      "inputs": [],
      "name": "whiteListActive",
      "outputs": [
        {
          "internalType": "bool",
          "name": "",
          "type": "bool"
        }
      ],
      "stateMutability": "view",
      "type": "function"
    },
    {
      "inputs": [
        {
          "internalType": "address",
          "name": "",
          "type": "address"
        }
      ],
      "name": "whitelistClaimed",
      "outputs": [
        {
          "internalType": "bool",
          "name": "",
          "type": "bool"
        }
      ],
      "stateMutability": "view",
      "type": "function"
    },
    {
      "inputs": [
        {
          "internalType": "bytes32[]",
          "name": "_merkleProof",
          "type": "bytes32[]"
        },
        {
          "internalType": "uint256",
          "name": "_quantity",
          "type": "uint256"
        }
      ],
      "name": "whitelistMint",
      "outputs": [],
      "stateMutability": "payable",
      "type": "function"
    },
    {
      "inputs": [],
      "name": "withdraw",
      "outputs": [],
      "stateMutability": "nonpayable",
      "type": "function"
    }
  ],
  "bytecode": "0x60c06040526005608081905264173539b7b760d91b60a090815262000028916008919062000132565b50611e62600955611e4e600a556701118f178fb48000600b556006600c556004600d556015600e556013805462ff00001916620100001790553480156200006e57600080fd5b5060405162002abb38038062002abb8339810160408190526200009191620001d8565b604080518082018252600b81526a21b93cb83a37a43ab735bd60a91b602080830191825283518085019094526005845264242aa725ad60d91b908401528151919291620000e19160009162000132565b508051620000f790600190602084019062000132565b5050336000908152601160209081526040909120805460ff1916600117905582516200012a925060079184019062000132565b505062000301565b8280546200014090620002ae565b90600052602060002090601f016020900481019282620001645760008555620001af565b82601f106200017f57805160ff1916838001178555620001af565b82800160010185558215620001af579182015b82811115620001af57825182559160200191906001019062000192565b50620001bd929150620001c1565b5090565b5b80821115620001bd5760008155600101620001c2565b60006020808385031215620001eb578182fd5b82516001600160401b038082111562000202578384fd5b818501915085601f83011262000216578384fd5b8151818111156200022b576200022b620002eb565b604051601f8201601f19908116603f01168101908382118183101715620002565762000256620002eb565b8160405282815288868487010111156200026e578687fd5b8693505b8284101562000291578484018601518185018701529285019262000272565b82841115620002a257868684830101525b98975050505050505050565b600181811c90821680620002c357607f821691505b60208210811415620002e557634e487b7160e01b600052602260045260246000fd5b50919050565b634e487b7160e01b600052604160045260246000fd5b6127aa80620003116000396000f3fe60806040526004361061027d5760003560e01c8063704b6c021161014f578063b88d4fde116100c1578063dab5f3401161007a578063dab5f34014610714578063db4bec4414610734578063e081b78114610764578063e985e9c51461077e578063f7073c3a1461079e578063f906751b146107b357600080fd5b8063b88d4fde1461065f578063bbd2dc111461067f578063c87b56dd1461069f578063cd7c0326146106bf578063d26ea6c0146106df578063d9915d9b146106ff57600080fd5b806391b7f5ed1161011357806391b7f5ed146105c957806395d89b41146105e9578063a035b1fe146105fe578063a22cb46514610614578063a475b5dd14610634578063aa592f251461064957600080fd5b8063704b6c021461054857806370a08231146105685780638342083a146105885780638cc54e7f1461059e578063902d55a5146105b357600080fd5b80632e4355cd116101f35780634f6ccce7116101ac5780634f6ccce71461049f57806351830227146104bf57806355f804b3146104de57806363430b38146104fe5780636352211e146105135780636c0360eb1461053357600080fd5b80632e4355cd146103e45780632eb4a7ab146104045780632f745c591461041a5780633ccfd60b1461043a57806342842e0e1461044f578063429b62e51461046f57600080fd5b806318160ddd1161024557806318160ddd146103535780631a21ace214610372578063239c70ae1461038857806323b872dd1461039e5780632904e6d9146103be5780632db11544146103d157600080fd5b806301ffc9a71461028257806306fdde03146102b7578063081812fc146102d9578063088a4ed014610311578063095ea7b314610333575b600080fd5b34801561028e57600080fd5b506102a261029d3660046122fe565b6107d3565b60405190151581526020015b60405180910390f35b3480156102c357600080fd5b506102cc6107de565b6040516102ae91906124cc565b3480156102e557600080fd5b506102f96102f43660046122e6565b610870565b6040516001600160a01b0390911681526020016102ae565b34801561031d57600080fd5b5061033161032c3660046122e6565b6108fd565b005b34801561033f57600080fd5b5061033161034e366004612245565b610931565b34801561035f57600080fd5b506002545b6040519081526020016102ae565b34801561037e57600080fd5b50610364600d5481565b34801561039457600080fd5b50610364600c5481565b3480156103aa57600080fd5b506103316103b9366004612157565b610a47565b6103316103cc366004612270565b610a78565b6103316103df3660046122e6565b610c54565b3480156103f057600080fd5b506013546102a29062010000900460ff1681565b34801561041057600080fd5b5061036460055481565b34801561042657600080fd5b50610364610435366004612245565b610caf565b34801561044657600080fd5b50610331610d70565b34801561045b57600080fd5b5061033161046a366004612157565b610dcb565b34801561047b57600080fd5b506102a261048a3660046120fc565b60116020526000908152604090205460ff1681565b3480156104ab57600080fd5b506103646104ba3660046122e6565b610de6565b3480156104cb57600080fd5b506013546102a290610100900460ff1681565b3480156104ea57600080fd5b506103316104f9366004612352565b610e53565b34801561050a57600080fd5b50610331610e99565b34801561051f57600080fd5b506102f961052e3660046122e6565b610ee7565b34801561053f57600080fd5b506102cc610f81565b34801561055457600080fd5b506103316105633660046120fc565b61100f565b34801561057457600080fd5b506103646105833660046120fc565b611062565b34801561059457600080fd5b50610364600a5481565b3480156105aa57600080fd5b506102cc61113e565b3480156105bf57600080fd5b5061036460095481565b3480156105d557600080fd5b506103316105e43660046122e6565b61114b565b3480156105f557600080fd5b506102cc61117f565b34801561060a57600080fd5b50610364600b5481565b34801561062057600080fd5b5061033161062f366004612214565b61118e565b34801561064057600080fd5b50610331611253565b34801561065557600080fd5b50610364600e5481565b34801561066b57600080fd5b5061033161067a366004612197565b611293565b34801561068b57600080fd5b5061033161069a3660046120fc565b6112c5565b3480156106ab57600080fd5b506102cc6106ba3660046122e6565b61131d565b3480156106cb57600080fd5b50600f546102f9906001600160a01b031681565b3480156106eb57600080fd5b506103316106fa3660046120fc565b61148c565b34801561070b57600080fd5b506103316114dd565b34801561072057600080fd5b5061033161072f3660046122e6565b611520565b34801561074057600080fd5b506102a261074f3660046120fc565b60106020526000908152604090205460ff1681565b34801561077057600080fd5b506013546102a29060ff1681565b34801561078a57600080fd5b506102a261079936600461211f565b611554565b3480156107aa57600080fd5b506102cc611647565b3480156107bf57600080fd5b506103316107ce3660046122e6565b611654565b600060015b92915050565b6060600080546107ed9061269d565b80601f01602080910402602001604051908101604052809291908181526020018280546108199061269d565b80156108665780601f1061083b57610100808354040283529160200191610866565b820191906000526020600020905b81548152906001019060200180831161084957829003601f168201915b5050505050905090565b600061087b8261171a565b6108e15760405162461bcd60e51b815260206004820152602c60248201527f4552433732313a20617070726f76656420717565727920666f72206e6f6e657860448201526b34b9ba32b73a103a37b5b2b760a11b60648201526084015b60405180910390fd5b506000908152600360205260409020546001600160a01b031690565b3360009081526011602052604090205460ff1661092c5760405162461bcd60e51b81526004016108d8906124df565b600c55565b600061093c82610ee7565b9050806001600160a01b0316836001600160a01b031614156109aa5760405162461bcd60e51b815260206004820152602160248201527f4552433732313a20617070726f76616c20746f2063757272656e74206f776e656044820152603960f91b60648201526084016108d8565b336001600160a01b03821614806109c657506109c68133611554565b610a385760405162461bcd60e51b815260206004820152603860248201527f4552433732313a20617070726f76652063616c6c6572206973206e6f74206f7760448201527f6e6572206e6f7220617070726f76656420666f7220616c6c000000000000000060648201526084016108d8565b610a428383611772565b505050565b610a5133826117e0565b610a6d5760405162461bcd60e51b81526004016108d8906125be565b610a428383836118a2565b60135462010000900460ff16610ad05760405162461bcd60e51b815260206004820152601760248201527f57686974656c697374206973206e6f742061637469766500000000000000000060448201526064016108d8565b600d548110610b135760405162461bcd60e51b815260206004820152600f60248201526e4d617820616d6f756e74206973203360881b60448201526064016108d8565b3360009081526010602052604090205460ff1615610b655760405162461bcd60e51b815260206004820152600f60248201526e105b1c9958591e4818db185a5b5959608a1b60448201526064016108d8565b6040516bffffffffffffffffffffffff193360601b166020820152600090603401604051602081830303815290604052805190602001209050610bdf848480806020026020016040519081016040528093929190818152602001838360200280828437600092019190915250506005549150849050611a06565b610c2b5760405162461bcd60e51b815260206004820152601b60248201527f57686974656c6973742075736572206e6f74207665726966696564000000000060448201526064016108d8565b336000908152601060205260409020805460ff19166001179055610c4e82611a1c565b50505050565b60135462010000900460ff1615610ca35760405162461bcd60e51b815260206004820152601360248201527257686974656c6973742069732061637469766560681b60448201526064016108d8565b610cac81611a1c565b50565b6000610cba83611062565b8210610cd85760405162461bcd60e51b81526004016108d890612521565b6000805b600254811015610d575760028181548110610d0757634e487b7160e01b600052603260045260246000fd5b6000918252602090912001546001600160a01b0386811691161415610d455783821415610d375791506107d89050565b81610d41816126d8565b9250505b80610d4f816126d8565b915050610cdc565b5060405162461bcd60e51b81526004016108d890612521565b3360009081526011602052604090205460ff16610d9f5760405162461bcd60e51b81526004016108d8906124df565b60405133904780156108fc02916000818181858888f19350505050158015610cac573d6000803e3d6000fd5b610a4283838360405180602001604052806000815250611293565b6002546000908210610e4f5760405162461bcd60e51b815260206004820152602c60248201527f455243373231456e756d657261626c653a20676c6f62616c20696e646578206f60448201526b7574206f6620626f756e647360a01b60648201526084016108d8565b5090565b3360009081526011602052604090205460ff16610e825760405162461bcd60e51b81526004016108d8906124df565b8051610e95906006906020840190611ff6565b5050565b3360009081526011602052604090205460ff16610ec85760405162461bcd60e51b81526004016108d8906124df565b6013805462ff0000198116620100009182900460ff1615909102179055565b60008060028381548110610f0b57634e487b7160e01b600052603260045260246000fd5b6000918252602090912001546001600160a01b03169050806107d85760405162461bcd60e51b815260206004820152602960248201527f4552433732313a206f776e657220717565727920666f72206e6f6e657869737460448201526832b73a103a37b5b2b760b91b60648201526084016108d8565b60068054610f8e9061269d565b80601f0160208091040260200160405190810160405280929190818152602001828054610fba9061269d565b80156110075780601f10610fdc57610100808354040283529160200191611007565b820191906000526020600020905b815481529060010190602001808311610fea57829003601f168201915b505050505081565b3360009081526011602052604090205460ff1661103e5760405162461bcd60e51b81526004016108d8906124df565b6001600160a01b03166000908152601160205260409020805460ff19166001179055565b60006001600160a01b0382166110cd5760405162461bcd60e51b815260206004820152602a60248201527f4552433732313a2062616c616e636520717565727920666f7220746865207a65604482015269726f206164647265737360b01b60648201526084016108d8565b6000805b60025481101561113757600281815481106110fc57634e487b7160e01b600052603260045260246000fd5b6000918252602090912001546001600160a01b038581169116141561112757611124826126d8565b91505b611130816126d8565b90506110d1565b5092915050565b60078054610f8e9061269d565b3360009081526011602052604090205460ff1661117a5760405162461bcd60e51b81526004016108d8906124df565b600b55565b6060600180546107ed9061269d565b6001600160a01b0382163314156111e75760405162461bcd60e51b815260206004820152601960248201527f4552433732313a20617070726f766520746f2063616c6c65720000000000000060448201526064016108d8565b3360008181526004602090815260408083206001600160a01b03871680855290835292819020805460ff191686151590811790915590519081529192917f17307eab39ab6107e8899845ad3d59bd9653f200f220920489ca2b5937696c31910160405180910390a35050565b3360009081526011602052604090205460ff166112825760405162461bcd60e51b81526004016108d8906124df565b6013805461ff001916610100179055565b61129d33836117e0565b6112b95760405162461bcd60e51b81526004016108d8906125be565b610c4e84848484611bba565b3360009081526011602052604090205460ff166112f45760405162461bcd60e51b81526004016108d8906124df565b6001600160a01b03166000908152601260205260409020805460ff19811660ff90911615179055565b60606113288261171a565b61138c5760405162461bcd60e51b815260206004820152602f60248201527f4552433732314d657461646174613a2055524920717565727920666f72206e6f60448201526e3732bc34b9ba32b73a103a37b5b2b760891b60648201526084016108d8565b601354610100900460ff1661142d57600780546113a89061269d565b80601f01602080910402602001604051908101604052809291908181526020018280546113d49061269d565b80156114215780601f106113f657610100808354040283529160200191611421565b820191906000526020600020905b81548152906001019060200180831161140457829003601f168201915b50505050509050919050565b60006006805461143c9061269d565b90501161145857604051806020016040528060008152506107d8565b600661146383611bed565b60086040516020016114779392919061245c565b60405160208183030381529060405292915050565b3360009081526011602052604090205460ff166114bb5760405162461bcd60e51b81526004016108d8906124df565b600f80546001600160a01b0319166001600160a01b0392909216919091179055565b3360009081526011602052604090205460ff1661150c5760405162461bcd60e51b81526004016108d8906124df565b6013805460ff19811660ff90911615179055565b3360009081526011602052604090205460ff1661154f5760405162461bcd60e51b81526004016108d8906124df565b600555565b600f5460405163c455279160e01b81526001600160a01b03848116600483015260009281169190841690829063c45527919060240160206040518083038186803b1580156115a157600080fd5b505afa1580156115b5573d6000803e3d6000fd5b505050506040513d601f19601f820116820180604052508101906115d99190612336565b6001600160a01b0316148061160657506001600160a01b03831660009081526012602052604090205460ff165b156116155760019150506107d8565b6001600160a01b0380851660009081526004602090815260408083209387168352929052205460ff165b949350505050565b60088054610f8e9061269d565b3360009081526011602052604090205460ff166116835760405162461bcd60e51b81526004016108d8906124df565b600e5481106116c85760405162461bcd60e51b8152602060048201526011602482015270105b5bdd5b9d081a5cc81a5b9d985b1a59607a1b60448201526064016108d8565b60025460015b8281116116fa576116e8336116e3838561260f565b611d07565b806116f2816126d8565b9150506116ce565b5081600e600082825461170d919061265a565b9182905550600e55505050565b600254600090821080156107d8575060006001600160a01b03166002838154811061175557634e487b7160e01b600052603260045260246000fd5b6000918252602090912001546001600160a01b0316141592915050565b600081815260036020526040902080546001600160a01b0319166001600160a01b03841690811790915581906117a782610ee7565b6001600160a01b03167f8c5be1e5ebec7d5bd14f71427d1e84f3dd0314c0f7b2291e5b200ac8c7c3b92560405160405180910390a45050565b60006117eb8261171a565b61184c5760405162461bcd60e51b815260206004820152602c60248201527f4552433732313a206f70657261746f7220717565727920666f72206e6f6e657860448201526b34b9ba32b73a103a37b5b2b760a11b60648201526084016108d8565b600061185783610ee7565b9050806001600160a01b0316846001600160a01b031614806118925750836001600160a01b031661188784610870565b6001600160a01b0316145b8061163f575061163f8185611554565b826001600160a01b03166118b582610ee7565b6001600160a01b03161461191d5760405162461bcd60e51b815260206004820152602960248201527f4552433732313a207472616e73666572206f6620746f6b656e2074686174206960448201526839903737ba1037bbb760b91b60648201526084016108d8565b6001600160a01b03821661197f5760405162461bcd60e51b8152602060048201526024808201527f4552433732313a207472616e7366657220746f20746865207a65726f206164646044820152637265737360e01b60648201526084016108d8565b61198a600082611772565b81600282815481106119ac57634e487b7160e01b600052603260045260246000fd5b6000918252602082200180546001600160a01b0319166001600160a01b03938416179055604051839285811692908716917fddf252ad1be2c89b69c2b068fc378daa952ba7f163c4a11628f55a4df523b3ef9190a4505050565b600082611a138584611e2f565b14949350505050565b323314611a6b5760405162461bcd60e51b815260206004820152601f60248201527f43616c6c6572206d757374206265206f726967696e616c20616464726573730060448201526064016108d8565b60135460ff161515600114611ab35760405162461bcd60e51b815260206004820152600e60248201526d14d85b19481a5cc81c185d5cd95960921b60448201526064016108d8565b600c548110611af55760405162461bcd60e51b815260206004820152600e60248201526d125b9d985b1a5908185b5bdd5b9d60921b60448201526064016108d8565b600254600a548110611b345760405162461bcd60e51b815260206004820152600860248201526714dbdb19081bdd5d60c21b60448201526064016108d8565b81600b54611b42919061263b565b3414611b905760405162461bcd60e51b815260206004820152601960248201527f496e636f727265637420616d6f756e74206f662065746865720000000000000060448201526064016108d8565b60015b828111610a4257611ba8336116e3838561260f565b80611bb2816126d8565b915050611b93565b611bc58484846118a2565b611bd184848484611ee9565b610c4e5760405162461bcd60e51b81526004016108d89061256c565b606081611c115750506040805180820190915260018152600360fc1b602082015290565b8160005b8115611c3b5780611c25816126d8565b9150611c349050600a83612627565b9150611c15565b60008167ffffffffffffffff811115611c6457634e487b7160e01b600052604160045260246000fd5b6040519080825280601f01601f191660200182016040528015611c8e576020820181803683370190505b5090505b841561163f57611ca360018361265a565b9150611cb0600a866126f3565b611cbb90603061260f565b60f81b818381518110611cde57634e487b7160e01b600052603260045260246000fd5b60200101906001600160f81b031916908160001a905350611d00600a86612627565b9450611c92565b6001600160a01b038216611d5d5760405162461bcd60e51b815260206004820181905260248201527f4552433732313a206d696e7420746f20746865207a65726f206164647265737360448201526064016108d8565b611d668161171a565b15611db35760405162461bcd60e51b815260206004820152601c60248201527f4552433732313a20746f6b656e20616c7265616479206d696e7465640000000060448201526064016108d8565b6002805460018101825560009182527f405787fa12a823e0f2b7631cc41b3ba8828b3321ca811111fa75cd3aa3bb5ace0180546001600160a01b0319166001600160a01b0385169081179091556040518392907fddf252ad1be2c89b69c2b068fc378daa952ba7f163c4a11628f55a4df523b3ef908290a45050565b600081815b8451811015611ee1576000858281518110611e5f57634e487b7160e01b600052603260045260246000fd5b60200260200101519050808311611ea1576040805160208101859052908101829052606001604051602081830303815290604052805190602001209250611ece565b60408051602081018390529081018490526060016040516020818303038152906040528051906020012092505b5080611ed9816126d8565b915050611e34565b509392505050565b60006001600160a01b0384163b15611feb57604051630a85bd0160e11b81526001600160a01b0385169063150b7a0290611f2d90339089908890889060040161248f565b602060405180830381600087803b158015611f4757600080fd5b505af1925050508015611f77575060408051601f3d908101601f19168201909252611f749181019061231a565b60015b611fd1573d808015611fa5576040519150601f19603f3d011682016040523d82523d6000602084013e611faa565b606091505b508051611fc95760405162461bcd60e51b81526004016108d89061256c565b805181602001fd5b6001600160e01b031916630a85bd0160e11b14905061163f565b506001949350505050565b8280546120029061269d565b90600052602060002090601f016020900481019282612024576000855561206a565b82601f1061203d57805160ff191683800117855561206a565b8280016001018555821561206a579182015b8281111561206a57825182559160200191906001019061204f565b50610e4f9291505b80821115610e4f5760008155600101612072565b600067ffffffffffffffff808411156120a1576120a1612733565b604051601f8501601f19908116603f011681019082821181831017156120c9576120c9612733565b816040528093508581528686860111156120e257600080fd5b858560208301376000602087830101525050509392505050565b60006020828403121561210d578081fd5b813561211881612749565b9392505050565b60008060408385031215612131578081fd5b823561213c81612749565b9150602083013561214c81612749565b809150509250929050565b60008060006060848603121561216b578081fd5b833561217681612749565b9250602084013561218681612749565b929592945050506040919091013590565b600080600080608085870312156121ac578081fd5b84356121b781612749565b935060208501356121c781612749565b925060408501359150606085013567ffffffffffffffff8111156121e9578182fd5b8501601f810187136121f9578182fd5b61220887823560208401612086565b91505092959194509250565b60008060408385031215612226578182fd5b823561223181612749565b91506020830135801515811461214c578182fd5b60008060408385031215612257578182fd5b823561226281612749565b946020939093013593505050565b600080600060408486031215612284578283fd5b833567ffffffffffffffff8082111561229b578485fd5b818601915086601f8301126122ae578485fd5b8135818111156122bc578586fd5b8760208260051b85010111156122d0578586fd5b6020928301989097509590910135949350505050565b6000602082840312156122f7578081fd5b5035919050565b60006020828403121561230f578081fd5b81356121188161275e565b60006020828403121561232b578081fd5b81516121188161275e565b600060208284031215612347578081fd5b815161211881612749565b600060208284031215612363578081fd5b813567ffffffffffffffff811115612379578182fd5b8201601f81018413612389578182fd5b61163f84823560208401612086565b600081518084526123b0816020860160208601612671565b601f01601f19169290920160200192915050565b8054600090600181811c90808316806123de57607f831692505b60208084108214156123fe57634e487b7160e01b86526022600452602486fd5b818015612412576001811461242357612450565b60ff19861689528489019650612450565b60008881526020902060005b868110156124485781548b82015290850190830161242f565b505084890196505b50505050505092915050565b600061246882866123c4565b8451612478818360208901612671565b612484818301866123c4565b979650505050505050565b6001600160a01b03858116825284166020820152604081018390526080606082018190526000906124c290830184612398565b9695505050505050565b6020815260006121186020830184612398565b60208082526022908201527f4f6e6c792061646d696e732063616e2063616c6c20746869732066756e63746960408201526137b760f11b606082015260800190565b6020808252602b908201527f455243373231456e756d657261626c653a206f776e657220696e646578206f7560408201526a74206f6620626f756e647360a81b606082015260800190565b60208082526032908201527f4552433732313a207472616e7366657220746f206e6f6e20455243373231526560408201527131b2b4bb32b91034b6b83632b6b2b73a32b960711b606082015260800190565b60208082526031908201527f4552433732313a207472616e736665722063616c6c6572206973206e6f74206f6040820152701ddb995c881b9bdc88185c1c1c9bdd9959607a1b606082015260800190565b6000821982111561262257612622612707565b500190565b6000826126365761263661271d565b500490565b600081600019048311821515161561265557612655612707565b500290565b60008282101561266c5761266c612707565b500390565b60005b8381101561268c578181015183820152602001612674565b83811115610c4e5750506000910152565b600181811c908216806126b157607f821691505b602082108114156126d257634e487b7160e01b600052602260045260246000fd5b50919050565b60006000198214156126ec576126ec612707565b5060010190565b6000826127025761270261271d565b500690565b634e487b7160e01b600052601160045260246000fd5b634e487b7160e01b600052601260045260246000fd5b634e487b7160e01b600052604160045260246000fd5b6001600160a01b0381168114610cac57600080fd5b6001600160e01b031981168114610cac57600080fdfea26469706673582212200553f8fbf92fcf3b26666dd829a7a9b0fb9f30e43d4c230615e49963568d6c3464736f6c63430008040033",
  "linkReferences": {},
  "deployedLinkReferences": {}
}