{
  "_format": "hh-sol-artifact-1",
  "contractName": "CryptoHunkz",
  "sourceName": "contracts/CryptoHunkz.sol",
  "abi": [
    {
      "inputs": [],
      "stateMutability": "nonpayable",
      "type": "constructor"
    },
    {
      "anonymous": false,
      "inputs": [
        {
          "indexed": true,
          "internalType": "address",
          "name": "owner",
          "type": "address"
        },
        {
          "indexed": true,
          "internalType": "address",
          "name": "approved",
          "type": "address"
        },
        {
          "indexed": true,
          "internalType": "uint256",
          "name": "tokenId",
          "type": "uint256"
        }
      ],
      "name": "Approval",
      "type": "event"
    },
    {
      "anonymous": false,
      "inputs": [
        {
          "indexed": true,
          "internalType": "address",
          "name": "owner",
          "type": "address"
        },
        {
          "indexed": true,
          "internalType": "address",
          "name": "operator",
          "type": "address"
        },
        {
          "indexed": false,
          "internalType": "bool",
          "name": "approved",
          "type": "bool"
        }
      ],
      "name": "ApprovalForAll",
      "type": "event"
    },
    {
      "anonymous": false,
      "inputs": [
        {
          "indexed": true,
          "internalType": "address",
          "name": "from",
          "type": "address"
        },
        {
          "indexed": true,
          "internalType": "address",
          "name": "to",
          "type": "address"
        },
        {
          "indexed": true,
          "internalType": "uint256",
          "name": "tokenId",
          "type": "uint256"
        }
      ],
      "name": "Transfer",
      "type": "event"
    },
    {
      "inputs": [],
      "name": "PUBLIC_SUPPLY",
      "outputs": [
        {
          "internalType": "uint256",
          "name": "",
          "type": "uint256"
        }
      ],
      "stateMutability": "view",
      "type": "function"
    },
    {
      "inputs": [],
      "name": "RESERVED",
      "outputs": [
        {
          "internalType": "uint256",
          "name": "",
          "type": "uint256"
        }
      ],
      "stateMutability": "view",
      "type": "function"
    },
    {
      "inputs": [],
      "name": "TOTAL_SUPPLY",
      "outputs": [
        {
          "internalType": "uint256",
          "name": "",
          "type": "uint256"
        }
      ],
      "stateMutability": "view",
      "type": "function"
    },
    {
      "inputs": [
        {
          "internalType": "address",
          "name": "",
          "type": "address"
        }
      ],
      "name": "admins",
      "outputs": [
        {
          "internalType": "bool",
          "name": "",
          "type": "bool"
        }
      ],
      "stateMutability": "view",
      "type": "function"
    },
    {
      "inputs": [
        {
          "internalType": "address",
          "name": "to",
          "type": "address"
        },
        {
          "internalType": "uint256",
          "name": "tokenId",
          "type": "uint256"
        }
      ],
      "name": "approve",
      "outputs": [],
      "stateMutability": "nonpayable",
      "type": "function"
    },
    {
      "inputs": [
        {
          "internalType": "address",
          "name": "owner",
          "type": "address"
        }
      ],
      "name": "balanceOf",
      "outputs": [
        {
          "internalType": "uint256",
          "name": "",
          "type": "uint256"
        }
      ],
      "stateMutability": "view",
      "type": "function"
    },
    {
      "inputs": [],
      "name": "baseURI",
      "outputs": [
        {
          "internalType": "string",
          "name": "",
          "type": "string"
        }
      ],
      "stateMutability": "view",
      "type": "function"
    },
    {
      "inputs": [
        {
          "internalType": "uint256",
          "name": "tokenId",
          "type": "uint256"
        }
      ],
      "name": "getApproved",
      "outputs": [
        {
          "internalType": "address",
          "name": "",
          "type": "address"
        }
      ],
      "stateMutability": "view",
      "type": "function"
    },
    {
      "inputs": [
        {
          "internalType": "address",
          "name": "_owner",
          "type": "address"
        },
        {
          "internalType": "address",
          "name": "_operator",
          "type": "address"
        }
      ],
      "name": "isApprovedForAll",
      "outputs": [
        {
          "internalType": "bool",
          "name": "",
          "type": "bool"
        }
      ],
      "stateMutability": "view",
      "type": "function"
    },
    {
      "inputs": [],
      "name": "maxMintAmount",
      "outputs": [
        {
          "internalType": "uint256",
          "name": "",
          "type": "uint256"
        }
      ],
      "stateMutability": "view",
      "type": "function"
    },
    {
      "inputs": [],
      "name": "maxWLAmount",
      "outputs": [
        {
          "internalType": "uint256",
          "name": "",
          "type": "uint256"
        }
      ],
      "stateMutability": "view",
      "type": "function"
    },
    {
      "inputs": [],
      "name": "merkleRoot",
      "outputs": [
        {
          "internalType": "bytes32",
          "name": "",
          "type": "bytes32"
        }
      ],
      "stateMutability": "view",
      "type": "function"
    },
    {
      "inputs": [
        {
          "internalType": "uint256",
          "name": "_amount",
          "type": "uint256"
        }
      ],
      "name": "mintReserve",
      "outputs": [],
      "stateMutability": "nonpayable",
      "type": "function"
    },
    {
      "inputs": [],
      "name": "name",
      "outputs": [
        {
          "internalType": "string",
          "name": "",
          "type": "string"
        }
      ],
      "stateMutability": "view",
      "type": "function"
    },
    {
      "inputs": [
        {
          "internalType": "uint256",
          "name": "tokenId",
          "type": "uint256"
        }
      ],
      "name": "ownerOf",
      "outputs": [
        {
          "internalType": "address",
          "name": "",
          "type": "address"
        }
      ],
      "stateMutability": "view",
      "type": "function"
    },
    {
      "inputs": [],
      "name": "price",
      "outputs": [
        {
          "internalType": "uint256",
          "name": "",
          "type": "uint256"
        }
      ],
      "stateMutability": "view",
      "type": "function"
    },
    {
      "inputs": [],
      "name": "proxyRegistryAddress",
      "outputs": [
        {
          "internalType": "address",
          "name": "",
          "type": "address"
        }
      ],
      "stateMutability": "view",
      "type": "function"
    },
    {
      "inputs": [
        {
          "internalType": "uint256",
          "name": "_quantity",
          "type": "uint256"
        }
      ],
      "name": "publicMint",
      "outputs": [],
      "stateMutability": "payable",
      "type": "function"
    },
    {
      "inputs": [],
      "name": "reveal",
      "outputs": [],
      "stateMutability": "nonpayable",
      "type": "function"
    },
    {
      "inputs": [],
      "name": "revealed",
      "outputs": [
        {
          "internalType": "bool",
          "name": "",
          "type": "bool"
        }
      ],
      "stateMutability": "view",
      "type": "function"
    },
    {
      "inputs": [
        {
          "internalType": "address",
          "name": "from",
          "type": "address"
        },
        {
          "internalType": "address",
          "name": "to",
          "type": "address"
        },
        {
          "internalType": "uint256",
          "name": "tokenId",
          "type": "uint256"
        }
      ],
      "name": "safeTransferFrom",
      "outputs": [],
      "stateMutability": "nonpayable",
      "type": "function"
    },
    {
      "inputs": [
        {
          "internalType": "address",
          "name": "from",
          "type": "address"
        },
        {
          "internalType": "address",
          "name": "to",
          "type": "address"
        },
        {
          "internalType": "uint256",
          "name": "tokenId",
          "type": "uint256"
        },
        {
          "internalType": "bytes",
          "name": "_data",
          "type": "bytes"
        }
      ],
      "name": "safeTransferFrom",
      "outputs": [],
      "stateMutability": "nonpayable",
      "type": "function"
    },
    {
      "inputs": [],
      "name": "saleLive",
      "outputs": [
        {
          "internalType": "bool",
          "name": "",
          "type": "bool"
        }
      ],
      "stateMutability": "view",
      "type": "function"
    },
    {
      "inputs": [
        {
          "internalType": "address",
          "name": "_newAdmin",
          "type": "address"
        }
      ],
      "name": "setAdmin",
      "outputs": [],
      "stateMutability": "nonpayable",
      "type": "function"
    },
    {
      "inputs": [
        {
          "internalType": "address",
          "name": "operator",
          "type": "address"
        },
        {
          "internalType": "bool",
          "name": "approved",
          "type": "bool"
        }
      ],
      "name": "setApprovalForAll",
      "outputs": [],
      "stateMutability": "nonpayable",
      "type": "function"
    },
    {
      "inputs": [
        {
          "internalType": "string",
          "name": "_newURI",
          "type": "string"
        }
      ],
      "name": "setBaseURI",
      "outputs": [],
      "stateMutability": "nonpayable",
      "type": "function"
    },
    {
      "inputs": [
        {
          "internalType": "uint256",
          "name": "_newmaxMintAmount",
          "type": "uint256"
        }
      ],
      "name": "setMaxMintAmount",
      "outputs": [],
      "stateMutability": "nonpayable",
      "type": "function"
    },
    {
      "inputs": [
        {
          "internalType": "uint256",
          "name": "_newPrice",
          "type": "uint256"
        }
      ],
      "name": "setPrice",
      "outputs": [],
      "stateMutability": "nonpayable",
      "type": "function"
    },
    {
      "inputs": [
        {
          "internalType": "address",
          "name": "_proxyRegistryAddress",
          "type": "address"
        }
      ],
      "name": "setProxyRegistryAddress",
      "outputs": [],
      "stateMutability": "nonpayable",
      "type": "function"
    },
    {
      "inputs": [
        {
          "internalType": "bytes32",
          "name": "_merkleRoot",
          "type": "bytes32"
        }
      ],
      "name": "setRoot",
      "outputs": [],
      "stateMutability": "nonpayable",
      "type": "function"
    },
    {
      "inputs": [
        {
          "internalType": "bytes4",
          "name": "interfaceId",
          "type": "bytes4"
        }
      ],
      "name": "supportsInterface",
      "outputs": [
        {
          "internalType": "bool",
          "name": "",
          "type": "bool"
        }
      ],
      "stateMutability": "view",
      "type": "function"
    },
    {
      "inputs": [],
      "name": "symbol",
      "outputs": [
        {
          "internalType": "string",
          "name": "",
          "type": "string"
        }
      ],
      "stateMutability": "view",
      "type": "function"
    },
    {
      "inputs": [
        {
          "internalType": "address",
          "name": "_proxyAddress",
          "type": "address"
        }
      ],
      "name": "toggleProxyState",
      "outputs": [],
      "stateMutability": "nonpayable",
      "type": "function"
    },
    {
      "inputs": [],
      "name": "toggleSaleLive",
      "outputs": [],
      "stateMutability": "nonpayable",
      "type": "function"
    },
    {
      "inputs": [],
      "name": "toggleWhiteList",
      "outputs": [],
      "stateMutability": "nonpayable",
      "type": "function"
    },
    {
      "inputs": [
        {
          "internalType": "uint256",
          "name": "index",
          "type": "uint256"
        }
      ],
      "name": "tokenByIndex",
      "outputs": [
        {
          "internalType": "uint256",
          "name": "",
          "type": "uint256"
        }
      ],
      "stateMutability": "view",
      "type": "function"
    },
    {
      "inputs": [
        {
          "internalType": "address",
          "name": "owner",
          "type": "address"
        },
        {
          "internalType": "uint256",
          "name": "index",
          "type": "uint256"
        }
      ],
      "name": "tokenOfOwnerByIndex",
      "outputs": [
        {
          "internalType": "uint256",
          "name": "",
          "type": "uint256"
        }
      ],
      "stateMutability": "view",
      "type": "function"
    },
    {
      "inputs": [
        {
          "internalType": "uint256",
          "name": "tokenId",
          "type": "uint256"
        }
      ],
      "name": "tokenURI",
      "outputs": [
        {
          "internalType": "string",
          "name": "",
          "type": "string"
        }
      ],
      "stateMutability": "view",
      "type": "function"
    },
    {
      "inputs": [],
      "name": "totalSupply",
      "outputs": [
        {
          "internalType": "uint256",
          "name": "",
          "type": "uint256"
        }
      ],
      "stateMutability": "view",
      "type": "function"
    },
    {
      "inputs": [
        {
          "internalType": "address",
          "name": "from",
          "type": "address"
        },
        {
          "internalType": "address",
          "name": "to",
          "type": "address"
        },
        {
          "internalType": "uint256",
          "name": "tokenId",
          "type": "uint256"
        }
      ],
      "name": "transferFrom",
      "outputs": [],
      "stateMutability": "nonpayable",
      "type": "function"
    },
    {
      "inputs": [],
      "name": "whiteListActive",
      "outputs": [
        {
          "internalType": "bool",
          "name": "",
          "type": "bool"
        }
      ],
      "stateMutability": "view",
      "type": "function"
    },
    {
      "inputs": [
        {
          "internalType": "address",
          "name": "",
          "type": "address"
        }
      ],
      "name": "whitelistClaimed",
      "outputs": [
        {
          "internalType": "bool",
          "name": "",
          "type": "bool"
        }
      ],
      "stateMutability": "view",
      "type": "function"
    },
    {
      "inputs": [
        {
          "internalType": "bytes32[]",
          "name": "_merkleProof",
          "type": "bytes32[]"
        },
        {
          "internalType": "uint256",
          "name": "_quantity",
          "type": "uint256"
        }
      ],
      "name": "whitelistMint",
      "outputs": [],
      "stateMutability": "payable",
      "type": "function"
    },
    {
      "inputs": [],
      "name": "withdraw",
      "outputs": [],
      "stateMutability": "nonpayable",
      "type": "function"
    }
  ],
  "bytecode": "0x6080604052611e62600755611e4e6008556701118f178fb480006009556006600a556004600b556015600c556011805462ff00001916620100001790553480156200004957600080fd5b50604080518082018252600b81526a21b93cb83a37a43ab735bd60a91b602080830191825283518085019094526005845264242aa725ad60d91b9084015281519192916200009a91600091620000d3565b508051620000b0906001906020840190620000d3565b5050336000908152600f60205260409020805460ff1916600117905550620001b6565b828054620000e19062000179565b90600052602060002090601f01602090048101928262000105576000855562000150565b82601f106200012057805160ff191683800117855562000150565b8280016001018555821562000150579182015b828111156200015057825182559160200191906001019062000133565b506200015e92915062000162565b5090565b5b808211156200015e576000815560010162000163565b600181811c908216806200018e57607f821691505b60208210811415620001b057634e487b7160e01b600052602260045260246000fd5b50919050565b61266580620001c66000396000f3fe6080604052600436106102675760003560e01c80636c0360eb11610144578063b88d4fde116100b6578063d9915d9b1161007a578063d9915d9b146106d4578063dab5f340146106e9578063db4bec4414610709578063e081b78114610739578063e985e9c514610753578063f906751b1461077357600080fd5b8063b88d4fde14610634578063bbd2dc1114610654578063c87b56dd14610674578063cd7c032614610694578063d26ea6c0146106b457600080fd5b806391b7f5ed1161010857806391b7f5ed1461059e57806395d89b41146105be578063a035b1fe146105d3578063a22cb465146105e9578063a475b5dd14610609578063aa592f251461061e57600080fd5b80636c0360eb1461051d578063704b6c021461053257806370a08231146105525780638342083a14610572578063902d55a51461058857600080fd5b80632e4355cd116101dd578063429b62e5116101a1578063429b62e5146104595780634f6ccce71461048957806351830227146104a957806355f804b3146104c857806363430b38146104e85780636352211e146104fd57600080fd5b80632e4355cd146103ce5780632eb4a7ab146103ee5780632f745c59146104045780633ccfd60b1461042457806342842e0e1461043957600080fd5b806318160ddd1161022f57806318160ddd1461033d5780631a21ace21461035c578063239c70ae1461037257806323b872dd146103885780632904e6d9146103a85780632db11544146103bb57600080fd5b806301ffc9a71461026c57806306fdde03146102a1578063081812fc146102c3578063088a4ed0146102fb578063095ea7b31461031d575b600080fd5b34801561027857600080fd5b5061028c610287366004612255565b610793565b60405190151581526020015b60405180910390f35b3480156102ad57600080fd5b506102b661079e565b6040516102989190612387565b3480156102cf57600080fd5b506102e36102de36600461223d565b610830565b6040516001600160a01b039091168152602001610298565b34801561030757600080fd5b5061031b61031636600461223d565b6108bd565b005b34801561032957600080fd5b5061031b61033836600461219c565b6108f1565b34801561034957600080fd5b506002545b604051908152602001610298565b34801561036857600080fd5b5061034e600b5481565b34801561037e57600080fd5b5061034e600a5481565b34801561039457600080fd5b5061031b6103a33660046120ae565b610a07565b61031b6103b63660046121c7565b610a38565b61031b6103c936600461223d565b610c14565b3480156103da57600080fd5b5060115461028c9062010000900460ff1681565b3480156103fa57600080fd5b5061034e60055481565b34801561041057600080fd5b5061034e61041f36600461219c565b610c6f565b34801561043057600080fd5b5061031b610d30565b34801561044557600080fd5b5061031b6104543660046120ae565b610d8b565b34801561046557600080fd5b5061028c61047436600461205a565b600f6020526000908152604090205460ff1681565b34801561049557600080fd5b5061034e6104a436600461223d565b610da6565b3480156104b557600080fd5b5060115461028c90610100900460ff1681565b3480156104d457600080fd5b5061031b6104e33660046122a9565b610e13565b3480156104f457600080fd5b5061031b610e59565b34801561050957600080fd5b506102e361051836600461223d565b610ea7565b34801561052957600080fd5b506102b6610f41565b34801561053e57600080fd5b5061031b61054d36600461205a565b610fcf565b34801561055e57600080fd5b5061034e61056d36600461205a565b611022565b34801561057e57600080fd5b5061034e60085481565b34801561059457600080fd5b5061034e60075481565b3480156105aa57600080fd5b5061031b6105b936600461223d565b6110fe565b3480156105ca57600080fd5b506102b6611132565b3480156105df57600080fd5b5061034e60095481565b3480156105f557600080fd5b5061031b61060436600461216b565b611141565b34801561061557600080fd5b5061031b611206565b34801561062a57600080fd5b5061034e600c5481565b34801561064057600080fd5b5061031b61064f3660046120ee565b611246565b34801561066057600080fd5b5061031b61066f36600461205a565b611278565b34801561068057600080fd5b506102b661068f36600461223d565b6112d0565b3480156106a057600080fd5b50600d546102e3906001600160a01b031681565b3480156106c057600080fd5b5061031b6106cf36600461205a565b61139b565b3480156106e057600080fd5b5061031b6113ec565b3480156106f557600080fd5b5061031b61070436600461223d565b61142f565b34801561071557600080fd5b5061028c61072436600461205a565b600e6020526000908152604090205460ff1681565b34801561074557600080fd5b5060115461028c9060ff1681565b34801561075f57600080fd5b5061028c61076e366004612076565b611463565b34801561077f57600080fd5b5061031b61078e36600461223d565b611556565b600060015b92915050565b6060600080546107ad90612558565b80601f01602080910402602001604051908101604052809291908181526020018280546107d990612558565b80156108265780601f106107fb57610100808354040283529160200191610826565b820191906000526020600020905b81548152906001019060200180831161080957829003601f168201915b5050505050905090565b600061083b8261161c565b6108a15760405162461bcd60e51b815260206004820152602c60248201527f4552433732313a20617070726f76656420717565727920666f72206e6f6e657860448201526b34b9ba32b73a103a37b5b2b760a11b60648201526084015b60405180910390fd5b506000908152600360205260409020546001600160a01b031690565b336000908152600f602052604090205460ff166108ec5760405162461bcd60e51b81526004016108989061239a565b600a55565b60006108fc82610ea7565b9050806001600160a01b0316836001600160a01b0316141561096a5760405162461bcd60e51b815260206004820152602160248201527f4552433732313a20617070726f76616c20746f2063757272656e74206f776e656044820152603960f91b6064820152608401610898565b336001600160a01b038216148061098657506109868133611463565b6109f85760405162461bcd60e51b815260206004820152603860248201527f4552433732313a20617070726f76652063616c6c6572206973206e6f74206f7760448201527f6e6572206e6f7220617070726f76656420666f7220616c6c00000000000000006064820152608401610898565b610a028383611674565b505050565b610a1133826116e2565b610a2d5760405162461bcd60e51b815260040161089890612479565b610a028383836117a4565b60115462010000900460ff16610a905760405162461bcd60e51b815260206004820152601760248201527f57686974656c697374206973206e6f74206163746976650000000000000000006044820152606401610898565b600b548110610ad35760405162461bcd60e51b815260206004820152600f60248201526e4d617820616d6f756e74206973203360881b6044820152606401610898565b336000908152600e602052604090205460ff1615610b255760405162461bcd60e51b815260206004820152600f60248201526e105b1c9958591e4818db185a5b5959608a1b6044820152606401610898565b6040516bffffffffffffffffffffffff193360601b166020820152600090603401604051602081830303815290604052805190602001209050610b9f848480806020026020016040519081016040528093929190818152602001838360200280828437600092019190915250506005549150849050611908565b610beb5760405162461bcd60e51b815260206004820152601b60248201527f57686974656c6973742075736572206e6f7420766572696669656400000000006044820152606401610898565b336000908152600e60205260409020805460ff19166001179055610c0e8261191e565b50505050565b60115462010000900460ff1615610c635760405162461bcd60e51b815260206004820152601360248201527257686974656c6973742069732061637469766560681b6044820152606401610898565b610c6c8161191e565b50565b6000610c7a83611022565b8210610c985760405162461bcd60e51b8152600401610898906123dc565b6000805b600254811015610d175760028181548110610cc757634e487b7160e01b600052603260045260246000fd5b6000918252602090912001546001600160a01b0386811691161415610d055783821415610cf75791506107989050565b81610d0181612593565b9250505b80610d0f81612593565b915050610c9c565b5060405162461bcd60e51b8152600401610898906123dc565b336000908152600f602052604090205460ff16610d5f5760405162461bcd60e51b81526004016108989061239a565b60405133904780156108fc02916000818181858888f19350505050158015610c6c573d6000803e3d6000fd5b610a0283838360405180602001604052806000815250611246565b6002546000908210610e0f5760405162461bcd60e51b815260206004820152602c60248201527f455243373231456e756d657261626c653a20676c6f62616c20696e646578206f60448201526b7574206f6620626f756e647360a01b6064820152608401610898565b5090565b336000908152600f602052604090205460ff16610e425760405162461bcd60e51b81526004016108989061239a565b8051610e55906006906020840190611f54565b5050565b336000908152600f602052604090205460ff16610e885760405162461bcd60e51b81526004016108989061239a565b6011805462ff0000198116620100009182900460ff1615909102179055565b60008060028381548110610ecb57634e487b7160e01b600052603260045260246000fd5b6000918252602090912001546001600160a01b03169050806107985760405162461bcd60e51b815260206004820152602960248201527f4552433732313a206f776e657220717565727920666f72206e6f6e657869737460448201526832b73a103a37b5b2b760b91b6064820152608401610898565b60068054610f4e90612558565b80601f0160208091040260200160405190810160405280929190818152602001828054610f7a90612558565b8015610fc75780601f10610f9c57610100808354040283529160200191610fc7565b820191906000526020600020905b815481529060010190602001808311610faa57829003601f168201915b505050505081565b336000908152600f602052604090205460ff16610ffe5760405162461bcd60e51b81526004016108989061239a565b6001600160a01b03166000908152600f60205260409020805460ff19166001179055565b60006001600160a01b03821661108d5760405162461bcd60e51b815260206004820152602a60248201527f4552433732313a2062616c616e636520717565727920666f7220746865207a65604482015269726f206164647265737360b01b6064820152608401610898565b6000805b6002548110156110f757600281815481106110bc57634e487b7160e01b600052603260045260246000fd5b6000918252602090912001546001600160a01b03858116911614156110e7576110e482612593565b91505b6110f081612593565b9050611091565b5092915050565b336000908152600f602052604090205460ff1661112d5760405162461bcd60e51b81526004016108989061239a565b600955565b6060600180546107ad90612558565b6001600160a01b03821633141561119a5760405162461bcd60e51b815260206004820152601960248201527f4552433732313a20617070726f766520746f2063616c6c6572000000000000006044820152606401610898565b3360008181526004602090815260408083206001600160a01b03871680855290835292819020805460ff191686151590811790915590519081529192917f17307eab39ab6107e8899845ad3d59bd9653f200f220920489ca2b5937696c31910160405180910390a35050565b336000908152600f602052604090205460ff166112355760405162461bcd60e51b81526004016108989061239a565b6011805461ff001916610100179055565b61125033836116e2565b61126c5760405162461bcd60e51b815260040161089890612479565b610c0e84848484611abc565b336000908152600f602052604090205460ff166112a75760405162461bcd60e51b81526004016108989061239a565b6001600160a01b03166000908152601060205260409020805460ff19811660ff90911615179055565b60606112db8261161c565b61133f5760405162461bcd60e51b815260206004820152602f60248201527f4552433732314d657461646174613a2055524920717565727920666f72206e6f60448201526e3732bc34b9ba32b73a103a37b5b2b760891b6064820152608401610898565b6000611349611aef565b905060008151116113695760405180602001604052806000815250611394565b8061137384611afe565b60405160200161138492919061231b565b6040516020818303038152906040525b9392505050565b336000908152600f602052604090205460ff166113ca5760405162461bcd60e51b81526004016108989061239a565b600d80546001600160a01b0319166001600160a01b0392909216919091179055565b336000908152600f602052604090205460ff1661141b5760405162461bcd60e51b81526004016108989061239a565b6011805460ff19811660ff90911615179055565b336000908152600f602052604090205460ff1661145e5760405162461bcd60e51b81526004016108989061239a565b600555565b600d5460405163c455279160e01b81526001600160a01b03848116600483015260009281169190841690829063c45527919060240160206040518083038186803b1580156114b057600080fd5b505afa1580156114c4573d6000803e3d6000fd5b505050506040513d601f19601f820116820180604052508101906114e8919061228d565b6001600160a01b0316148061151557506001600160a01b03831660009081526010602052604090205460ff165b15611524576001915050610798565b6001600160a01b0380851660009081526004602090815260408083209387168352929052205460ff165b949350505050565b336000908152600f602052604090205460ff166115855760405162461bcd60e51b81526004016108989061239a565b600c5481106115ca5760405162461bcd60e51b8152602060048201526011602482015270105b5bdd5b9d081a5cc81a5b9d985b1a59607a1b6044820152606401610898565b60025460015b8281116115fc576115ea336115e583856124ca565b611c18565b806115f481612593565b9150506115d0565b5081600c600082825461160f9190612515565b9182905550600c55505050565b60025460009082108015610798575060006001600160a01b03166002838154811061165757634e487b7160e01b600052603260045260246000fd5b6000918252602090912001546001600160a01b0316141592915050565b600081815260036020526040902080546001600160a01b0319166001600160a01b03841690811790915581906116a982610ea7565b6001600160a01b03167f8c5be1e5ebec7d5bd14f71427d1e84f3dd0314c0f7b2291e5b200ac8c7c3b92560405160405180910390a45050565b60006116ed8261161c565b61174e5760405162461bcd60e51b815260206004820152602c60248201527f4552433732313a206f70657261746f7220717565727920666f72206e6f6e657860448201526b34b9ba32b73a103a37b5b2b760a11b6064820152608401610898565b600061175983610ea7565b9050806001600160a01b0316846001600160a01b031614806117945750836001600160a01b031661178984610830565b6001600160a01b0316145b8061154e575061154e8185611463565b826001600160a01b03166117b782610ea7565b6001600160a01b03161461181f5760405162461bcd60e51b815260206004820152602960248201527f4552433732313a207472616e73666572206f6620746f6b656e2074686174206960448201526839903737ba1037bbb760b91b6064820152608401610898565b6001600160a01b0382166118815760405162461bcd60e51b8152602060048201526024808201527f4552433732313a207472616e7366657220746f20746865207a65726f206164646044820152637265737360e01b6064820152608401610898565b61188c600082611674565b81600282815481106118ae57634e487b7160e01b600052603260045260246000fd5b6000918252602082200180546001600160a01b0319166001600160a01b03938416179055604051839285811692908716917fddf252ad1be2c89b69c2b068fc378daa952ba7f163c4a11628f55a4df523b3ef9190a4505050565b6000826119158584611c32565b14949350505050565b32331461196d5760405162461bcd60e51b815260206004820152601f60248201527f43616c6c6572206d757374206265206f726967696e616c2061646472657373006044820152606401610898565b60115460ff1615156001146119b55760405162461bcd60e51b815260206004820152600e60248201526d14d85b19481a5cc81c185d5cd95960921b6044820152606401610898565b600a5481106119f75760405162461bcd60e51b815260206004820152600e60248201526d125b9d985b1a5908185b5bdd5b9d60921b6044820152606401610898565b6002546008548110611a365760405162461bcd60e51b815260206004820152600860248201526714dbdb19081bdd5d60c21b6044820152606401610898565b81600954611a4491906124f6565b3414611a925760405162461bcd60e51b815260206004820152601960248201527f496e636f727265637420616d6f756e74206f66206574686572000000000000006044820152606401610898565b60015b828111610a0257611aaa336115e583856124ca565b80611ab481612593565b915050611a95565b611ac78484846117a4565b611ad384848484611cec565b610c0e5760405162461bcd60e51b815260040161089890612427565b6060600680546107ad90612558565b606081611b225750506040805180820190915260018152600360fc1b602082015290565b8160005b8115611b4c5780611b3681612593565b9150611b459050600a836124e2565b9150611b26565b60008167ffffffffffffffff811115611b7557634e487b7160e01b600052604160045260246000fd5b6040519080825280601f01601f191660200182016040528015611b9f576020820181803683370190505b5090505b841561154e57611bb4600183612515565b9150611bc1600a866125ae565b611bcc9060306124ca565b60f81b818381518110611bef57634e487b7160e01b600052603260045260246000fd5b60200101906001600160f81b031916908160001a905350611c11600a866124e2565b9450611ba3565b610e55828260405180602001604052806000815250611df9565b600081815b8451811015611ce4576000858281518110611c6257634e487b7160e01b600052603260045260246000fd5b60200260200101519050808311611ca4576040805160208101859052908101829052606001604051602081830303815290604052805190602001209250611cd1565b60408051602081018390529081018490526060016040516020818303038152906040528051906020012092505b5080611cdc81612593565b915050611c37565b509392505050565b60006001600160a01b0384163b15611dee57604051630a85bd0160e11b81526001600160a01b0385169063150b7a0290611d3090339089908890889060040161234a565b602060405180830381600087803b158015611d4a57600080fd5b505af1925050508015611d7a575060408051601f3d908101601f19168201909252611d7791810190612271565b60015b611dd4573d808015611da8576040519150601f19603f3d011682016040523d82523d6000602084013e611dad565b606091505b508051611dcc5760405162461bcd60e51b815260040161089890612427565b805181602001fd5b6001600160e01b031916630a85bd0160e11b14905061154e565b506001949350505050565b611e038383611e2c565b611e106000848484611cec565b610a025760405162461bcd60e51b815260040161089890612427565b6001600160a01b038216611e825760405162461bcd60e51b815260206004820181905260248201527f4552433732313a206d696e7420746f20746865207a65726f20616464726573736044820152606401610898565b611e8b8161161c565b15611ed85760405162461bcd60e51b815260206004820152601c60248201527f4552433732313a20746f6b656e20616c7265616479206d696e746564000000006044820152606401610898565b6002805460018101825560009182527f405787fa12a823e0f2b7631cc41b3ba8828b3321ca811111fa75cd3aa3bb5ace0180546001600160a01b0319166001600160a01b0385169081179091556040518392907fddf252ad1be2c89b69c2b068fc378daa952ba7f163c4a11628f55a4df523b3ef908290a45050565b828054611f6090612558565b90600052602060002090601f016020900481019282611f825760008555611fc8565b82601f10611f9b57805160ff1916838001178555611fc8565b82800160010185558215611fc8579182015b82811115611fc8578251825591602001919060010190611fad565b50610e0f9291505b80821115610e0f5760008155600101611fd0565b600067ffffffffffffffff80841115611fff57611fff6125ee565b604051601f8501601f19908116603f01168101908282118183101715612027576120276125ee565b8160405280935085815286868601111561204057600080fd5b858560208301376000602087830101525050509392505050565b60006020828403121561206b578081fd5b813561139481612604565b60008060408385031215612088578081fd5b823561209381612604565b915060208301356120a381612604565b809150509250929050565b6000806000606084860312156120c2578081fd5b83356120cd81612604565b925060208401356120dd81612604565b929592945050506040919091013590565b60008060008060808587031215612103578081fd5b843561210e81612604565b9350602085013561211e81612604565b925060408501359150606085013567ffffffffffffffff811115612140578182fd5b8501601f81018713612150578182fd5b61215f87823560208401611fe4565b91505092959194509250565b6000806040838503121561217d578182fd5b823561218881612604565b9150602083013580151581146120a3578182fd5b600080604083850312156121ae578182fd5b82356121b981612604565b946020939093013593505050565b6000806000604084860312156121db578283fd5b833567ffffffffffffffff808211156121f2578485fd5b818601915086601f830112612205578485fd5b813581811115612213578586fd5b8760208260051b8501011115612227578586fd5b6020928301989097509590910135949350505050565b60006020828403121561224e578081fd5b5035919050565b600060208284031215612266578081fd5b813561139481612619565b600060208284031215612282578081fd5b815161139481612619565b60006020828403121561229e578081fd5b815161139481612604565b6000602082840312156122ba578081fd5b813567ffffffffffffffff8111156122d0578182fd5b8201601f810184136122e0578182fd5b61154e84823560208401611fe4565b6000815180845261230781602086016020860161252c565b601f01601f19169290920160200192915050565b6000835161232d81846020880161252c565b83519083019061234181836020880161252c565b01949350505050565b6001600160a01b038581168252841660208201526040810183905260806060820181905260009061237d908301846122ef565b9695505050505050565b60208152600061139460208301846122ef565b60208082526022908201527f4f6e6c792061646d696e732063616e2063616c6c20746869732066756e63746960408201526137b760f11b606082015260800190565b6020808252602b908201527f455243373231456e756d657261626c653a206f776e657220696e646578206f7560408201526a74206f6620626f756e647360a81b606082015260800190565b60208082526032908201527f4552433732313a207472616e7366657220746f206e6f6e20455243373231526560408201527131b2b4bb32b91034b6b83632b6b2b73a32b960711b606082015260800190565b60208082526031908201527f4552433732313a207472616e736665722063616c6c6572206973206e6f74206f6040820152701ddb995c881b9bdc88185c1c1c9bdd9959607a1b606082015260800190565b600082198211156124dd576124dd6125c2565b500190565b6000826124f1576124f16125d8565b500490565b6000816000190483118215151615612510576125106125c2565b500290565b600082821015612527576125276125c2565b500390565b60005b8381101561254757818101518382015260200161252f565b83811115610c0e5750506000910152565b600181811c9082168061256c57607f821691505b6020821081141561258d57634e487b7160e01b600052602260045260246000fd5b50919050565b60006000198214156125a7576125a76125c2565b5060010190565b6000826125bd576125bd6125d8565b500690565b634e487b7160e01b600052601160045260246000fd5b634e487b7160e01b600052601260045260246000fd5b634e487b7160e01b600052604160045260246000fd5b6001600160a01b0381168114610c6c57600080fd5b6001600160e01b031981168114610c6c57600080fdfea26469706673582212208b5bbc41ec7cd4a8c21aa3cc9089997d7697275e5cb94eb0fcc008490d42f30e64736f6c63430008040033",
  "linkReferences": {},
  "deployedLinkReferences": {}
}