{
  "_format": "hh-sol-artifact-1",
  "contractName": "CryptoHunkz",
  "sourceName": "contracts/CryptoHunkz.sol",
  "abi": [
    {
      "inputs": [
        {
          "internalType": "string",
          "name": "_initURI",
          "type": "string"
        },
        {
          "internalType": "address",
          "name": "_signingAddress",
          "type": "address"
        },
        {
          "internalType": "address",
          "name": "_proxy",
          "type": "address"
        }
      ],
      "stateMutability": "nonpayable",
      "type": "constructor"
    },
    {
      "anonymous": false,
      "inputs": [
        {
          "indexed": true,
          "internalType": "address",
          "name": "owner",
          "type": "address"
        },
        {
          "indexed": true,
          "internalType": "address",
          "name": "approved",
          "type": "address"
        },
        {
          "indexed": true,
          "internalType": "uint256",
          "name": "tokenId",
          "type": "uint256"
        }
      ],
      "name": "Approval",
      "type": "event"
    },
    {
      "anonymous": false,
      "inputs": [
        {
          "indexed": true,
          "internalType": "address",
          "name": "owner",
          "type": "address"
        },
        {
          "indexed": true,
          "internalType": "address",
          "name": "operator",
          "type": "address"
        },
        {
          "indexed": false,
          "internalType": "bool",
          "name": "approved",
          "type": "bool"
        }
      ],
      "name": "ApprovalForAll",
      "type": "event"
    },
    {
      "anonymous": false,
      "inputs": [
        {
          "indexed": true,
          "internalType": "address",
          "name": "from",
          "type": "address"
        },
        {
          "indexed": true,
          "internalType": "address",
          "name": "to",
          "type": "address"
        },
        {
          "indexed": true,
          "internalType": "uint256",
          "name": "tokenId",
          "type": "uint256"
        }
      ],
      "name": "Transfer",
      "type": "event"
    },
    {
      "inputs": [],
      "name": "MAX_SUPPLY",
      "outputs": [
        {
          "internalType": "uint256",
          "name": "",
          "type": "uint256"
        }
      ],
      "stateMutability": "view",
      "type": "function"
    },
    {
      "inputs": [],
      "name": "PUBLIC_SUPPLY",
      "outputs": [
        {
          "internalType": "uint256",
          "name": "",
          "type": "uint256"
        }
      ],
      "stateMutability": "view",
      "type": "function"
    },
    {
      "inputs": [],
      "name": "RESERVED",
      "outputs": [
        {
          "internalType": "uint256",
          "name": "",
          "type": "uint256"
        }
      ],
      "stateMutability": "view",
      "type": "function"
    },
    {
      "inputs": [
        {
          "internalType": "address",
          "name": "to",
          "type": "address"
        },
        {
          "internalType": "uint256",
          "name": "tokenId",
          "type": "uint256"
        }
      ],
      "name": "approve",
      "outputs": [],
      "stateMutability": "nonpayable",
      "type": "function"
    },
    {
      "inputs": [
        {
          "internalType": "address",
          "name": "owner",
          "type": "address"
        }
      ],
      "name": "balanceOf",
      "outputs": [
        {
          "internalType": "uint256",
          "name": "",
          "type": "uint256"
        }
      ],
      "stateMutability": "view",
      "type": "function"
    },
    {
      "inputs": [],
      "name": "baseURI",
      "outputs": [
        {
          "internalType": "string",
          "name": "",
          "type": "string"
        }
      ],
      "stateMutability": "view",
      "type": "function"
    },
    {
      "inputs": [
        {
          "internalType": "uint256",
          "name": "tokenId",
          "type": "uint256"
        }
      ],
      "name": "getApproved",
      "outputs": [
        {
          "internalType": "address",
          "name": "",
          "type": "address"
        }
      ],
      "stateMutability": "view",
      "type": "function"
    },
    {
      "inputs": [],
      "name": "hiddenURI",
      "outputs": [
        {
          "internalType": "string",
          "name": "",
          "type": "string"
        }
      ],
      "stateMutability": "view",
      "type": "function"
    },
    {
      "inputs": [
        {
          "internalType": "address",
          "name": "_owner",
          "type": "address"
        },
        {
          "internalType": "address",
          "name": "_operator",
          "type": "address"
        }
      ],
      "name": "isApprovedForAll",
      "outputs": [
        {
          "internalType": "bool",
          "name": "",
          "type": "bool"
        }
      ],
      "stateMutability": "view",
      "type": "function"
    },
    {
      "inputs": [],
      "name": "maxMintAmount",
      "outputs": [
        {
          "internalType": "uint256",
          "name": "",
          "type": "uint256"
        }
      ],
      "stateMutability": "view",
      "type": "function"
    },
    {
      "inputs": [],
      "name": "maxWLAmount",
      "outputs": [
        {
          "internalType": "uint256",
          "name": "",
          "type": "uint256"
        }
      ],
      "stateMutability": "view",
      "type": "function"
    },
    {
      "inputs": [
        {
          "internalType": "uint256",
          "name": "_amount",
          "type": "uint256"
        },
        {
          "internalType": "address",
          "name": "_to",
          "type": "address"
        }
      ],
      "name": "mintReserve",
      "outputs": [],
      "stateMutability": "nonpayable",
      "type": "function"
    },
    {
      "inputs": [],
      "name": "name",
      "outputs": [
        {
          "internalType": "string",
          "name": "",
          "type": "string"
        }
      ],
      "stateMutability": "view",
      "type": "function"
    },
    {
      "inputs": [
        {
          "internalType": "uint256",
          "name": "tokenId",
          "type": "uint256"
        }
      ],
      "name": "ownerOf",
      "outputs": [
        {
          "internalType": "address",
          "name": "",
          "type": "address"
        }
      ],
      "stateMutability": "view",
      "type": "function"
    },
    {
      "inputs": [],
      "name": "price",
      "outputs": [
        {
          "internalType": "uint256",
          "name": "",
          "type": "uint256"
        }
      ],
      "stateMutability": "view",
      "type": "function"
    },
    {
      "inputs": [],
      "name": "proxyRegistryAddress",
      "outputs": [
        {
          "internalType": "address",
          "name": "",
          "type": "address"
        }
      ],
      "stateMutability": "view",
      "type": "function"
    },
    {
      "inputs": [
        {
          "internalType": "uint256",
          "name": "_quantity",
          "type": "uint256"
        }
      ],
      "name": "publicMint",
      "outputs": [],
      "stateMutability": "payable",
      "type": "function"
    },
    {
      "inputs": [],
      "name": "reveal",
      "outputs": [],
      "stateMutability": "nonpayable",
      "type": "function"
    },
    {
      "inputs": [],
      "name": "revealed",
      "outputs": [
        {
          "internalType": "bool",
          "name": "",
          "type": "bool"
        }
      ],
      "stateMutability": "view",
      "type": "function"
    },
    {
      "inputs": [
        {
          "internalType": "address",
          "name": "from",
          "type": "address"
        },
        {
          "internalType": "address",
          "name": "to",
          "type": "address"
        },
        {
          "internalType": "uint256",
          "name": "tokenId",
          "type": "uint256"
        }
      ],
      "name": "safeTransferFrom",
      "outputs": [],
      "stateMutability": "nonpayable",
      "type": "function"
    },
    {
      "inputs": [
        {
          "internalType": "address",
          "name": "from",
          "type": "address"
        },
        {
          "internalType": "address",
          "name": "to",
          "type": "address"
        },
        {
          "internalType": "uint256",
          "name": "tokenId",
          "type": "uint256"
        },
        {
          "internalType": "bytes",
          "name": "_data",
          "type": "bytes"
        }
      ],
      "name": "safeTransferFrom",
      "outputs": [],
      "stateMutability": "nonpayable",
      "type": "function"
    },
    {
      "inputs": [],
      "name": "saleLive",
      "outputs": [
        {
          "internalType": "bool",
          "name": "",
          "type": "bool"
        }
      ],
      "stateMutability": "view",
      "type": "function"
    },
    {
      "inputs": [
        {
          "internalType": "address",
          "name": "_newAdmin",
          "type": "address"
        }
      ],
      "name": "setAdmin",
      "outputs": [],
      "stateMutability": "nonpayable",
      "type": "function"
    },
    {
      "inputs": [
        {
          "internalType": "address",
          "name": "operator",
          "type": "address"
        },
        {
          "internalType": "bool",
          "name": "approved",
          "type": "bool"
        }
      ],
      "name": "setApprovalForAll",
      "outputs": [],
      "stateMutability": "nonpayable",
      "type": "function"
    },
    {
      "inputs": [
        {
          "internalType": "string",
          "name": "_newURI",
          "type": "string"
        }
      ],
      "name": "setBaseURI",
      "outputs": [],
      "stateMutability": "nonpayable",
      "type": "function"
    },
    {
      "inputs": [
        {
          "internalType": "uint256",
          "name": "_newmaxMintAmount",
          "type": "uint256"
        }
      ],
      "name": "setMaxMintAmount",
      "outputs": [],
      "stateMutability": "nonpayable",
      "type": "function"
    },
    {
      "inputs": [
        {
          "internalType": "uint256",
          "name": "_newPrice",
          "type": "uint256"
        }
      ],
      "name": "setPrice",
      "outputs": [],
      "stateMutability": "nonpayable",
      "type": "function"
    },
    {
      "inputs": [
        {
          "internalType": "address",
          "name": "_proxyRegistryAddress",
          "type": "address"
        }
      ],
      "name": "setProxyRegistryAddress",
      "outputs": [],
      "stateMutability": "nonpayable",
      "type": "function"
    },
    {
      "inputs": [
        {
          "internalType": "address",
          "name": "_signerAddress",
          "type": "address"
        }
      ],
      "name": "setSignerAddress",
      "outputs": [],
      "stateMutability": "nonpayable",
      "type": "function"
    },
    {
      "inputs": [],
      "name": "suffix",
      "outputs": [
        {
          "internalType": "string",
          "name": "",
          "type": "string"
        }
      ],
      "stateMutability": "view",
      "type": "function"
    },
    {
      "inputs": [
        {
          "internalType": "bytes4",
          "name": "interfaceId",
          "type": "bytes4"
        }
      ],
      "name": "supportsInterface",
      "outputs": [
        {
          "internalType": "bool",
          "name": "",
          "type": "bool"
        }
      ],
      "stateMutability": "view",
      "type": "function"
    },
    {
      "inputs": [],
      "name": "symbol",
      "outputs": [
        {
          "internalType": "string",
          "name": "",
          "type": "string"
        }
      ],
      "stateMutability": "view",
      "type": "function"
    },
    {
      "inputs": [
        {
          "internalType": "address",
          "name": "_proxyAddress",
          "type": "address"
        }
      ],
      "name": "toggleProxyState",
      "outputs": [],
      "stateMutability": "nonpayable",
      "type": "function"
    },
    {
      "inputs": [],
      "name": "toggleSaleLive",
      "outputs": [],
      "stateMutability": "nonpayable",
      "type": "function"
    },
    {
      "inputs": [],
      "name": "toggleWhiteList",
      "outputs": [],
      "stateMutability": "nonpayable",
      "type": "function"
    },
    {
      "inputs": [
        {
          "internalType": "uint256",
          "name": "tokenId",
          "type": "uint256"
        }
      ],
      "name": "tokenURI",
      "outputs": [
        {
          "internalType": "string",
          "name": "",
          "type": "string"
        }
      ],
      "stateMutability": "view",
      "type": "function"
    },
    {
      "inputs": [],
      "name": "totalSupplyMinted",
      "outputs": [
        {
          "internalType": "uint256",
          "name": "",
          "type": "uint256"
        }
      ],
      "stateMutability": "view",
      "type": "function"
    },
    {
      "inputs": [
        {
          "internalType": "address",
          "name": "from",
          "type": "address"
        },
        {
          "internalType": "address",
          "name": "to",
          "type": "address"
        },
        {
          "internalType": "uint256",
          "name": "tokenId",
          "type": "uint256"
        }
      ],
      "name": "transferFrom",
      "outputs": [],
      "stateMutability": "nonpayable",
      "type": "function"
    },
    {
      "inputs": [],
      "name": "whiteListActive",
      "outputs": [
        {
          "internalType": "bool",
          "name": "",
          "type": "bool"
        }
      ],
      "stateMutability": "view",
      "type": "function"
    },
    {
      "inputs": [
        {
          "internalType": "address",
          "name": "",
          "type": "address"
        }
      ],
      "name": "whitelistClaimed",
      "outputs": [
        {
          "internalType": "bool",
          "name": "",
          "type": "bool"
        }
      ],
      "stateMutability": "view",
      "type": "function"
    },
    {
      "inputs": [
        {
          "internalType": "bytes",
          "name": "_signature",
          "type": "bytes"
        },
        {
          "internalType": "uint256",
          "name": "_quantity",
          "type": "uint256"
        }
      ],
      "name": "whitelistMint",
      "outputs": [],
      "stateMutability": "payable",
      "type": "function"
    },
    {
      "inputs": [],
      "name": "withdraw",
      "outputs": [],
      "stateMutability": "nonpayable",
      "type": "function"
    }
  ],
  "bytecode": "0x60c06040526005608081905264173539b7b760d91b60a090815262000028916008919062000152565b50611e636009556001600a55611e4f600b556701118f178fb48000600c556006600d556004600e556015600f553480156200006257600080fd5b506040516200312938038062003129833981016040819052620000859162000215565b604080518082018252600b81526a21b93cb83a37a43ab735bd60a91b602080830191825283518085019094526005845264242aa725ad60d91b908401528151919291620000d59160009162000152565b508051620000eb90600190602084019062000152565b5050336000908152601360209081526040909120805460ff1916600117905584516200011e925060079186019062000152565b50601180546001600160a01b039384166001600160a01b031991821617909155601080549290931691161790555062000365565b828054620001609062000312565b90600052602060002090601f016020900481019282620001845760008555620001cf565b82601f106200019f57805160ff1916838001178555620001cf565b82800160010185558215620001cf579182015b82811115620001cf578251825591602001919060010190620001b2565b50620001dd929150620001e1565b5090565b5b80821115620001dd5760008155600101620001e2565b80516001600160a01b03811681146200021057600080fd5b919050565b6000806000606084860312156200022a578283fd5b83516001600160401b038082111562000241578485fd5b818601915086601f83011262000255578485fd5b8151818111156200026a576200026a6200034f565b604051601f8201601f19908116603f011681019083821181831017156200029557620002956200034f565b81604052828152602093508984848701011115620002b1578788fd5b8791505b82821015620002d45784820184015181830185015290830190620002b5565b82821115620002e557878484830101525b9650620002f7915050868201620001f8565b935050506200030960408501620001f8565b90509250925092565b600181811c908216806200032757607f821691505b602082108114156200034957634e487b7160e01b600052602260045260246000fd5b50919050565b634e487b7160e01b600052604160045260246000fd5b612db480620003756000396000f3fe6080604052600436106102d15760003560e01c806370a0823111610179578063aa592f25116100d6578063d26ea6c01161008a578063e081b78111610064578063e081b78114610756578063e985e9c514610770578063f7073c3a1461079057600080fd5b8063d26ea6c0146106f1578063d9915d9b14610711578063db4bec441461072657600080fd5b8063bbd2dc11116100bb578063bbd2dc1114610691578063c87b56dd146106b1578063cd7c0326146106d157600080fd5b8063aa592f251461065b578063b88d4fde1461067157600080fd5b8063933e95b21161012d578063a035b1fe11610112578063a035b1fe14610610578063a22cb46514610626578063a475b5dd1461064657600080fd5b8063933e95b2146105e657806395d89b41146105fb57600080fd5b8063850dd0911161015e578063850dd091146105915780638cc54e7f146105b157806391b7f5ed146105c657600080fd5b806370a082311461055b5780638342083a1461057b57600080fd5b80632db115441161023257806351830227116101e65780636352211e116101c05780636352211e146105065780636c0360eb14610526578063704b6c021461053b57600080fd5b806351830227146104b257806355f804b3146104d157806363430b38146104f157600080fd5b806332cb6b0c1161021757806332cb6b0c146104675780633ccfd60b1461047d57806342842e0e1461049257600080fd5b80632db11544146104345780632e4355cd1461044757600080fd5b806308e3f868116102895780631a21ace21161026e5780631a21ace2146103da578063239c70ae146103fe57806323b872dd1461041457600080fd5b806308e3f868146103a7578063095ea7b3146103ba57600080fd5b806306fdde03116102ba57806306fdde031461032d578063081812fc1461034f578063088a4ed01461038757600080fd5b806301ffc9a7146102d6578063046dc1661461030b575b600080fd5b3480156102e257600080fd5b506102f66102f1366004612952565b6107a5565b60405190151581526020015b60405180910390f35b34801561031757600080fd5b5061032b6103263660046127de565b6107b0565b005b34801561033957600080fd5b5061034261082f565b6040516103029190612bce565b34801561035b57600080fd5b5061036f61036a366004612a5f565b6108c1565b6040516001600160a01b039091168152602001610302565b34801561039357600080fd5b5061032b6103a2366004612a5f565b610956565b61032b6103b536600461298a565b6109b3565b3480156103c657600080fd5b5061032b6103d5366004612927565b610d02565b3480156103e657600080fd5b506103f0600e5481565b604051908152602001610302565b34801561040a57600080fd5b506103f0600d5481565b34801561042057600080fd5b5061032b61042f366004612839565b610e34565b61032b610442366004612a5f565b610ebb565b34801561045357600080fd5b506015546102f69062010000900460ff1681565b34801561047357600080fd5b506103f060095481565b34801561048957600080fd5b5061032b6110f1565b34801561049e57600080fd5b5061032b6104ad366004612839565b611178565b3480156104be57600080fd5b506015546102f690610100900460ff1681565b3480156104dd57600080fd5b5061032b6104ec366004612a19565b611193565b3480156104fd57600080fd5b5061032b611202565b34801561051257600080fd5b5061036f610521366004612a5f565b611279565b34801561053257600080fd5b50610342611304565b34801561054757600080fd5b5061032b6105563660046127de565b611392565b34801561056757600080fd5b506103f06105763660046127de565b61140e565b34801561058757600080fd5b506103f0600b5481565b34801561059d57600080fd5b5061032b6105ac366004612a77565b6114a8565b3480156105bd57600080fd5b506103426115a4565b3480156105d257600080fd5b5061032b6105e1366004612a5f565b6115b1565b3480156105f257600080fd5b506103f061160e565b34801561060757600080fd5b50610342611624565b34801561061c57600080fd5b506103f0600c5481565b34801561063257600080fd5b5061032b6106413660046128f6565b611633565b34801561065257600080fd5b5061032b61163e565b34801561066757600080fd5b506103f0600f5481565b34801561067d57600080fd5b5061032b61068c366004612879565b6116a7565b34801561069d57600080fd5b5061032b6106ac3660046127de565b611735565b3480156106bd57600080fd5b506103426106cc366004612a5f565b6117b6565b3480156106dd57600080fd5b5060105461036f906001600160a01b031681565b3480156106fd57600080fd5b5061032b61070c3660046127de565b611943565b34801561071d57600080fd5b5061032b6119bd565b34801561073257600080fd5b506102f66107413660046127de565b60126020526000908152604090205460ff1681565b34801561076257600080fd5b506015546102f69060ff1681565b34801561077c57600080fd5b506102f661078b366004612801565b611a29565b34801561079c57600080fd5b50610342611b35565b600060015b92915050565b3360009081526013602052604090205460ff1661080d5760405162461bcd60e51b81526020600482015260226024820152600080516020612d5f83398151915260448201526137b760f11b60648201526084015b60405180910390fd5b601180546001600160a01b0319166001600160a01b0392909216919091179055565b60606000805461083e90612c6f565b80601f016020809104026020016040519081016040528092919081815260200182805461086a90612c6f565b80156108b75780601f1061088c576101008083540402835291602001916108b7565b820191906000526020600020905b81548152906001019060200180831161089a57829003601f168201915b5050505050905090565b6000818152600260205260408120546001600160a01b031661093a5760405162461bcd60e51b815260206004820152602c60248201527f4552433732313a20617070726f76656420717565727920666f72206e6f6e657860448201526b34b9ba32b73a103a37b5b2b760a11b6064820152608401610804565b506000908152600460205260409020546001600160a01b031690565b3360009081526013602052604090205460ff166109ae5760405162461bcd60e51b81526020600482015260226024820152600080516020612d5f83398151915260448201526137b760f11b6064820152608401610804565b600d55565b600a54323314610a055760405162461bcd60e51b815260206004820152601f60248201527f43616c6c6572206d757374206265206f726967696e616c2061646472657373006044820152606401610804565b60155462010000900460ff16610a5d5760405162461bcd60e51b815260206004820152601760248201527f57686974656c697374206973206e6f74206163746976650000000000000000006044820152606401610804565b60155460ff161515600114610ab45760405162461bcd60e51b815260206004820152600e60248201527f53616c65206973207061757365640000000000000000000000000000000000006044820152606401610804565b600e548210610b055760405162461bcd60e51b815260206004820152600f60248201527f4d617820616d6f756e74206973203300000000000000000000000000000000006044820152606401610804565b81600c54610b139190612c0d565b3414610b615760405162461bcd60e51b815260206004820152601960248201527f496e636f727265637420616d6f756e74206f66206574686572000000000000006044820152606401610804565b3360009081526012602052604090205460ff1615610bc15760405162461bcd60e51b815260206004820152600f60248201527f416c726561647920636c61696d656400000000000000000000000000000000006044820152606401610804565b610c5784848080601f016020809104026020016040519081016040528093929190818152602001838380828437600092019190915250506040517f19457468657265756d205369676e6564204d6573736167653a0a333200000000602082015233603c820152605c019150610c339050565b60405160208183030381529060405280519060200120611b4290919063ffffffff16565b6011546001600160a01b03908116911614610cb45760405162461bcd60e51b815260206004820152600b60248201527f4e6f74206f6e206c6973740000000000000000000000000000000000000000006044820152606401610804565b336000908152601260205260408120805460ff191660011790555b82811015610cf957610ce13383611b66565b60019091019080610cf181612caa565b915050610ccf565b50600a55505050565b6000610d0d82611279565b9050806001600160a01b0316836001600160a01b03161415610d975760405162461bcd60e51b815260206004820152602160248201527f4552433732313a20617070726f76616c20746f2063757272656e74206f776e6560448201527f72000000000000000000000000000000000000000000000000000000000000006064820152608401610804565b336001600160a01b0382161480610db35750610db38133611a29565b610e255760405162461bcd60e51b815260206004820152603860248201527f4552433732313a20617070726f76652063616c6c6572206973206e6f74206f7760448201527f6e6572206e6f7220617070726f76656420666f7220616c6c00000000000000006064820152608401610804565b610e2f8383611bed565b505050565b610e3e3382611c5b565b610eb05760405162461bcd60e51b815260206004820152603160248201527f4552433732313a207472616e736665722063616c6c6572206973206e6f74206f60448201527f776e6572206e6f7220617070726f7665640000000000000000000000000000006064820152608401610804565b610e2f838383611d31565b600a5460155462010000900460ff1615610f175760405162461bcd60e51b815260206004820152601360248201527f57686974656c69737420697320616374697665000000000000000000000000006044820152606401610804565b333214610f665760405162461bcd60e51b815260206004820152601f60248201527f43616c6c6572206d757374206265206f726967696e616c2061646472657373006044820152606401610804565b60155460ff161515600114610fbd5760405162461bcd60e51b815260206004820152600e60248201527f53616c65206973207061757365640000000000000000000000000000000000006044820152606401610804565b600d54821061100e5760405162461bcd60e51b815260206004820152600e60248201527f496e76616c696420616d6f756e740000000000000000000000000000000000006044820152606401610804565b600b54600a54106110615760405162461bcd60e51b815260206004820152600860248201527f536f6c64206f75740000000000000000000000000000000000000000000000006044820152606401610804565b81600c5461106f9190612c0d565b34146110bd5760405162461bcd60e51b815260206004820152601960248201527f496e636f727265637420616d6f756e74206f66206574686572000000000000006044820152606401610804565b60005b828110156110ea576110d23383611b66565b600190910190806110e281612caa565b9150506110c0565b50600a5550565b3360009081526013602052604090205460ff166111495760405162461bcd60e51b81526020600482015260226024820152600080516020612d5f83398151915260448201526137b760f11b6064820152608401610804565b60405133904780156108fc02916000818181858888f19350505050158015611175573d6000803e3d6000fd5b50565b610e2f838383604051806020016040528060008152506116a7565b3360009081526013602052604090205460ff166111eb5760405162461bcd60e51b81526020600482015260226024820152600080516020612d5f83398151915260448201526137b760f11b6064820152608401610804565b80516111fe9060069060208401906126cf565b5050565b3360009081526013602052604090205460ff1661125a5760405162461bcd60e51b81526020600482015260226024820152600080516020612d5f83398151915260448201526137b760f11b6064820152608401610804565b6015805462ff0000198116620100009182900460ff1615909102179055565b6000818152600260205260408120546001600160a01b0316806107aa5760405162461bcd60e51b815260206004820152602960248201527f4552433732313a206f776e657220717565727920666f72206e6f6e657869737460448201527f656e7420746f6b656e00000000000000000000000000000000000000000000006064820152608401610804565b6006805461131190612c6f565b80601f016020809104026020016040519081016040528092919081815260200182805461133d90612c6f565b801561138a5780601f1061135f5761010080835404028352916020019161138a565b820191906000526020600020905b81548152906001019060200180831161136d57829003601f168201915b505050505081565b3360009081526013602052604090205460ff166113ea5760405162461bcd60e51b81526020600482015260226024820152600080516020612d5f83398151915260448201526137b760f11b6064820152608401610804565b6001600160a01b03166000908152601360205260409020805460ff19166001179055565b60006001600160a01b03821661148c5760405162461bcd60e51b815260206004820152602a60248201527f4552433732313a2062616c616e636520717565727920666f7220746865207a6560448201527f726f2061646472657373000000000000000000000000000000000000000000006064820152608401610804565b506001600160a01b031660009081526003602052604090205490565b3360009081526013602052604090205460ff166115005760405162461bcd60e51b81526020600482015260226024820152600080516020612d5f83398151915260448201526137b760f11b6064820152608401610804565b600f5482106115515760405162461bcd60e51b815260206004820152601160248201527f416d6f756e7420697320696e76616c69640000000000000000000000000000006044820152606401610804565b600a5460005b83811015611581576115698383611b66565b6001909101908061157981612caa565b915050611557565b5082600f60008282546115949190612c2c565b9182905550600f5550600a555050565b6007805461131190612c6f565b3360009081526013602052604090205460ff166116095760405162461bcd60e51b81526020600482015260226024820152600080516020612d5f83398151915260448201526137b760f11b6064820152608401610804565b600c55565b60006001600a5461161f9190612c2c565b905090565b60606001805461083e90612c6f565b6111fe338383611efe565b3360009081526013602052604090205460ff166116965760405162461bcd60e51b81526020600482015260226024820152600080516020612d5f83398151915260448201526137b760f11b6064820152608401610804565b6015805461ff001916610100179055565b6116b13383611c5b565b6117235760405162461bcd60e51b815260206004820152603160248201527f4552433732313a207472616e736665722063616c6c6572206973206e6f74206f60448201527f776e6572206e6f7220617070726f7665640000000000000000000000000000006064820152608401610804565b61172f84848484611fcd565b50505050565b3360009081526013602052604090205460ff1661178d5760405162461bcd60e51b81526020600482015260226024820152600080516020612d5f83398151915260448201526137b760f11b6064820152608401610804565b6001600160a01b03166000908152601460205260409020805460ff19811660ff90911615179055565b6000818152600260205260409020546060906001600160a01b03166118435760405162461bcd60e51b815260206004820152602f60248201527f4552433732314d657461646174613a2055524920717565727920666f72206e6f60448201527f6e6578697374656e7420746f6b656e00000000000000000000000000000000006064820152608401610804565b601554610100900460ff166118e4576007805461185f90612c6f565b80601f016020809104026020016040519081016040528092919081815260200182805461188b90612c6f565b80156118d85780601f106118ad576101008083540402835291602001916118d8565b820191906000526020600020905b8154815290600101906020018083116118bb57829003601f168201915b50505050509050919050565b6000600680546118f390612c6f565b90501161190f57604051806020016040528060008152506107aa565b600661191a83612056565b600860405160200161192e93929190612b5f565b60405160208183030381529060405292915050565b3360009081526013602052604090205460ff1661199b5760405162461bcd60e51b81526020600482015260226024820152600080516020612d5f83398151915260448201526137b760f11b6064820152608401610804565b601080546001600160a01b0319166001600160a01b0392909216919091179055565b3360009081526013602052604090205460ff16611a155760405162461bcd60e51b81526020600482015260226024820152600080516020612d5f83398151915260448201526137b760f11b6064820152608401610804565b6015805460ff19811660ff90911615179055565b6010546040517fc45527910000000000000000000000000000000000000000000000000000000081526001600160a01b03848116600483015260009281169190841690829063c45527919060240160206040518083038186803b158015611a8f57600080fd5b505afa158015611aa3573d6000803e3d6000fd5b505050506040513d601f19601f82011682018060405250810190611ac791906129fd565b6001600160a01b03161480611af457506001600160a01b03831660009081526014602052604090205460ff165b15611b035760019150506107aa565b6001600160a01b0380851660009081526005602090815260408083209387168352929052205460ff165b949350505050565b6008805461131190612c6f565b6000806000611b5185856121a4565b91509150611b5e81612214565b509392505050565b6001600160a01b0382166000908152600360205260408120805460019290611b8f908490612be1565b909155505060008181526002602052604080822080546001600160a01b0319166001600160a01b03861690811790915590518392907fddf252ad1be2c89b69c2b068fc378daa952ba7f163c4a11628f55a4df523b3ef908290a45050565b600081815260046020526040902080546001600160a01b0319166001600160a01b0384169081179091558190611c2282611279565b6001600160a01b03167f8c5be1e5ebec7d5bd14f71427d1e84f3dd0314c0f7b2291e5b200ac8c7c3b92560405160405180910390a45050565b6000818152600260205260408120546001600160a01b0316611cd45760405162461bcd60e51b815260206004820152602c60248201527f4552433732313a206f70657261746f7220717565727920666f72206e6f6e657860448201526b34b9ba32b73a103a37b5b2b760a11b6064820152608401610804565b6000611cdf83611279565b9050806001600160a01b0316846001600160a01b03161480611d065750611d068185611a29565b80611b2d5750836001600160a01b0316611d1f846108c1565b6001600160a01b031614949350505050565b826001600160a01b0316611d4482611279565b6001600160a01b031614611dc05760405162461bcd60e51b815260206004820152602560248201527f4552433732313a207472616e736665722066726f6d20696e636f72726563742060448201527f6f776e65720000000000000000000000000000000000000000000000000000006064820152608401610804565b6001600160a01b038216611e3b5760405162461bcd60e51b8152602060048201526024808201527f4552433732313a207472616e7366657220746f20746865207a65726f2061646460448201527f72657373000000000000000000000000000000000000000000000000000000006064820152608401610804565b611e46600082611bed565b6001600160a01b0383166000908152600360205260408120805460019290611e6f908490612c2c565b90915550506001600160a01b0382166000908152600360205260408120805460019290611e9d908490612be1565b909155505060008181526002602052604080822080546001600160a01b0319166001600160a01b0386811691821790925591518493918716917fddf252ad1be2c89b69c2b068fc378daa952ba7f163c4a11628f55a4df523b3ef91a4505050565b816001600160a01b0316836001600160a01b03161415611f605760405162461bcd60e51b815260206004820152601960248201527f4552433732313a20617070726f766520746f2063616c6c6572000000000000006044820152606401610804565b6001600160a01b03838116600081815260056020908152604080832094871680845294825291829020805460ff191686151590811790915591519182527f17307eab39ab6107e8899845ad3d59bd9653f200f220920489ca2b5937696c31910160405180910390a3505050565b611fd8848484611d31565b611fe484848484612415565b61172f5760405162461bcd60e51b815260206004820152603260248201527f4552433732313a207472616e7366657220746f206e6f6e20455243373231526560448201527f63656976657220696d706c656d656e74657200000000000000000000000000006064820152608401610804565b60608161209657505060408051808201909152600181527f3000000000000000000000000000000000000000000000000000000000000000602082015290565b8160005b81156120c057806120aa81612caa565b91506120b99050600a83612bf9565b915061209a565b60008167ffffffffffffffff8111156120e957634e487b7160e01b600052604160045260246000fd5b6040519080825280601f01601f191660200182016040528015612113576020820181803683370190505b5090505b8415611b2d57612128600183612c2c565b9150612135600a86612cc5565b612140906030612be1565b60f81b81838151811061216357634e487b7160e01b600052603260045260246000fd5b60200101907effffffffffffffffffffffffffffffffffffffffffffffffffffffffffffff1916908160001a90535061219d600a86612bf9565b9450612117565b6000808251604114156121db5760208301516040840151606085015160001a6121cf87828585612590565b9450945050505061220d565b82516040141561220557602083015160408401516121fa86838361267d565b93509350505061220d565b506000905060025b9250929050565b600081600481111561223657634e487b7160e01b600052602160045260246000fd5b141561223f5750565b600181600481111561226157634e487b7160e01b600052602160045260246000fd5b14156122af5760405162461bcd60e51b815260206004820152601860248201527f45434453413a20696e76616c6964207369676e617475726500000000000000006044820152606401610804565b60028160048111156122d157634e487b7160e01b600052602160045260246000fd5b141561231f5760405162461bcd60e51b815260206004820152601f60248201527f45434453413a20696e76616c6964207369676e6174757265206c656e677468006044820152606401610804565b600381600481111561234157634e487b7160e01b600052602160045260246000fd5b141561239a5760405162461bcd60e51b815260206004820152602260248201527f45434453413a20696e76616c6964207369676e6174757265202773272076616c604482015261756560f01b6064820152608401610804565b60048160048111156123bc57634e487b7160e01b600052602160045260246000fd5b14156111755760405162461bcd60e51b815260206004820152602260248201527f45434453413a20696e76616c6964207369676e6174757265202776272076616c604482015261756560f01b6064820152608401610804565b60006001600160a01b0384163b1561258557604051630a85bd0160e11b81526001600160a01b0385169063150b7a0290612459903390899088908890600401612b92565b602060405180830381600087803b15801561247357600080fd5b505af19250505080156124a3575060408051601f3d908101601f191682019092526124a09181019061296e565b60015b612553573d8080156124d1576040519150601f19603f3d011682016040523d82523d6000602084013e6124d6565b606091505b50805161254b5760405162461bcd60e51b815260206004820152603260248201527f4552433732313a207472616e7366657220746f206e6f6e20455243373231526560448201527f63656976657220696d706c656d656e74657200000000000000000000000000006064820152608401610804565b805181602001fd5b7fffffffff0000000000000000000000000000000000000000000000000000000016630a85bd0160e11b149050611b2d565b506001949350505050565b6000807f7fffffffffffffffffffffffffffffff5d576e7357a4501ddfe92f46681b20a08311156125c75750600090506003612674565b8460ff16601b141580156125df57508460ff16601c14155b156125f05750600090506004612674565b6040805160008082526020820180845289905260ff881692820192909252606081018690526080810185905260019060a0016020604051602081039080840390855afa158015612644573d6000803e3d6000fd5b5050604051601f1901519150506001600160a01b03811661266d57600060019250925050612674565b9150600090505b94509492505050565b6000807f7fffffffffffffffffffffffffffffffffffffffffffffffffffffffffffffff8316816126b360ff86901c601b612be1565b90506126c187828885612590565b935093505050935093915050565b8280546126db90612c6f565b90600052602060002090601f0160209004810192826126fd5760008555612743565b82601f1061271657805160ff1916838001178555612743565b82800160010185558215612743579182015b82811115612743578251825591602001919060010190612728565b5061274f929150612753565b5090565b5b8082111561274f5760008155600101612754565b600067ffffffffffffffff8084111561278357612783612d05565b604051601f8501601f19908116603f011681019082821181831017156127ab576127ab612d05565b816040528093508581528686860111156127c457600080fd5b858560208301376000602087830101525050509392505050565b6000602082840312156127ef578081fd5b81356127fa81612d1b565b9392505050565b60008060408385031215612813578081fd5b823561281e81612d1b565b9150602083013561282e81612d1b565b809150509250929050565b60008060006060848603121561284d578081fd5b833561285881612d1b565b9250602084013561286881612d1b565b929592945050506040919091013590565b6000806000806080858703121561288e578081fd5b843561289981612d1b565b935060208501356128a981612d1b565b925060408501359150606085013567ffffffffffffffff8111156128cb578182fd5b8501601f810187136128db578182fd5b6128ea87823560208401612768565b91505092959194509250565b60008060408385031215612908578182fd5b823561291381612d1b565b91506020830135801515811461282e578182fd5b60008060408385031215612939578182fd5b823561294481612d1b565b946020939093013593505050565b600060208284031215612963578081fd5b81356127fa81612d30565b60006020828403121561297f578081fd5b81516127fa81612d30565b60008060006040848603121561299e578283fd5b833567ffffffffffffffff808211156129b5578485fd5b818601915086601f8301126129c8578485fd5b8135818111156129d6578586fd5b8760208285010111156129e7578586fd5b6020928301989097509590910135949350505050565b600060208284031215612a0e578081fd5b81516127fa81612d1b565b600060208284031215612a2a578081fd5b813567ffffffffffffffff811115612a40578182fd5b8201601f81018413612a50578182fd5b611b2d84823560208401612768565b600060208284031215612a70578081fd5b5035919050565b60008060408385031215612a89578182fd5b82359150602083013561282e81612d1b565b60008151808452612ab3816020860160208601612c43565b601f01601f19169290920160200192915050565b8054600090600181811c9080831680612ae157607f831692505b6020808410821415612b0157634e487b7160e01b86526022600452602486fd5b818015612b155760018114612b2657612b53565b60ff19861689528489019650612b53565b60008881526020902060005b86811015612b4b5781548b820152908501908301612b32565b505084890196505b50505050505092915050565b6000612b6b8286612ac7565b8451612b7b818360208901612c43565b612b8781830186612ac7565b979650505050505050565b60006001600160a01b03808716835280861660208401525083604083015260806060830152612bc46080830184612a9b565b9695505050505050565b6020815260006127fa6020830184612a9b565b60008219821115612bf457612bf4612cd9565b500190565b600082612c0857612c08612cef565b500490565b6000816000190483118215151615612c2757612c27612cd9565b500290565b600082821015612c3e57612c3e612cd9565b500390565b60005b83811015612c5e578181015183820152602001612c46565b8381111561172f5750506000910152565b600181811c90821680612c8357607f821691505b60208210811415612ca457634e487b7160e01b600052602260045260246000fd5b50919050565b6000600019821415612cbe57612cbe612cd9565b5060010190565b600082612cd457612cd4612cef565b500690565b634e487b7160e01b600052601160045260246000fd5b634e487b7160e01b600052601260045260246000fd5b634e487b7160e01b600052604160045260246000fd5b6001600160a01b038116811461117557600080fd5b7fffffffff000000000000000000000000000000000000000000000000000000008116811461117557600080fdfe4f6e6c792061646d696e732063616e2063616c6c20746869732066756e637469a2646970667358221220cf4b8e3cb6165dacbbb1b2173b01899d0fffc45e7b4261831e47b306c5410bb664736f6c63430008040033",
  "linkReferences": {},
  "deployedLinkReferences": {}
}