{
  "_format": "hh-sol-artifact-1",
  "contractName": "CryptoHunkz",
  "sourceName": "contracts/CryptoHunkz.sol",
  "abi": [
    {
      "inputs": [
        {
          "internalType": "address",
          "name": "_address",
          "type": "address"
        },
        {
          "internalType": "bytes32",
          "name": "_merkleRoot",
          "type": "bytes32"
        }
      ],
      "stateMutability": "nonpayable",
      "type": "constructor"
    },
    {
      "anonymous": false,
      "inputs": [
        {
          "indexed": true,
          "internalType": "address",
          "name": "owner",
          "type": "address"
        },
        {
          "indexed": true,
          "internalType": "address",
          "name": "approved",
          "type": "address"
        },
        {
          "indexed": true,
          "internalType": "uint256",
          "name": "tokenId",
          "type": "uint256"
        }
      ],
      "name": "Approval",
      "type": "event"
    },
    {
      "anonymous": false,
      "inputs": [
        {
          "indexed": true,
          "internalType": "address",
          "name": "owner",
          "type": "address"
        },
        {
          "indexed": true,
          "internalType": "address",
          "name": "operator",
          "type": "address"
        },
        {
          "indexed": false,
          "internalType": "bool",
          "name": "approved",
          "type": "bool"
        }
      ],
      "name": "ApprovalForAll",
      "type": "event"
    },
    {
      "anonymous": false,
      "inputs": [
        {
          "indexed": true,
          "internalType": "address",
          "name": "previousOwner",
          "type": "address"
        },
        {
          "indexed": true,
          "internalType": "address",
          "name": "newOwner",
          "type": "address"
        }
      ],
      "name": "OwnershipTransferred",
      "type": "event"
    },
    {
      "anonymous": false,
      "inputs": [
        {
          "indexed": true,
          "internalType": "address",
          "name": "from",
          "type": "address"
        },
        {
          "indexed": true,
          "internalType": "address",
          "name": "to",
          "type": "address"
        },
        {
          "indexed": true,
          "internalType": "uint256",
          "name": "tokenId",
          "type": "uint256"
        }
      ],
      "name": "Transfer",
      "type": "event"
    },
    {
      "inputs": [],
      "name": "PROVENANCE",
      "outputs": [
        {
          "internalType": "string",
          "name": "",
          "type": "string"
        }
      ],
      "stateMutability": "view",
      "type": "function"
    },
    {
      "inputs": [],
      "name": "RESERVED",
      "outputs": [
        {
          "internalType": "uint256",
          "name": "",
          "type": "uint256"
        }
      ],
      "stateMutability": "view",
      "type": "function"
    },
    {
      "inputs": [],
      "name": "TOTAL_SUPPLY",
      "outputs": [
        {
          "internalType": "uint256",
          "name": "",
          "type": "uint256"
        }
      ],
      "stateMutability": "view",
      "type": "function"
    },
    {
      "inputs": [
        {
          "internalType": "address",
          "name": "",
          "type": "address"
        }
      ],
      "name": "admins",
      "outputs": [
        {
          "internalType": "bool",
          "name": "",
          "type": "bool"
        }
      ],
      "stateMutability": "view",
      "type": "function"
    },
    {
      "inputs": [
        {
          "internalType": "address",
          "name": "to",
          "type": "address"
        },
        {
          "internalType": "uint256",
          "name": "tokenId",
          "type": "uint256"
        }
      ],
      "name": "approve",
      "outputs": [],
      "stateMutability": "nonpayable",
      "type": "function"
    },
    {
      "inputs": [
        {
          "internalType": "address",
          "name": "owner",
          "type": "address"
        }
      ],
      "name": "balanceOf",
      "outputs": [
        {
          "internalType": "uint256",
          "name": "",
          "type": "uint256"
        }
      ],
      "stateMutability": "view",
      "type": "function"
    },
    {
      "inputs": [
        {
          "internalType": "uint256",
          "name": "tokenId",
          "type": "uint256"
        }
      ],
      "name": "getApproved",
      "outputs": [
        {
          "internalType": "address",
          "name": "",
          "type": "address"
        }
      ],
      "stateMutability": "view",
      "type": "function"
    },
    {
      "inputs": [
        {
          "internalType": "address",
          "name": "owner",
          "type": "address"
        },
        {
          "internalType": "address",
          "name": "operator",
          "type": "address"
        }
      ],
      "name": "isApprovedForAll",
      "outputs": [
        {
          "internalType": "bool",
          "name": "",
          "type": "bool"
        }
      ],
      "stateMutability": "view",
      "type": "function"
    },
    {
      "inputs": [],
      "name": "maxMintAmount",
      "outputs": [
        {
          "internalType": "uint256",
          "name": "",
          "type": "uint256"
        }
      ],
      "stateMutability": "view",
      "type": "function"
    },
    {
      "inputs": [],
      "name": "merkleRoot",
      "outputs": [
        {
          "internalType": "bytes32",
          "name": "",
          "type": "bytes32"
        }
      ],
      "stateMutability": "view",
      "type": "function"
    },
    {
      "inputs": [],
      "name": "mintPaused",
      "outputs": [
        {
          "internalType": "bool",
          "name": "",
          "type": "bool"
        }
      ],
      "stateMutability": "view",
      "type": "function"
    },
    {
      "inputs": [
        {
          "internalType": "address",
          "name": "_to",
          "type": "address"
        },
        {
          "internalType": "uint256",
          "name": "_amount",
          "type": "uint256"
        }
      ],
      "name": "mintReserve",
      "outputs": [],
      "stateMutability": "nonpayable",
      "type": "function"
    },
    {
      "inputs": [],
      "name": "name",
      "outputs": [
        {
          "internalType": "string",
          "name": "",
          "type": "string"
        }
      ],
      "stateMutability": "view",
      "type": "function"
    },
    {
      "inputs": [],
      "name": "owner",
      "outputs": [
        {
          "internalType": "address",
          "name": "",
          "type": "address"
        }
      ],
      "stateMutability": "view",
      "type": "function"
    },
    {
      "inputs": [
        {
          "internalType": "uint256",
          "name": "tokenId",
          "type": "uint256"
        }
      ],
      "name": "ownerOf",
      "outputs": [
        {
          "internalType": "address",
          "name": "",
          "type": "address"
        }
      ],
      "stateMutability": "view",
      "type": "function"
    },
    {
      "inputs": [
        {
          "internalType": "address",
          "name": "",
          "type": "address"
        }
      ],
      "name": "ownerTokens",
      "outputs": [
        {
          "internalType": "uint256",
          "name": "",
          "type": "uint256"
        }
      ],
      "stateMutability": "view",
      "type": "function"
    },
    {
      "inputs": [],
      "name": "price",
      "outputs": [
        {
          "internalType": "uint256",
          "name": "",
          "type": "uint256"
        }
      ],
      "stateMutability": "view",
      "type": "function"
    },
    {
      "inputs": [
        {
          "internalType": "uint256",
          "name": "_quantity",
          "type": "uint256"
        }
      ],
      "name": "publicMint",
      "outputs": [],
      "stateMutability": "payable",
      "type": "function"
    },
    {
      "inputs": [],
      "name": "renounceOwnership",
      "outputs": [],
      "stateMutability": "nonpayable",
      "type": "function"
    },
    {
      "inputs": [],
      "name": "reveal",
      "outputs": [],
      "stateMutability": "nonpayable",
      "type": "function"
    },
    {
      "inputs": [],
      "name": "revealed",
      "outputs": [
        {
          "internalType": "bool",
          "name": "",
          "type": "bool"
        }
      ],
      "stateMutability": "view",
      "type": "function"
    },
    {
      "inputs": [
        {
          "internalType": "address",
          "name": "from",
          "type": "address"
        },
        {
          "internalType": "address",
          "name": "to",
          "type": "address"
        },
        {
          "internalType": "uint256",
          "name": "tokenId",
          "type": "uint256"
        }
      ],
      "name": "safeTransferFrom",
      "outputs": [],
      "stateMutability": "nonpayable",
      "type": "function"
    },
    {
      "inputs": [
        {
          "internalType": "address",
          "name": "from",
          "type": "address"
        },
        {
          "internalType": "address",
          "name": "to",
          "type": "address"
        },
        {
          "internalType": "uint256",
          "name": "tokenId",
          "type": "uint256"
        },
        {
          "internalType": "bytes",
          "name": "_data",
          "type": "bytes"
        }
      ],
      "name": "safeTransferFrom",
      "outputs": [],
      "stateMutability": "nonpayable",
      "type": "function"
    },
    {
      "inputs": [],
      "name": "saleLive",
      "outputs": [
        {
          "internalType": "bool",
          "name": "",
          "type": "bool"
        }
      ],
      "stateMutability": "view",
      "type": "function"
    },
    {
      "inputs": [
        {
          "internalType": "address",
          "name": "_newAdmin",
          "type": "address"
        }
      ],
      "name": "setAdmin",
      "outputs": [],
      "stateMutability": "nonpayable",
      "type": "function"
    },
    {
      "inputs": [
        {
          "internalType": "address",
          "name": "operator",
          "type": "address"
        },
        {
          "internalType": "bool",
          "name": "approved",
          "type": "bool"
        }
      ],
      "name": "setApprovalForAll",
      "outputs": [],
      "stateMutability": "nonpayable",
      "type": "function"
    },
    {
      "inputs": [
        {
          "internalType": "string",
          "name": "_newURI",
          "type": "string"
        }
      ],
      "name": "setBaseURI",
      "outputs": [],
      "stateMutability": "nonpayable",
      "type": "function"
    },
    {
      "inputs": [
        {
          "internalType": "uint256",
          "name": "_newmaxMintAmount",
          "type": "uint256"
        }
      ],
      "name": "setMaxMintAmount",
      "outputs": [],
      "stateMutability": "nonpayable",
      "type": "function"
    },
    {
      "inputs": [
        {
          "internalType": "uint256",
          "name": "_newPrice",
          "type": "uint256"
        }
      ],
      "name": "setPrice",
      "outputs": [],
      "stateMutability": "nonpayable",
      "type": "function"
    },
    {
      "inputs": [
        {
          "internalType": "bytes32",
          "name": "_merkleRoot",
          "type": "bytes32"
        }
      ],
      "name": "setRoot",
      "outputs": [],
      "stateMutability": "nonpayable",
      "type": "function"
    },
    {
      "inputs": [
        {
          "internalType": "bytes4",
          "name": "interfaceId",
          "type": "bytes4"
        }
      ],
      "name": "supportsInterface",
      "outputs": [
        {
          "internalType": "bool",
          "name": "",
          "type": "bool"
        }
      ],
      "stateMutability": "view",
      "type": "function"
    },
    {
      "inputs": [],
      "name": "symbol",
      "outputs": [
        {
          "internalType": "string",
          "name": "",
          "type": "string"
        }
      ],
      "stateMutability": "view",
      "type": "function"
    },
    {
      "inputs": [],
      "name": "togglePause",
      "outputs": [],
      "stateMutability": "nonpayable",
      "type": "function"
    },
    {
      "inputs": [
        {
          "internalType": "address",
          "name": "_proxyAddress",
          "type": "address"
        }
      ],
      "name": "toggleProxyState",
      "outputs": [],
      "stateMutability": "nonpayable",
      "type": "function"
    },
    {
      "inputs": [],
      "name": "toggleSaleLive",
      "outputs": [],
      "stateMutability": "nonpayable",
      "type": "function"
    },
    {
      "inputs": [],
      "name": "toggleWhiteList",
      "outputs": [],
      "stateMutability": "nonpayable",
      "type": "function"
    },
    {
      "inputs": [
        {
          "internalType": "uint256",
          "name": "tokenId",
          "type": "uint256"
        }
      ],
      "name": "tokenURI",
      "outputs": [
        {
          "internalType": "string",
          "name": "",
          "type": "string"
        }
      ],
      "stateMutability": "view",
      "type": "function"
    },
    {
      "inputs": [],
      "name": "totalTokensMinted",
      "outputs": [
        {
          "internalType": "uint256",
          "name": "",
          "type": "uint256"
        }
      ],
      "stateMutability": "view",
      "type": "function"
    },
    {
      "inputs": [
        {
          "internalType": "address",
          "name": "from",
          "type": "address"
        },
        {
          "internalType": "address",
          "name": "to",
          "type": "address"
        },
        {
          "internalType": "uint256",
          "name": "tokenId",
          "type": "uint256"
        }
      ],
      "name": "transferFrom",
      "outputs": [],
      "stateMutability": "nonpayable",
      "type": "function"
    },
    {
      "inputs": [
        {
          "internalType": "address",
          "name": "newOwner",
          "type": "address"
        }
      ],
      "name": "transferOwnership",
      "outputs": [],
      "stateMutability": "nonpayable",
      "type": "function"
    },
    {
      "inputs": [],
      "name": "whiteListActive",
      "outputs": [
        {
          "internalType": "bool",
          "name": "",
          "type": "bool"
        }
      ],
      "stateMutability": "view",
      "type": "function"
    },
    {
      "inputs": [
        {
          "internalType": "address",
          "name": "",
          "type": "address"
        }
      ],
      "name": "whitelistClaimed",
      "outputs": [
        {
          "internalType": "bool",
          "name": "",
          "type": "bool"
        }
      ],
      "stateMutability": "view",
      "type": "function"
    },
    {
      "inputs": [
        {
          "internalType": "bytes32[]",
          "name": "_merkleProof",
          "type": "bytes32[]"
        },
        {
          "internalType": "uint256",
          "name": "_quantity",
          "type": "uint256"
        }
      ],
      "name": "whitelistMint",
      "outputs": [],
      "stateMutability": "payable",
      "type": "function"
    },
    {
      "inputs": [],
      "name": "withdraw",
      "outputs": [],
      "stateMutability": "nonpayable",
      "type": "function"
    }
  ],
  "bytecode": "0x6080604052611e61600b556701118f178fb48000600c556004600d556014600e819055805463ff0000ff191663010000011790553480156200004057600080fd5b506040516200292f3803806200292f833981016040819052620000639162000201565b604080518082018252600b81526a21b93cb83a37a43ab735bd60a91b602080830191825283518085019094526005845264242aa725ad60d91b908401528151919291620000b3916000916200015b565b508051620000c99060019060208401906200015b565b5050600160065550620000dc3362000109565b6001600160a01b039091166000908152601160205260409020805460ff1916600117905560085562000278565b600780546001600160a01b038381166001600160a01b0319831681179093556040519116919082907f8be0079c531659141344cd1fd0a4f28419497f9722a3daafe3b4186f6b6457e090600090a35050565b82805462000169906200023b565b90600052602060002090601f0160209004810192826200018d5760008555620001d8565b82601f10620001a857805160ff1916838001178555620001d8565b82800160010185558215620001d8579182015b82811115620001d8578251825591602001919060010190620001bb565b50620001e6929150620001ea565b5090565b5b80821115620001e65760008155600101620001eb565b6000806040838503121562000214578182fd5b82516001600160a01b03811681146200022b578283fd5b6020939093015192949293505050565b600181811c908216806200025057607f821691505b602082108114156200027257634e487b7160e01b600052602260045260246000fd5b50919050565b6126a780620002886000396000f3fe6080604052600436106102675760003560e01c80637d549e9911610144578063b88d4fde116100b6578063d9915d9b1161007a578063d9915d9b146106e2578063dab5f340146106f7578063db4bec4414610717578063e081b78114610747578063e985e9c514610761578063f2fde38b146107aa57600080fd5b8063b88d4fde14610640578063bba7723e14610660578063bbd2dc111461068d578063c4ae3168146106ad578063c87b56dd146106c257600080fd5b806391b7f5ed1161010857806391b7f5ed146105aa57806395d89b41146105ca578063a035b1fe146105df578063a22cb465146105f5578063a475b5dd14610615578063aa592f251461062a57600080fd5b80637d549e99146105215780637e4831d3146105365780638da5cb5b146105565780638e825be014610574578063902d55a51461059457600080fd5b80633ccfd60b116101dd57806363430b38116101a157806363430b38146104825780636352211e146104975780636373a6b1146104b7578063704b6c02146104cc57806370a08231146104ec578063715018a61461050c57600080fd5b80633ccfd60b146103de57806342842e0e146103f3578063429b62e514610413578063518302271461044357806355f804b31461046257600080fd5b8063239c70ae1161022f578063239c70ae1461033d57806323b872dd146103615780632904e6d9146103815780632db11544146103945780632e4355cd146103a75780632eb4a7ab146103c857600080fd5b806301ffc9a71461026c57806306fdde03146102a1578063081812fc146102c3578063088a4ed0146102fb578063095ea7b31461031d575b600080fd5b34801561027857600080fd5b5061028c6102873660046122de565b6107ca565b60405190151581526020015b60405180910390f35b3480156102ad57600080fd5b506102b661081c565b60405161029891906123f4565b3480156102cf57600080fd5b506102e36102de3660046122c6565b6108ae565b6040516001600160a01b039091168152602001610298565b34801561030757600080fd5b5061031b6103163660046122c6565b610948565b005b34801561032957600080fd5b5061031b610338366004612227565b61097c565b34801561034957600080fd5b50610353600d5481565b604051908152602001610298565b34801561036d57600080fd5b5061031b61037c366004612139565b610a92565b61031b61038f366004612250565b610ac3565b61031b6103a23660046122c6565b610cba565b3480156103b357600080fd5b5060145461028c906301000000900460ff1681565b3480156103d457600080fd5b5061035360085481565b3480156103ea57600080fd5b5061031b610d73565b3480156103ff57600080fd5b5061031b61040e366004612139565b610dd1565b34801561041f57600080fd5b5061028c61042e3660046120ed565b60116020526000908152604090205460ff1681565b34801561044f57600080fd5b5060145461028c90610100900460ff1681565b34801561046e57600080fd5b5061031b61047d366004612316565b610dec565b34801561048e57600080fd5b5061031b610e32565b3480156104a357600080fd5b506102e36104b23660046122c6565b610e82565b3480156104c357600080fd5b506102b6610ef9565b3480156104d857600080fd5b5061031b6104e73660046120ed565b610f87565b3480156104f857600080fd5b506103536105073660046120ed565b610fd5565b34801561051857600080fd5b5061031b61105c565b34801561052d57600080fd5b50610353611092565b34801561054257600080fd5b5060145461028c9062010000900460ff1681565b34801561056257600080fd5b506007546001600160a01b03166102e3565b34801561058057600080fd5b5061031b61058f366004612227565b6110a2565b3480156105a057600080fd5b50610353600b5481565b3480156105b657600080fd5b5061031b6105c53660046122c6565b611191565b3480156105d657600080fd5b506102b66111c5565b3480156105eb57600080fd5b50610353600c5481565b34801561060157600080fd5b5061031b6106103660046121ed565b6111d4565b34801561062157600080fd5b5061031b6111df565b34801561063657600080fd5b50610353600e5481565b34801561064c57600080fd5b5061031b61065b366004612174565b61121f565b34801561066c57600080fd5b5061035361067b3660046120ed565b60126020526000908152604090205481565b34801561069957600080fd5b5061031b6106a83660046120ed565b611257565b3480156106b957600080fd5b5061031b6112af565b3480156106ce57600080fd5b506102b66106dd3660046122c6565b6112fd565b3480156106ee57600080fd5b5061031b6113d8565b34801561070357600080fd5b5061031b6107123660046122c6565b61141b565b34801561072357600080fd5b5061028c6107323660046120ed565b60106020526000908152604090205460ff1681565b34801561075357600080fd5b5060145461028c9060ff1681565b34801561076d57600080fd5b5061028c61077c366004612107565b6001600160a01b03918216600090815260056020908152604080832093909416825291909152205460ff1690565b3480156107b657600080fd5b5061031b6107c53660046120ed565b61144f565b60006001600160e01b031982166380ac58cd60e01b14806107fb57506001600160e01b03198216635b5e139f60e01b145b8061081657506301ffc9a760e01b6001600160e01b03198316145b92915050565b60606000805461082b906125af565b80601f0160208091040260200160405190810160405280929190818152602001828054610857906125af565b80156108a45780601f10610879576101008083540402835291602001916108a4565b820191906000526020600020905b81548152906001019060200180831161088757829003601f168201915b5050505050905090565b6000818152600260205260408120546001600160a01b031661092c5760405162461bcd60e51b815260206004820152602c60248201527f4552433732313a20617070726f76656420717565727920666f72206e6f6e657860448201526b34b9ba32b73a103a37b5b2b760a11b60648201526084015b60405180910390fd5b506000908152600460205260409020546001600160a01b031690565b3360009081526011602052604090205460ff166109775760405162461bcd60e51b815260040161092390612407565b600d55565b600061098782610e82565b9050806001600160a01b0316836001600160a01b031614156109f55760405162461bcd60e51b815260206004820152602160248201527f4552433732313a20617070726f76616c20746f2063757272656e74206f776e656044820152603960f91b6064820152608401610923565b336001600160a01b0382161480610a115750610a11813361077c565b610a835760405162461bcd60e51b815260206004820152603860248201527f4552433732313a20617070726f76652063616c6c6572206973206e6f74206f7760448201527f6e6572206e6f7220617070726f76656420666f7220616c6c00000000000000006064820152608401610923565b610a8d83836114e7565b505050565b610a9c3382611555565b610ab85760405162461bcd60e51b8152600401610923906124d0565b610a8d83838361164c565b60026006541415610b165760405162461bcd60e51b815260206004820152601f60248201527f5265656e7472616e637947756172643a207265656e7472616e742063616c6c006044820152606401610923565b60026006556014546301000000900460ff16610b745760405162461bcd60e51b815260206004820152601760248201527f57686974656c697374206973206e6f74206163746976650000000000000000006044820152606401610923565b3360009081526010602052604090205460ff1615610bc65760405162461bcd60e51b815260206004820152600f60248201526e105b1c9958591e4818db185a5b5959608a1b6044820152606401610923565b6040516bffffffffffffffffffffffff193360601b166020820152600090603401604051602081830303815290604052805190602001209050610c408484808060200260200160405190810160405280939291908181526020018383602002808284376000920191909152505060085491508490506117ec565b610c8c5760405162461bcd60e51b815260206004820152601b60248201527f77686974656c6973742075736572206e6f7420766572696669656400000000006044820152606401610923565b336000908152601060205260409020805460ff19166001179055610caf82611802565b505060016006555050565b60026006541415610d0d5760405162461bcd60e51b815260206004820152601f60248201527f5265656e7472616e637947756172643a207265656e7472616e742063616c6c006044820152606401610923565b60026006556014546301000000900460ff1615610d625760405162461bcd60e51b815260206004820152601360248201527257686974656c6973742069732061637469766560681b6044820152606401610923565b610d6b81611802565b506001600655565b3360009081526011602052604090205460ff16610da25760405162461bcd60e51b815260040161092390612407565b60405133904780156108fc02916000818181858888f19350505050158015610dce573d6000803e3d6000fd5b50565b610a8d8383836040518060200160405280600081525061121f565b3360009081526011602052604090205460ff16610e1b5760405162461bcd60e51b815260040161092390612407565b8051610e2e906009906020840190611fc2565b5050565b3360009081526011602052604090205460ff16610e615760405162461bcd60e51b815260040161092390612407565b6014805463ff00000019811663010000009182900460ff1615909102179055565b6000818152600260205260408120546001600160a01b0316806108165760405162461bcd60e51b815260206004820152602960248201527f4552433732313a206f776e657220717565727920666f72206e6f6e657869737460448201526832b73a103a37b5b2b760b91b6064820152608401610923565b600f8054610f06906125af565b80601f0160208091040260200160405190810160405280929190818152602001828054610f32906125af565b8015610f7f5780601f10610f5457610100808354040283529160200191610f7f565b820191906000526020600020905b815481529060010190602001808311610f6257829003601f168201915b505050505081565b6007546001600160a01b03163314610fb15760405162461bcd60e51b81526004016109239061249b565b6001600160a01b03166000908152601160205260409020805460ff19166001179055565b60006001600160a01b0382166110405760405162461bcd60e51b815260206004820152602a60248201527f4552433732313a2062616c616e636520717565727920666f7220746865207a65604482015269726f206164647265737360b01b6064820152608401610923565b506001600160a01b031660009081526003602052604090205490565b6007546001600160a01b031633146110865760405162461bcd60e51b81526004016109239061249b565b61109060006119ef565b565b600061109d600a5490565b905090565b3360009081526011602052604090205460ff166110d15760405162461bcd60e51b815260040161092390612407565b6000811180156110e35750600e548111155b6111235760405162461bcd60e51b8152602060048201526011602482015270105b5bdd5b9d081a5cc81a5b9d985b1a59607a1b6044820152606401610923565b60005b818110156111715761113c600a80546001019055565b6000611147600a5490565b90506111538482611a41565b61115c816112fd565b50508080611169906125ea565b915050611126565b5080600e6000828254611184919061256c565b9182905550600e55505050565b3360009081526011602052604090205460ff166111c05760405162461bcd60e51b815260040161092390612407565b600c55565b60606001805461082b906125af565b610e2e338383611a5b565b3360009081526011602052604090205460ff1661120e5760405162461bcd60e51b815260040161092390612407565b6014805461ff001916610100179055565b6112293383611555565b6112455760405162461bcd60e51b8152600401610923906124d0565b61125184848484611b2a565b50505050565b3360009081526011602052604090205460ff166112865760405162461bcd60e51b815260040161092390612407565b6001600160a01b03166000908152601360205260409020805460ff19811660ff90911615179055565b3360009081526011602052604090205460ff166112de5760405162461bcd60e51b815260040161092390612407565b6014805462ff0000198116620100009182900460ff1615909102179055565b6000818152600260205260409020546060906001600160a01b031661137c5760405162461bcd60e51b815260206004820152602f60248201527f4552433732314d657461646174613a2055524920717565727920666f72206e6f60448201526e3732bc34b9ba32b73a103a37b5b2b760891b6064820152608401610923565b6000611386611b5d565b905060008151116113a657604051806020016040528060008152506113d1565b806113b084611b6c565b6040516020016113c1929190612388565b6040516020818303038152906040525b9392505050565b3360009081526011602052604090205460ff166114075760405162461bcd60e51b815260040161092390612407565b6014805460ff19811660ff90911615179055565b3360009081526011602052604090205460ff1661144a5760405162461bcd60e51b815260040161092390612407565b600855565b6007546001600160a01b031633146114795760405162461bcd60e51b81526004016109239061249b565b6001600160a01b0381166114de5760405162461bcd60e51b815260206004820152602660248201527f4f776e61626c653a206e6577206f776e657220697320746865207a65726f206160448201526564647265737360d01b6064820152608401610923565b610dce816119ef565b600081815260046020526040902080546001600160a01b0319166001600160a01b038416908117909155819061151c82610e82565b6001600160a01b03167f8c5be1e5ebec7d5bd14f71427d1e84f3dd0314c0f7b2291e5b200ac8c7c3b92560405160405180910390a45050565b6000818152600260205260408120546001600160a01b03166115ce5760405162461bcd60e51b815260206004820152602c60248201527f4552433732313a206f70657261746f7220717565727920666f72206e6f6e657860448201526b34b9ba32b73a103a37b5b2b760a11b6064820152608401610923565b60006115d983610e82565b9050806001600160a01b0316846001600160a01b031614806116145750836001600160a01b0316611609846108ae565b6001600160a01b0316145b8061164457506001600160a01b0380821660009081526005602090815260408083209388168352929052205460ff165b949350505050565b826001600160a01b031661165f82610e82565b6001600160a01b0316146116c75760405162461bcd60e51b815260206004820152602960248201527f4552433732313a207472616e73666572206f6620746f6b656e2074686174206960448201526839903737ba1037bbb760b91b6064820152608401610923565b6001600160a01b0382166117295760405162461bcd60e51b8152602060048201526024808201527f4552433732313a207472616e7366657220746f20746865207a65726f206164646044820152637265737360e01b6064820152608401610923565b6117346000826114e7565b6001600160a01b038316600090815260036020526040812080546001929061175d90849061256c565b90915550506001600160a01b038216600090815260036020526040812080546001929061178b908490612521565b909155505060008181526002602052604080822080546001600160a01b0319166001600160a01b0386811691821790925591518493918716917fddf252ad1be2c89b69c2b068fc378daa952ba7f163c4a11628f55a4df523b3ef91a4505050565b6000826117f98584611c86565b14949350505050565b3233146118515760405162461bcd60e51b815260206004820152601f60248201527f43616c6c6572206d757374206265206f726967696e616c2061646472657373006044820152606401610923565b60145462010000900460ff161561189b5760405162461bcd60e51b815260206004820152600e60248201526d14d85b19481a5cc81c185d5cd95960921b6044820152606401610923565b600d5481106118dd5760405162461bcd60e51b815260206004820152600e60248201526d125b9d985b1a5908185b5bdd5b9d60921b6044820152606401610923565b6000816118e9600a5490565b6118f39190612521565b9050600b548111156119325760405162461bcd60e51b815260206004820152600860248201526714dbdb19081bdd5d60c21b6044820152606401610923565b81600c54611940919061254d565b341461198e5760405162461bcd60e51b815260206004820152601960248201527f496e636f727265637420616d6f756e74206f66206574686572000000000000006044820152606401610923565b60015b8281116119db576119a6600a80546001019055565b60006119b1600a5490565b90506119bd3382611a41565b6119c6816112fd565b505080806119d3906125ea565b915050611991565b505033600090815260126020526040902055565b600780546001600160a01b038381166001600160a01b0319831681179093556040519116919082907f8be0079c531659141344cd1fd0a4f28419497f9722a3daafe3b4186f6b6457e090600090a35050565b610e2e828260405180602001604052806000815250611d40565b816001600160a01b0316836001600160a01b03161415611abd5760405162461bcd60e51b815260206004820152601960248201527f4552433732313a20617070726f766520746f2063616c6c6572000000000000006044820152606401610923565b6001600160a01b03838116600081815260056020908152604080832094871680845294825291829020805460ff191686151590811790915591519182527f17307eab39ab6107e8899845ad3d59bd9653f200f220920489ca2b5937696c31910160405180910390a3505050565b611b3584848461164c565b611b4184848484611d73565b6112515760405162461bcd60e51b815260040161092390612449565b60606009805461082b906125af565b606081611b905750506040805180820190915260018152600360fc1b602082015290565b8160005b8115611bba5780611ba4816125ea565b9150611bb39050600a83612539565b9150611b94565b60008167ffffffffffffffff811115611be357634e487b7160e01b600052604160045260246000fd5b6040519080825280601f01601f191660200182016040528015611c0d576020820181803683370190505b5090505b841561164457611c2260018361256c565b9150611c2f600a86612605565b611c3a906030612521565b60f81b818381518110611c5d57634e487b7160e01b600052603260045260246000fd5b60200101906001600160f81b031916908160001a905350611c7f600a86612539565b9450611c11565b600081815b8451811015611d38576000858281518110611cb657634e487b7160e01b600052603260045260246000fd5b60200260200101519050808311611cf8576040805160208101859052908101829052606001604051602081830303815290604052805190602001209250611d25565b60408051602081018390529081018490526060016040516020818303038152906040528051906020012092505b5080611d30816125ea565b915050611c8b565b509392505050565b611d4a8383611e80565b611d576000848484611d73565b610a8d5760405162461bcd60e51b815260040161092390612449565b60006001600160a01b0384163b15611e7557604051630a85bd0160e11b81526001600160a01b0385169063150b7a0290611db79033908990889088906004016123b7565b602060405180830381600087803b158015611dd157600080fd5b505af1925050508015611e01575060408051601f3d908101601f19168201909252611dfe918101906122fa565b60015b611e5b573d808015611e2f576040519150601f19603f3d011682016040523d82523d6000602084013e611e34565b606091505b508051611e535760405162461bcd60e51b815260040161092390612449565b805181602001fd5b6001600160e01b031916630a85bd0160e11b149050611644565b506001949350505050565b6001600160a01b038216611ed65760405162461bcd60e51b815260206004820181905260248201527f4552433732313a206d696e7420746f20746865207a65726f20616464726573736044820152606401610923565b6000818152600260205260409020546001600160a01b031615611f3b5760405162461bcd60e51b815260206004820152601c60248201527f4552433732313a20746f6b656e20616c7265616479206d696e746564000000006044820152606401610923565b6001600160a01b0382166000908152600360205260408120805460019290611f64908490612521565b909155505060008181526002602052604080822080546001600160a01b0319166001600160a01b03861690811790915590518392907fddf252ad1be2c89b69c2b068fc378daa952ba7f163c4a11628f55a4df523b3ef908290a45050565b828054611fce906125af565b90600052602060002090601f016020900481019282611ff05760008555612036565b82601f1061200957805160ff1916838001178555612036565b82800160010185558215612036579182015b8281111561203657825182559160200191906001019061201b565b50612042929150612046565b5090565b5b808211156120425760008155600101612047565b600067ffffffffffffffff8084111561207657612076612645565b604051601f8501601f19908116603f0116810190828211818310171561209e5761209e612645565b816040528093508581528686860111156120b757600080fd5b858560208301376000602087830101525050509392505050565b80356001600160a01b03811681146120e857600080fd5b919050565b6000602082840312156120fe578081fd5b6113d1826120d1565b60008060408385031215612119578081fd5b612122836120d1565b9150612130602084016120d1565b90509250929050565b60008060006060848603121561214d578081fd5b612156846120d1565b9250612164602085016120d1565b9150604084013590509250925092565b60008060008060808587031215612189578081fd5b612192856120d1565b93506121a0602086016120d1565b925060408501359150606085013567ffffffffffffffff8111156121c2578182fd5b8501601f810187136121d2578182fd5b6121e18782356020840161205b565b91505092959194509250565b600080604083850312156121ff578182fd5b612208836120d1565b91506020830135801515811461221c578182fd5b809150509250929050565b60008060408385031215612239578182fd5b612242836120d1565b946020939093013593505050565b600080600060408486031215612264578283fd5b833567ffffffffffffffff8082111561227b578485fd5b818601915086601f83011261228e578485fd5b81358181111561229c578586fd5b8760208260051b85010111156122b0578586fd5b6020928301989097509590910135949350505050565b6000602082840312156122d7578081fd5b5035919050565b6000602082840312156122ef578081fd5b81356113d18161265b565b60006020828403121561230b578081fd5b81516113d18161265b565b600060208284031215612327578081fd5b813567ffffffffffffffff81111561233d578182fd5b8201601f8101841361234d578182fd5b6116448482356020840161205b565b60008151808452612374816020860160208601612583565b601f01601f19169290920160200192915050565b6000835161239a818460208801612583565b8351908301906123ae818360208801612583565b01949350505050565b6001600160a01b03858116825284166020820152604081018390526080606082018190526000906123ea9083018461235c565b9695505050505050565b6020815260006113d1602083018461235c565b60208082526022908201527f4f6e6c792061646d696e732063616e2063616c6c20746869732066756e63746960408201526137b760f11b606082015260800190565b60208082526032908201527f4552433732313a207472616e7366657220746f206e6f6e20455243373231526560408201527131b2b4bb32b91034b6b83632b6b2b73a32b960711b606082015260800190565b6020808252818101527f4f776e61626c653a2063616c6c6572206973206e6f7420746865206f776e6572604082015260600190565b60208082526031908201527f4552433732313a207472616e736665722063616c6c6572206973206e6f74206f6040820152701ddb995c881b9bdc88185c1c1c9bdd9959607a1b606082015260800190565b6000821982111561253457612534612619565b500190565b6000826125485761254861262f565b500490565b600081600019048311821515161561256757612567612619565b500290565b60008282101561257e5761257e612619565b500390565b60005b8381101561259e578181015183820152602001612586565b838111156112515750506000910152565b600181811c908216806125c357607f821691505b602082108114156125e457634e487b7160e01b600052602260045260246000fd5b50919050565b60006000198214156125fe576125fe612619565b5060010190565b6000826126145761261461262f565b500690565b634e487b7160e01b600052601160045260246000fd5b634e487b7160e01b600052601260045260246000fd5b634e487b7160e01b600052604160045260246000fd5b6001600160e01b031981168114610dce57600080fdfea264697066735822122075e8abc747b52a01c5bbf1fc6e8d3f6f83ce66dcdbce1a4bc80f8fb0c942515c64736f6c63430008040033",
  "linkReferences": {},
  "deployedLinkReferences": {}
}