{
  "_format": "hh-sol-artifact-1",
  "contractName": "CryptoHunkz",
  "sourceName": "contracts/CryptoHunkz.sol",
  "abi": [
    {
      "inputs": [
        {
          "internalType": "address",
          "name": "_owner",
          "type": "address"
        }
      ],
      "stateMutability": "nonpayable",
      "type": "constructor"
    },
    {
      "anonymous": false,
      "inputs": [
        {
          "indexed": true,
          "internalType": "address",
          "name": "owner",
          "type": "address"
        },
        {
          "indexed": true,
          "internalType": "address",
          "name": "approved",
          "type": "address"
        },
        {
          "indexed": true,
          "internalType": "uint256",
          "name": "tokenId",
          "type": "uint256"
        }
      ],
      "name": "Approval",
      "type": "event"
    },
    {
      "anonymous": false,
      "inputs": [
        {
          "indexed": true,
          "internalType": "address",
          "name": "owner",
          "type": "address"
        },
        {
          "indexed": true,
          "internalType": "address",
          "name": "operator",
          "type": "address"
        },
        {
          "indexed": false,
          "internalType": "bool",
          "name": "approved",
          "type": "bool"
        }
      ],
      "name": "ApprovalForAll",
      "type": "event"
    },
    {
      "anonymous": false,
      "inputs": [
        {
          "indexed": true,
          "internalType": "address",
          "name": "previousOwner",
          "type": "address"
        },
        {
          "indexed": true,
          "internalType": "address",
          "name": "newOwner",
          "type": "address"
        }
      ],
      "name": "OwnershipTransferred",
      "type": "event"
    },
    {
      "anonymous": false,
      "inputs": [
        {
          "indexed": true,
          "internalType": "bytes32",
          "name": "role",
          "type": "bytes32"
        },
        {
          "indexed": true,
          "internalType": "bytes32",
          "name": "previousAdminRole",
          "type": "bytes32"
        },
        {
          "indexed": true,
          "internalType": "bytes32",
          "name": "newAdminRole",
          "type": "bytes32"
        }
      ],
      "name": "RoleAdminChanged",
      "type": "event"
    },
    {
      "anonymous": false,
      "inputs": [
        {
          "indexed": true,
          "internalType": "bytes32",
          "name": "role",
          "type": "bytes32"
        },
        {
          "indexed": true,
          "internalType": "address",
          "name": "account",
          "type": "address"
        },
        {
          "indexed": true,
          "internalType": "address",
          "name": "sender",
          "type": "address"
        }
      ],
      "name": "RoleGranted",
      "type": "event"
    },
    {
      "anonymous": false,
      "inputs": [
        {
          "indexed": true,
          "internalType": "bytes32",
          "name": "role",
          "type": "bytes32"
        },
        {
          "indexed": true,
          "internalType": "address",
          "name": "account",
          "type": "address"
        },
        {
          "indexed": true,
          "internalType": "address",
          "name": "sender",
          "type": "address"
        }
      ],
      "name": "RoleRevoked",
      "type": "event"
    },
    {
      "anonymous": false,
      "inputs": [
        {
          "indexed": true,
          "internalType": "address",
          "name": "from",
          "type": "address"
        },
        {
          "indexed": true,
          "internalType": "address",
          "name": "to",
          "type": "address"
        },
        {
          "indexed": true,
          "internalType": "uint256",
          "name": "tokenId",
          "type": "uint256"
        }
      ],
      "name": "Transfer",
      "type": "event"
    },
    {
      "inputs": [],
      "name": "DEFAULT_ADMIN_ROLE",
      "outputs": [
        {
          "internalType": "bytes32",
          "name": "",
          "type": "bytes32"
        }
      ],
      "stateMutability": "view",
      "type": "function"
    },
    {
      "inputs": [],
      "name": "PROVENANCE",
      "outputs": [
        {
          "internalType": "string",
          "name": "",
          "type": "string"
        }
      ],
      "stateMutability": "view",
      "type": "function"
    },
    {
      "inputs": [],
      "name": "RESERVED",
      "outputs": [
        {
          "internalType": "uint256",
          "name": "",
          "type": "uint256"
        }
      ],
      "stateMutability": "view",
      "type": "function"
    },
    {
      "inputs": [],
      "name": "TOTAL_SUPPLY",
      "outputs": [
        {
          "internalType": "uint256",
          "name": "",
          "type": "uint256"
        }
      ],
      "stateMutability": "view",
      "type": "function"
    },
    {
      "inputs": [
        {
          "internalType": "address",
          "name": "",
          "type": "address"
        }
      ],
      "name": "admins",
      "outputs": [
        {
          "internalType": "bool",
          "name": "",
          "type": "bool"
        }
      ],
      "stateMutability": "view",
      "type": "function"
    },
    {
      "inputs": [
        {
          "internalType": "address",
          "name": "to",
          "type": "address"
        },
        {
          "internalType": "uint256",
          "name": "tokenId",
          "type": "uint256"
        }
      ],
      "name": "approve",
      "outputs": [],
      "stateMutability": "nonpayable",
      "type": "function"
    },
    {
      "inputs": [
        {
          "internalType": "address",
          "name": "owner",
          "type": "address"
        }
      ],
      "name": "balanceOf",
      "outputs": [
        {
          "internalType": "uint256",
          "name": "",
          "type": "uint256"
        }
      ],
      "stateMutability": "view",
      "type": "function"
    },
    {
      "inputs": [
        {
          "internalType": "uint256",
          "name": "tokenId",
          "type": "uint256"
        }
      ],
      "name": "getApproved",
      "outputs": [
        {
          "internalType": "address",
          "name": "",
          "type": "address"
        }
      ],
      "stateMutability": "view",
      "type": "function"
    },
    {
      "inputs": [
        {
          "internalType": "bytes32",
          "name": "role",
          "type": "bytes32"
        }
      ],
      "name": "getRoleAdmin",
      "outputs": [
        {
          "internalType": "bytes32",
          "name": "",
          "type": "bytes32"
        }
      ],
      "stateMutability": "view",
      "type": "function"
    },
    {
      "inputs": [
        {
          "internalType": "bytes32",
          "name": "role",
          "type": "bytes32"
        },
        {
          "internalType": "address",
          "name": "account",
          "type": "address"
        }
      ],
      "name": "grantRole",
      "outputs": [],
      "stateMutability": "nonpayable",
      "type": "function"
    },
    {
      "inputs": [
        {
          "internalType": "bytes32",
          "name": "role",
          "type": "bytes32"
        },
        {
          "internalType": "address",
          "name": "account",
          "type": "address"
        }
      ],
      "name": "hasRole",
      "outputs": [
        {
          "internalType": "bool",
          "name": "",
          "type": "bool"
        }
      ],
      "stateMutability": "view",
      "type": "function"
    },
    {
      "inputs": [
        {
          "internalType": "address",
          "name": "owner",
          "type": "address"
        },
        {
          "internalType": "address",
          "name": "operator",
          "type": "address"
        }
      ],
      "name": "isApprovedForAll",
      "outputs": [
        {
          "internalType": "bool",
          "name": "",
          "type": "bool"
        }
      ],
      "stateMutability": "view",
      "type": "function"
    },
    {
      "inputs": [],
      "name": "maxMintAmount",
      "outputs": [
        {
          "internalType": "uint256",
          "name": "",
          "type": "uint256"
        }
      ],
      "stateMutability": "view",
      "type": "function"
    },
    {
      "inputs": [
        {
          "internalType": "uint256",
          "name": "_amount",
          "type": "uint256"
        }
      ],
      "name": "mintHunk",
      "outputs": [],
      "stateMutability": "payable",
      "type": "function"
    },
    {
      "inputs": [],
      "name": "mintPaused",
      "outputs": [
        {
          "internalType": "bool",
          "name": "",
          "type": "bool"
        }
      ],
      "stateMutability": "view",
      "type": "function"
    },
    {
      "inputs": [
        {
          "internalType": "address",
          "name": "_to",
          "type": "address"
        },
        {
          "internalType": "uint256",
          "name": "_amount",
          "type": "uint256"
        }
      ],
      "name": "mintReserve",
      "outputs": [],
      "stateMutability": "nonpayable",
      "type": "function"
    },
    {
      "inputs": [],
      "name": "name",
      "outputs": [
        {
          "internalType": "string",
          "name": "",
          "type": "string"
        }
      ],
      "stateMutability": "view",
      "type": "function"
    },
    {
      "inputs": [],
      "name": "owner",
      "outputs": [
        {
          "internalType": "address",
          "name": "",
          "type": "address"
        }
      ],
      "stateMutability": "view",
      "type": "function"
    },
    {
      "inputs": [
        {
          "internalType": "uint256",
          "name": "tokenId",
          "type": "uint256"
        }
      ],
      "name": "ownerOf",
      "outputs": [
        {
          "internalType": "address",
          "name": "",
          "type": "address"
        }
      ],
      "stateMutability": "view",
      "type": "function"
    },
    {
      "inputs": [],
      "name": "price",
      "outputs": [
        {
          "internalType": "uint256",
          "name": "",
          "type": "uint256"
        }
      ],
      "stateMutability": "view",
      "type": "function"
    },
    {
      "inputs": [],
      "name": "renounceOwnership",
      "outputs": [],
      "stateMutability": "nonpayable",
      "type": "function"
    },
    {
      "inputs": [
        {
          "internalType": "bytes32",
          "name": "role",
          "type": "bytes32"
        },
        {
          "internalType": "address",
          "name": "account",
          "type": "address"
        }
      ],
      "name": "renounceRole",
      "outputs": [],
      "stateMutability": "nonpayable",
      "type": "function"
    },
    {
      "inputs": [],
      "name": "reveal",
      "outputs": [],
      "stateMutability": "nonpayable",
      "type": "function"
    },
    {
      "inputs": [],
      "name": "revealed",
      "outputs": [
        {
          "internalType": "bool",
          "name": "",
          "type": "bool"
        }
      ],
      "stateMutability": "view",
      "type": "function"
    },
    {
      "inputs": [
        {
          "internalType": "bytes32",
          "name": "role",
          "type": "bytes32"
        },
        {
          "internalType": "address",
          "name": "account",
          "type": "address"
        }
      ],
      "name": "revokeRole",
      "outputs": [],
      "stateMutability": "nonpayable",
      "type": "function"
    },
    {
      "inputs": [
        {
          "internalType": "address",
          "name": "from",
          "type": "address"
        },
        {
          "internalType": "address",
          "name": "to",
          "type": "address"
        },
        {
          "internalType": "uint256",
          "name": "tokenId",
          "type": "uint256"
        }
      ],
      "name": "safeTransferFrom",
      "outputs": [],
      "stateMutability": "nonpayable",
      "type": "function"
    },
    {
      "inputs": [
        {
          "internalType": "address",
          "name": "from",
          "type": "address"
        },
        {
          "internalType": "address",
          "name": "to",
          "type": "address"
        },
        {
          "internalType": "uint256",
          "name": "tokenId",
          "type": "uint256"
        },
        {
          "internalType": "bytes",
          "name": "_data",
          "type": "bytes"
        }
      ],
      "name": "safeTransferFrom",
      "outputs": [],
      "stateMutability": "nonpayable",
      "type": "function"
    },
    {
      "inputs": [],
      "name": "saleLive",
      "outputs": [
        {
          "internalType": "bool",
          "name": "",
          "type": "bool"
        }
      ],
      "stateMutability": "view",
      "type": "function"
    },
    {
      "inputs": [
        {
          "internalType": "address",
          "name": "_newAdmin",
          "type": "address"
        }
      ],
      "name": "setAdmin",
      "outputs": [],
      "stateMutability": "nonpayable",
      "type": "function"
    },
    {
      "inputs": [
        {
          "internalType": "address",
          "name": "operator",
          "type": "address"
        },
        {
          "internalType": "bool",
          "name": "approved",
          "type": "bool"
        }
      ],
      "name": "setApprovalForAll",
      "outputs": [],
      "stateMutability": "nonpayable",
      "type": "function"
    },
    {
      "inputs": [
        {
          "internalType": "string",
          "name": "_newURI",
          "type": "string"
        }
      ],
      "name": "setBaseURI",
      "outputs": [],
      "stateMutability": "nonpayable",
      "type": "function"
    },
    {
      "inputs": [
        {
          "internalType": "uint256",
          "name": "_newmaxMintAmount",
          "type": "uint256"
        }
      ],
      "name": "setMaxMintAmount",
      "outputs": [],
      "stateMutability": "nonpayable",
      "type": "function"
    },
    {
      "inputs": [
        {
          "internalType": "uint256",
          "name": "_newPrice",
          "type": "uint256"
        }
      ],
      "name": "setPrice",
      "outputs": [],
      "stateMutability": "nonpayable",
      "type": "function"
    },
    {
      "inputs": [
        {
          "internalType": "bytes4",
          "name": "interfaceId",
          "type": "bytes4"
        }
      ],
      "name": "supportsInterface",
      "outputs": [
        {
          "internalType": "bool",
          "name": "",
          "type": "bool"
        }
      ],
      "stateMutability": "view",
      "type": "function"
    },
    {
      "inputs": [],
      "name": "symbol",
      "outputs": [
        {
          "internalType": "string",
          "name": "",
          "type": "string"
        }
      ],
      "stateMutability": "view",
      "type": "function"
    },
    {
      "inputs": [],
      "name": "togglePause",
      "outputs": [],
      "stateMutability": "nonpayable",
      "type": "function"
    },
    {
      "inputs": [],
      "name": "toggleSaleLive",
      "outputs": [],
      "stateMutability": "nonpayable",
      "type": "function"
    },
    {
      "inputs": [
        {
          "internalType": "uint256",
          "name": "index",
          "type": "uint256"
        }
      ],
      "name": "tokenByIndex",
      "outputs": [
        {
          "internalType": "uint256",
          "name": "",
          "type": "uint256"
        }
      ],
      "stateMutability": "view",
      "type": "function"
    },
    {
      "inputs": [
        {
          "internalType": "address",
          "name": "owner",
          "type": "address"
        },
        {
          "internalType": "uint256",
          "name": "index",
          "type": "uint256"
        }
      ],
      "name": "tokenOfOwnerByIndex",
      "outputs": [
        {
          "internalType": "uint256",
          "name": "",
          "type": "uint256"
        }
      ],
      "stateMutability": "view",
      "type": "function"
    },
    {
      "inputs": [
        {
          "internalType": "uint256",
          "name": "tokenId",
          "type": "uint256"
        }
      ],
      "name": "tokenURI",
      "outputs": [
        {
          "internalType": "string",
          "name": "",
          "type": "string"
        }
      ],
      "stateMutability": "view",
      "type": "function"
    },
    {
      "inputs": [
        {
          "internalType": "address",
          "name": "_owner",
          "type": "address"
        }
      ],
      "name": "tokensOfOwner",
      "outputs": [
        {
          "internalType": "uint256[]",
          "name": "",
          "type": "uint256[]"
        }
      ],
      "stateMutability": "view",
      "type": "function"
    },
    {
      "inputs": [],
      "name": "totalMinted",
      "outputs": [
        {
          "internalType": "uint256",
          "name": "",
          "type": "uint256"
        }
      ],
      "stateMutability": "view",
      "type": "function"
    },
    {
      "inputs": [],
      "name": "totalSupply",
      "outputs": [
        {
          "internalType": "uint256",
          "name": "",
          "type": "uint256"
        }
      ],
      "stateMutability": "view",
      "type": "function"
    },
    {
      "inputs": [
        {
          "internalType": "address",
          "name": "from",
          "type": "address"
        },
        {
          "internalType": "address",
          "name": "to",
          "type": "address"
        },
        {
          "internalType": "uint256",
          "name": "tokenId",
          "type": "uint256"
        }
      ],
      "name": "transferFrom",
      "outputs": [],
      "stateMutability": "nonpayable",
      "type": "function"
    },
    {
      "inputs": [
        {
          "internalType": "address",
          "name": "newOwner",
          "type": "address"
        }
      ],
      "name": "transferOwnership",
      "outputs": [],
      "stateMutability": "nonpayable",
      "type": "function"
    },
    {
      "inputs": [],
      "name": "withdraw",
      "outputs": [],
      "stateMutability": "nonpayable",
      "type": "function"
    }
  ],
  "bytecode": "0x608060405261138860105567011c37937e080000601155600560125560146013553480156200002d57600080fd5b50604051620059803803806200598083398181016040528101906200005391906200030f565b6040518060400160405280600b81526020017f43727970746f48756e6b7a0000000000000000000000000000000000000000008152506040518060400160405280600581526020017f48554e4b5a0000000000000000000000000000000000000000000000000000008152508160009080519060200190620000d792919062000248565b508060019080519060200190620000f092919062000248565b5050506001600a819055506200011b6200010f6200017a60201b60201c565b6200018260201b60201c565b6001601560008373ffffffffffffffffffffffffffffffffffffffff1673ffffffffffffffffffffffffffffffffffffffff16815260200190815260200160002060006101000a81548160ff02191690831515021790555050620003ee565b600033905090565b6000600c60009054906101000a900473ffffffffffffffffffffffffffffffffffffffff16905081600c60006101000a81548173ffffffffffffffffffffffffffffffffffffffff021916908373ffffffffffffffffffffffffffffffffffffffff1602179055508173ffffffffffffffffffffffffffffffffffffffff168173ffffffffffffffffffffffffffffffffffffffff167f8be0079c531659141344cd1fd0a4f28419497f9722a3daafe3b4186f6b6457e060405160405180910390a35050565b82805462000256906200036f565b90600052602060002090601f0160209004810192826200027a5760008555620002c6565b82601f106200029557805160ff1916838001178555620002c6565b82800160010185558215620002c6579182015b82811115620002c5578251825591602001919060010190620002a8565b5b509050620002d59190620002d9565b5090565b5b80821115620002f4576000816000905550600101620002da565b5090565b6000815190506200030981620003d4565b92915050565b6000602082840312156200032257600080fd5b60006200033284828501620002f8565b91505092915050565b600062000348826200034f565b9050919050565b600073ffffffffffffffffffffffffffffffffffffffff82169050919050565b600060028204905060018216806200038857607f821691505b602082108114156200039f576200039e620003a5565b5b50919050565b7f4e487b7100000000000000000000000000000000000000000000000000000000600052602260045260246000fd5b620003df816200033b565b8114620003eb57600080fd5b50565b61558280620003fe6000396000f3fe60806040526004361061027d5760003560e01c8063715018a61161014f578063a22cb465116100c1578063c87b56dd1161007a578063c87b56dd14610977578063d547741f146109b4578063d9915d9b146109dd578063e081b781146109f4578063e985e9c514610a1f578063f2fde38b14610a5c5761027d565b8063a22cb465146108a1578063a2309ff8146108ca578063a475b5dd146108f5578063aa592f251461090c578063b88d4fde14610937578063c4ae3168146109605761027d565b8063902d55a511610113578063902d55a51461078f57806391b7f5ed146107ba57806391d14854146107e357806395d89b4114610820578063a035b1fe1461084b578063a217fddf146108765761027d565b8063715018a6146106bc5780637e4831d3146106d35780638462151c146106fe5780638da5cb5b1461073b5780638e825be0146107665761027d565b80633340bede116101f357806351830227116101ac578063518302271461059a57806355f804b3146105c55780636352211e146105ee5780636373a6b11461062b578063704b6c021461065657806370a082311461067f5761027d565b80633340bede1461049b57806336568abe146104b75780633ccfd60b146104e057806342842e0e146104f7578063429b62e5146105205780634f6ccce71461055d5761027d565b806318160ddd1161024557806318160ddd14610379578063239c70ae146103a457806323b872dd146103cf578063248a9ca3146103f85780632f2ff15d146104355780632f745c591461045e5761027d565b806301ffc9a71461028257806306fdde03146102bf578063081812fc146102ea578063088a4ed014610327578063095ea7b314610350575b600080fd5b34801561028e57600080fd5b506102a960048036038101906102a49190613ec3565b610a85565b6040516102b6919061459e565b60405180910390f35b3480156102cb57600080fd5b506102d4610aff565b6040516102e191906145d4565b60405180910390f35b3480156102f657600080fd5b50610311600480360381019061030c9190613f56565b610b91565b60405161031e9190614515565b60405180910390f35b34801561033357600080fd5b5061034e60048036038101906103499190613f56565b610c16565b005b34801561035c57600080fd5b5061037760048036038101906103729190613e22565b610cac565b005b34801561038557600080fd5b5061038e610dc4565b60405161039b9190614936565b60405180910390f35b3480156103b057600080fd5b506103b9610dd1565b6040516103c69190614936565b60405180910390f35b3480156103db57600080fd5b506103f660048036038101906103f19190613d1c565b610dd7565b005b34801561040457600080fd5b5061041f600480360381019061041a9190613e5e565b610e37565b60405161042c91906145b9565b60405180910390f35b34801561044157600080fd5b5061045c60048036038101906104579190613e87565b610e57565b005b34801561046a57600080fd5b5061048560048036038101906104809190613e22565b610e80565b6040516104929190614936565b60405180910390f35b6104b560048036038101906104b09190613f56565b610f25565b005b3480156104c357600080fd5b506104de60048036038101906104d99190613e87565b611101565b005b3480156104ec57600080fd5b506104f5611184565b005b34801561050357600080fd5b5061051e60048036038101906105199190613d1c565b611259565b005b34801561052c57600080fd5b5061054760048036038101906105429190613cb7565b611279565b604051610554919061459e565b60405180910390f35b34801561056957600080fd5b50610584600480360381019061057f9190613f56565b611299565b6040516105919190614936565b60405180910390f35b3480156105a657600080fd5b506105af611330565b6040516105bc919061459e565b60405180910390f35b3480156105d157600080fd5b506105ec60048036038101906105e79190613f15565b611343565b005b3480156105fa57600080fd5b5061061560048036038101906106109190613f56565b6113e9565b6040516106229190614515565b60405180910390f35b34801561063757600080fd5b5061064061149b565b60405161064d91906145d4565b60405180910390f35b34801561066257600080fd5b5061067d60048036038101906106789190613cb7565b611529565b005b34801561068b57600080fd5b506106a660048036038101906106a19190613cb7565b611600565b6040516106b39190614936565b60405180910390f35b3480156106c857600080fd5b506106d16116b8565b005b3480156106df57600080fd5b506106e8611740565b6040516106f5919061459e565b60405180910390f35b34801561070a57600080fd5b5061072560048036038101906107209190613cb7565b611753565b604051610732919061457c565b60405180910390f35b34801561074757600080fd5b506107506118cf565b60405161075d9190614515565b60405180910390f35b34801561077257600080fd5b5061078d60048036038101906107889190613e22565b6118f9565b005b34801561079b57600080fd5b506107a4611a5d565b6040516107b19190614936565b60405180910390f35b3480156107c657600080fd5b506107e160048036038101906107dc9190613f56565b611a63565b005b3480156107ef57600080fd5b5061080a60048036038101906108059190613e87565b611af9565b604051610817919061459e565b60405180910390f35b34801561082c57600080fd5b50610835611b64565b60405161084291906145d4565b60405180910390f35b34801561085757600080fd5b50610860611bf6565b60405161086d9190614936565b60405180910390f35b34801561088257600080fd5b5061088b611bfc565b60405161089891906145b9565b60405180910390f35b3480156108ad57600080fd5b506108c860048036038101906108c39190613de6565b611c03565b005b3480156108d657600080fd5b506108df611c19565b6040516108ec9190614936565b60405180910390f35b34801561090157600080fd5b5061090a611c1f565b005b34801561091857600080fd5b50610921611cc8565b60405161092e9190614936565b60405180910390f35b34801561094357600080fd5b5061095e60048036038101906109599190613d6b565b611cce565b005b34801561096c57600080fd5b50610975611d30565b005b34801561098357600080fd5b5061099e60048036038101906109999190613f56565b611de8565b6040516109ab91906145d4565b60405180910390f35b3480156109c057600080fd5b506109db60048036038101906109d69190613e87565b611e8f565b005b3480156109e957600080fd5b506109f2611eb8565b005b348015610a0057600080fd5b50610a09611f70565b604051610a16919061459e565b60405180910390f35b348015610a2b57600080fd5b50610a466004803603810190610a419190613ce0565b611f83565b604051610a53919061459e565b60405180910390f35b348015610a6857600080fd5b50610a836004803603810190610a7e9190613cb7565b612017565b005b60007f7965db0b000000000000000000000000000000000000000000000000000000007bffffffffffffffffffffffffffffffffffffffffffffffffffffffff1916827bffffffffffffffffffffffffffffffffffffffffffffffffffffffff19161480610af85750610af78261210f565b5b9050919050565b606060008054610b0e90614c53565b80601f0160208091040260200160405190810160405280929190818152602001828054610b3a90614c53565b8015610b875780601f10610b5c57610100808354040283529160200191610b87565b820191906000526020600020905b815481529060010190602001808311610b6a57829003601f168201915b5050505050905090565b6000610b9c82612189565b610bdb576040517f08c379a0000000000000000000000000000000000000000000000000000000008152600401610bd2906147d6565b60405180910390fd5b6004600083815260200190815260200160002060009054906101000a900473ffffffffffffffffffffffffffffffffffffffff169050919050565b601560003373ffffffffffffffffffffffffffffffffffffffff1673ffffffffffffffffffffffffffffffffffffffff16815260200190815260200160002060009054906101000a900460ff16610ca2576040517f08c379a0000000000000000000000000000000000000000000000000000000008152600401610c9990614636565b60405180910390fd5b8060128190555050565b6000610cb7826113e9565b90508073ffffffffffffffffffffffffffffffffffffffff168373ffffffffffffffffffffffffffffffffffffffff161415610d28576040517f08c379a0000000000000000000000000000000000000000000000000000000008152600401610d1f90614856565b60405180910390fd5b8073ffffffffffffffffffffffffffffffffffffffff16610d476121f5565b73ffffffffffffffffffffffffffffffffffffffff161480610d765750610d7581610d706121f5565b611f83565b5b610db5576040517f08c379a0000000000000000000000000000000000000000000000000000000008152600401610dac90614756565b60405180910390fd5b610dbf83836121fd565b505050565b6000600880549050905090565b60125481565b610de8610de26121f5565b826122b6565b610e27576040517f08c379a0000000000000000000000000000000000000000000000000000000008152600401610e1e90614876565b60405180910390fd5b610e32838383612394565b505050565b6000600b6000838152602001908152602001600020600101549050919050565b610e6082610e37565b610e7181610e6c6121f5565b6125f0565b610e7b838361268d565b505050565b6000610e8b83611600565b8210610ecc576040517f08c379a0000000000000000000000000000000000000000000000000000000008152600401610ec390614656565b60405180910390fd5b600660008473ffffffffffffffffffffffffffffffffffffffff1673ffffffffffffffffffffffffffffffffffffffff168152602001908152602001600020600083815260200190815260200160002054905092915050565b6002600a541415610f6b576040517f08c379a0000000000000000000000000000000000000000000000000000000008152600401610f62906148f6565b60405180910390fd5b6002600a8190555060001515601660029054906101000a900460ff16151514610f9357600080fd5b60038111158015610fa45750600081115b610fe3576040517f08c379a0000000000000000000000000000000000000000000000000000000008152600401610fda906146d6565b60405180910390fd5b60105481600f54610ff49190614a54565b1115611035576040517f08c379a000000000000000000000000000000000000000000000000000000000815260040161102c90614896565b60405180910390fd5b61104a8160115461276e90919063ffffffff16565b341461108b576040517f08c379a0000000000000000000000000000000000000000000000000000000008152600401611082906148b6565b60405180910390fd5b6000600190505b8181116110f5576110a3600e612784565b60006110af600e61279a565b90506110bb33826127a8565b6110c481611de8565b506110db6001600f546127c690919063ffffffff16565b600f819055505080806110ed90614cb6565b915050611092565b506001600a8190555050565b6111096121f5565b73ffffffffffffffffffffffffffffffffffffffff168173ffffffffffffffffffffffffffffffffffffffff1614611176576040517f08c379a000000000000000000000000000000000000000000000000000000000815260040161116d90614916565b60405180910390fd5b61118082826127dc565b5050565b601560003373ffffffffffffffffffffffffffffffffffffffff1673ffffffffffffffffffffffffffffffffffffffff16815260200190815260200160002060009054906101000a900460ff16611210576040517f08c379a000000000000000000000000000000000000000000000000000000000815260040161120790614636565b60405180910390fd5b3373ffffffffffffffffffffffffffffffffffffffff166108fc479081150290604051600060405180830381858888f19350505050158015611256573d6000803e3d6000fd5b50565b61127483838360405180602001604052806000815250611cce565b505050565b60156020528060005260406000206000915054906101000a900460ff1681565b60006112a3610dc4565b82106112e4576040517f08c379a00000000000000000000000000000000000000000000000000000000081526004016112db906148d6565b60405180910390fd5b6008828154811061131e577f4e487b7100000000000000000000000000000000000000000000000000000000600052603260045260246000fd5b90600052602060002001549050919050565b601660019054906101000a900460ff1681565b601560003373ffffffffffffffffffffffffffffffffffffffff1673ffffffffffffffffffffffffffffffffffffffff16815260200190815260200160002060009054906101000a900460ff166113cf576040517f08c379a00000000000000000000000000000000000000000000000000000000081526004016113c690614636565b60405180910390fd5b80600d90805190602001906113e5929190613ac6565b5050565b6000806002600084815260200190815260200160002060009054906101000a900473ffffffffffffffffffffffffffffffffffffffff169050600073ffffffffffffffffffffffffffffffffffffffff168173ffffffffffffffffffffffffffffffffffffffff161415611492576040517f08c379a000000000000000000000000000000000000000000000000000000000815260040161148990614796565b60405180910390fd5b80915050919050565b601480546114a890614c53565b80601f01602080910402602001604051908101604052809291908181526020018280546114d490614c53565b80156115215780601f106114f657610100808354040283529160200191611521565b820191906000526020600020905b81548152906001019060200180831161150457829003601f168201915b505050505081565b6115316121f5565b73ffffffffffffffffffffffffffffffffffffffff1661154f6118cf565b73ffffffffffffffffffffffffffffffffffffffff16146115a5576040517f08c379a000000000000000000000000000000000000000000000000000000000815260040161159c906147f6565b60405180910390fd5b6001601560008373ffffffffffffffffffffffffffffffffffffffff1673ffffffffffffffffffffffffffffffffffffffff16815260200190815260200160002060006101000a81548160ff02191690831515021790555050565b60008073ffffffffffffffffffffffffffffffffffffffff168273ffffffffffffffffffffffffffffffffffffffff161415611671576040517f08c379a000000000000000000000000000000000000000000000000000000000815260040161166890614776565b60405180910390fd5b600360008373ffffffffffffffffffffffffffffffffffffffff1673ffffffffffffffffffffffffffffffffffffffff168152602001908152602001600020549050919050565b6116c06121f5565b73ffffffffffffffffffffffffffffffffffffffff166116de6118cf565b73ffffffffffffffffffffffffffffffffffffffff1614611734576040517f08c379a000000000000000000000000000000000000000000000000000000000815260040161172b906147f6565b60405180910390fd5b61173e60006128be565b565b601660029054906101000a900460ff1681565b6060600061176083611600565b905060008114156117e357600067ffffffffffffffff8111156117ac577f4e487b7100000000000000000000000000000000000000000000000000000000600052604160045260246000fd5b6040519080825280602002602001820160405280156117da5781602001602082028036833780820191505090505b509150506118ca565b60008167ffffffffffffffff811115611825577f4e487b7100000000000000000000000000000000000000000000000000000000600052604160045260246000fd5b6040519080825280602002602001820160405280156118535781602001602082028036833780820191505090505b50905060005b828110156118c35761186b8582610e80565b8282815181106118a4577f4e487b7100000000000000000000000000000000000000000000000000000000600052603260045260246000fd5b60200260200101818152505080806118bb90614cb6565b915050611859565b5080925050505b919050565b6000600c60009054906101000a900473ffffffffffffffffffffffffffffffffffffffff16905090565b601560003373ffffffffffffffffffffffffffffffffffffffff1673ffffffffffffffffffffffffffffffffffffffff16815260200190815260200160002060009054906101000a900460ff16611985576040517f08c379a000000000000000000000000000000000000000000000000000000000815260040161197c90614636565b60405180910390fd5b60008111801561199757506013548111155b6119d6576040517f08c379a00000000000000000000000000000000000000000000000000000000081526004016119cd906145f6565b60405180910390fd5b60005b81811015611a3d576119eb600e612784565b60006119f7600e61279a565b9050611a0384826127a8565b611a0c81611de8565b50611a236001600f546127c690919063ffffffff16565b600f81905550508080611a3590614cb6565b9150506119d9565b50611a538160135461298490919063ffffffff16565b6013819055505050565b60105481565b601560003373ffffffffffffffffffffffffffffffffffffffff1673ffffffffffffffffffffffffffffffffffffffff16815260200190815260200160002060009054906101000a900460ff16611aef576040517f08c379a0000000000000000000000000000000000000000000000000000000008152600401611ae690614636565b60405180910390fd5b8060118190555050565b6000600b600084815260200190815260200160002060000160008373ffffffffffffffffffffffffffffffffffffffff1673ffffffffffffffffffffffffffffffffffffffff16815260200190815260200160002060009054906101000a900460ff16905092915050565b606060018054611b7390614c53565b80601f0160208091040260200160405190810160405280929190818152602001828054611b9f90614c53565b8015611bec5780601f10611bc157610100808354040283529160200191611bec565b820191906000526020600020905b815481529060010190602001808311611bcf57829003601f168201915b5050505050905090565b60115481565b6000801b81565b611c15611c0e6121f5565b838361299a565b5050565b600f5481565b601560003373ffffffffffffffffffffffffffffffffffffffff1673ffffffffffffffffffffffffffffffffffffffff16815260200190815260200160002060009054906101000a900460ff16611cab576040517f08c379a0000000000000000000000000000000000000000000000000000000008152600401611ca290614636565b60405180910390fd5b6001601660016101000a81548160ff021916908315150217905550565b60135481565b611cdf611cd96121f5565b836122b6565b611d1e576040517f08c379a0000000000000000000000000000000000000000000000000000000008152600401611d1590614876565b60405180910390fd5b611d2a84848484612b07565b50505050565b601560003373ffffffffffffffffffffffffffffffffffffffff1673ffffffffffffffffffffffffffffffffffffffff16815260200190815260200160002060009054906101000a900460ff16611dbc576040517f08c379a0000000000000000000000000000000000000000000000000000000008152600401611db390614636565b60405180910390fd5b601660029054906101000a900460ff1615601660026101000a81548160ff021916908315150217905550565b6060611df382612189565b611e32576040517f08c379a0000000000000000000000000000000000000000000000000000000008152600401611e2990614836565b60405180910390fd5b6000611e3c612b63565b90506000815111611e5c5760405180602001604052806000815250611e87565b80611e6684612bf5565b604051602001611e779291906144b7565b6040516020818303038152906040525b915050919050565b611e9882610e37565b611ea981611ea46121f5565b6125f0565b611eb383836127dc565b505050565b601560003373ffffffffffffffffffffffffffffffffffffffff1673ffffffffffffffffffffffffffffffffffffffff16815260200190815260200160002060009054906101000a900460ff16611f44576040517f08c379a0000000000000000000000000000000000000000000000000000000008152600401611f3b90614636565b60405180910390fd5b601660009054906101000a900460ff1615601660006101000a81548160ff021916908315150217905550565b601660009054906101000a900460ff1681565b6000600560008473ffffffffffffffffffffffffffffffffffffffff1673ffffffffffffffffffffffffffffffffffffffff16815260200190815260200160002060008373ffffffffffffffffffffffffffffffffffffffff1673ffffffffffffffffffffffffffffffffffffffff16815260200190815260200160002060009054906101000a900460ff16905092915050565b61201f6121f5565b73ffffffffffffffffffffffffffffffffffffffff1661203d6118cf565b73ffffffffffffffffffffffffffffffffffffffff1614612093576040517f08c379a000000000000000000000000000000000000000000000000000000000815260040161208a906147f6565b60405180910390fd5b600073ffffffffffffffffffffffffffffffffffffffff168173ffffffffffffffffffffffffffffffffffffffff161415612103576040517f08c379a00000000000000000000000000000000000000000000000000000000081526004016120fa90614696565b60405180910390fd5b61210c816128be565b50565b60007f7965db0b000000000000000000000000000000000000000000000000000000007bffffffffffffffffffffffffffffffffffffffffffffffffffffffff1916827bffffffffffffffffffffffffffffffffffffffffffffffffffffffff19161480612182575061218182612da2565b5b9050919050565b60008073ffffffffffffffffffffffffffffffffffffffff166002600084815260200190815260200160002060009054906101000a900473ffffffffffffffffffffffffffffffffffffffff1673ffffffffffffffffffffffffffffffffffffffff1614159050919050565b600033905090565b816004600083815260200190815260200160002060006101000a81548173ffffffffffffffffffffffffffffffffffffffff021916908373ffffffffffffffffffffffffffffffffffffffff160217905550808273ffffffffffffffffffffffffffffffffffffffff16612270836113e9565b73ffffffffffffffffffffffffffffffffffffffff167f8c5be1e5ebec7d5bd14f71427d1e84f3dd0314c0f7b2291e5b200ac8c7c3b92560405160405180910390a45050565b60006122c182612189565b612300576040517f08c379a00000000000000000000000000000000000000000000000000000000081526004016122f790614736565b60405180910390fd5b600061230b836113e9565b90508073ffffffffffffffffffffffffffffffffffffffff168473ffffffffffffffffffffffffffffffffffffffff16148061237a57508373ffffffffffffffffffffffffffffffffffffffff1661236284610b91565b73ffffffffffffffffffffffffffffffffffffffff16145b8061238b575061238a8185611f83565b5b91505092915050565b8273ffffffffffffffffffffffffffffffffffffffff166123b4826113e9565b73ffffffffffffffffffffffffffffffffffffffff161461240a576040517f08c379a000000000000000000000000000000000000000000000000000000000815260040161240190614816565b60405180910390fd5b600073ffffffffffffffffffffffffffffffffffffffff168273ffffffffffffffffffffffffffffffffffffffff16141561247a576040517f08c379a0000000000000000000000000000000000000000000000000000000008152600401612471906146f6565b60405180910390fd5b612485838383612e1c565b6124906000826121fd565b6001600360008573ffffffffffffffffffffffffffffffffffffffff1673ffffffffffffffffffffffffffffffffffffffff16815260200190815260200160002060008282546124e09190614b35565b925050819055506001600360008473ffffffffffffffffffffffffffffffffffffffff1673ffffffffffffffffffffffffffffffffffffffff16815260200190815260200160002060008282546125379190614a54565b92505081905550816002600083815260200190815260200160002060006101000a81548173ffffffffffffffffffffffffffffffffffffffff021916908373ffffffffffffffffffffffffffffffffffffffff160217905550808273ffffffffffffffffffffffffffffffffffffffff168473ffffffffffffffffffffffffffffffffffffffff167fddf252ad1be2c89b69c2b068fc378daa952ba7f163c4a11628f55a4df523b3ef60405160405180910390a4505050565b6125fa8282611af9565b6126895761261f8173ffffffffffffffffffffffffffffffffffffffff166014612f30565b61262d8360001c6020612f30565b60405160200161263e9291906144db565b6040516020818303038152906040526040517f08c379a000000000000000000000000000000000000000000000000000000000815260040161268091906145d4565b60405180910390fd5b5050565b6126978282611af9565b61276a576001600b600084815260200190815260200160002060000160008373ffffffffffffffffffffffffffffffffffffffff1673ffffffffffffffffffffffffffffffffffffffff16815260200190815260200160002060006101000a81548160ff02191690831515021790555061270f6121f5565b73ffffffffffffffffffffffffffffffffffffffff168173ffffffffffffffffffffffffffffffffffffffff16837f2f8788117e7eff1d82e926ec794901d17c78024a50270940304540a733656f0d60405160405180910390a45b5050565b6000818361277c9190614adb565b905092915050565b6001816000016000828254019250508190555050565b600081600001549050919050565b6127c282826040518060200160405280600081525061322a565b5050565b600081836127d49190614a54565b905092915050565b6127e68282611af9565b156128ba576000600b600084815260200190815260200160002060000160008373ffffffffffffffffffffffffffffffffffffffff1673ffffffffffffffffffffffffffffffffffffffff16815260200190815260200160002060006101000a81548160ff02191690831515021790555061285f6121f5565b73ffffffffffffffffffffffffffffffffffffffff168173ffffffffffffffffffffffffffffffffffffffff16837ff6391f5c32d9c69d2a47ea670b442974b53935d1edc7fd64eb21e047a839171b60405160405180910390a45b5050565b6000600c60009054906101000a900473ffffffffffffffffffffffffffffffffffffffff16905081600c60006101000a81548173ffffffffffffffffffffffffffffffffffffffff021916908373ffffffffffffffffffffffffffffffffffffffff1602179055508173ffffffffffffffffffffffffffffffffffffffff168173ffffffffffffffffffffffffffffffffffffffff167f8be0079c531659141344cd1fd0a4f28419497f9722a3daafe3b4186f6b6457e060405160405180910390a35050565b600081836129929190614b35565b905092915050565b8173ffffffffffffffffffffffffffffffffffffffff168373ffffffffffffffffffffffffffffffffffffffff161415612a09576040517f08c379a0000000000000000000000000000000000000000000000000000000008152600401612a0090614716565b60405180910390fd5b80600560008573ffffffffffffffffffffffffffffffffffffffff1673ffffffffffffffffffffffffffffffffffffffff16815260200190815260200160002060008473ffffffffffffffffffffffffffffffffffffffff1673ffffffffffffffffffffffffffffffffffffffff16815260200190815260200160002060006101000a81548160ff0219169083151502179055508173ffffffffffffffffffffffffffffffffffffffff168373ffffffffffffffffffffffffffffffffffffffff167f17307eab39ab6107e8899845ad3d59bd9653f200f220920489ca2b5937696c3183604051612afa919061459e565b60405180910390a3505050565b612b12848484612394565b612b1e84848484613285565b612b5d576040517f08c379a0000000000000000000000000000000000000000000000000000000008152600401612b5490614676565b60405180910390fd5b50505050565b6060600d8054612b7290614c53565b80601f0160208091040260200160405190810160405280929190818152602001828054612b9e90614c53565b8015612beb5780601f10612bc057610100808354040283529160200191612beb565b820191906000526020600020905b815481529060010190602001808311612bce57829003601f168201915b5050505050905090565b60606000821415612c3d576040518060400160405280600181526020017f30000000000000000000000000000000000000000000000000000000000000008152509050612d9d565b600082905060005b60008214612c6f578080612c5890614cb6565b915050600a82612c689190614aaa565b9150612c45565b60008167ffffffffffffffff811115612cb1577f4e487b7100000000000000000000000000000000000000000000000000000000600052604160045260246000fd5b6040519080825280601f01601f191660200182016040528015612ce35781602001600182028036833780820191505090505b5090505b60008514612d9657600182612cfc9190614b35565b9150600a85612d0b9190614cff565b6030612d179190614a54565b60f81b818381518110612d53577f4e487b7100000000000000000000000000000000000000000000000000000000600052603260045260246000fd5b60200101907effffffffffffffffffffffffffffffffffffffffffffffffffffffffffffff1916908160001a905350600a85612d8f9190614aaa565b9450612ce7565b8093505050505b919050565b60007f780e9d63000000000000000000000000000000000000000000000000000000007bffffffffffffffffffffffffffffffffffffffffffffffffffffffff1916827bffffffffffffffffffffffffffffffffffffffffffffffffffffffff19161480612e155750612e148261341c565b5b9050919050565b612e278383836134fe565b600073ffffffffffffffffffffffffffffffffffffffff168373ffffffffffffffffffffffffffffffffffffffff161415612e6a57612e6581613503565b612ea9565b8173ffffffffffffffffffffffffffffffffffffffff168373ffffffffffffffffffffffffffffffffffffffff1614612ea857612ea7838261354c565b5b5b600073ffffffffffffffffffffffffffffffffffffffff168273ffffffffffffffffffffffffffffffffffffffff161415612eec57612ee7816136b9565b612f2b565b8273ffffffffffffffffffffffffffffffffffffffff168273ffffffffffffffffffffffffffffffffffffffff1614612f2a57612f2982826137fc565b5b5b505050565b606060006002836002612f439190614adb565b612f4d9190614a54565b67ffffffffffffffff811115612f8c577f4e487b7100000000000000000000000000000000000000000000000000000000600052604160045260246000fd5b6040519080825280601f01601f191660200182016040528015612fbe5781602001600182028036833780820191505090505b5090507f30000000000000000000000000000000000000000000000000000000000000008160008151811061301c577f4e487b7100000000000000000000000000000000000000000000000000000000600052603260045260246000fd5b60200101907effffffffffffffffffffffffffffffffffffffffffffffffffffffffffffff1916908160001a9053507f7800000000000000000000000000000000000000000000000000000000000000816001815181106130a6577f4e487b7100000000000000000000000000000000000000000000000000000000600052603260045260246000fd5b60200101907effffffffffffffffffffffffffffffffffffffffffffffffffffffffffffff1916908160001a905350600060018460026130e69190614adb565b6130f09190614a54565b90505b60018111156131dc577f3031323334353637383961626364656600000000000000000000000000000000600f861660108110613158577f4e487b7100000000000000000000000000000000000000000000000000000000600052603260045260246000fd5b1a60f81b828281518110613195577f4e487b7100000000000000000000000000000000000000000000000000000000600052603260045260246000fd5b60200101907effffffffffffffffffffffffffffffffffffffffffffffffffffffffffffff1916908160001a905350600485901c9450806131d590614c29565b90506130f3565b5060008414613220576040517f08c379a000000000000000000000000000000000000000000000000000000000815260040161321790614616565b60405180910390fd5b8091505092915050565b613234838361387b565b6132416000848484613285565b613280576040517f08c379a000000000000000000000000000000000000000000000000000000000815260040161327790614676565b60405180910390fd5b505050565b60006132a68473ffffffffffffffffffffffffffffffffffffffff16613a49565b1561340f578373ffffffffffffffffffffffffffffffffffffffff1663150b7a026132cf6121f5565b8786866040518563ffffffff1660e01b81526004016132f19493929190614530565b602060405180830381600087803b15801561330b57600080fd5b505af192505050801561333c57506040513d601f19601f820116820180604052508101906133399190613eec565b60015b6133bf573d806000811461336c576040519150601f19603f3d011682016040523d82523d6000602084013e613371565b606091505b506000815114156133b7576040517f08c379a00000000000000000000000000000000000000000000000000000000081526004016133ae90614676565b60405180910390fd5b805181602001fd5b63150b7a0260e01b7bffffffffffffffffffffffffffffffffffffffffffffffffffffffff1916817bffffffffffffffffffffffffffffffffffffffffffffffffffffffff191614915050613414565b600190505b949350505050565b60007f80ac58cd000000000000000000000000000000000000000000000000000000007bffffffffffffffffffffffffffffffffffffffffffffffffffffffff1916827bffffffffffffffffffffffffffffffffffffffffffffffffffffffff191614806134e757507f5b5e139f000000000000000000000000000000000000000000000000000000007bffffffffffffffffffffffffffffffffffffffffffffffffffffffff1916827bffffffffffffffffffffffffffffffffffffffffffffffffffffffff1916145b806134f757506134f682613a5c565b5b9050919050565b505050565b6008805490506009600083815260200190815260200160002081905550600881908060018154018082558091505060019003906000526020600020016000909190919091505550565b6000600161355984611600565b6135639190614b35565b9050600060076000848152602001908152602001600020549050818114613648576000600660008673ffffffffffffffffffffffffffffffffffffffff1673ffffffffffffffffffffffffffffffffffffffff168152602001908152602001600020600084815260200190815260200160002054905080600660008773ffffffffffffffffffffffffffffffffffffffff1673ffffffffffffffffffffffffffffffffffffffff168152602001908152602001600020600084815260200190815260200160002081905550816007600083815260200190815260200160002081905550505b6007600084815260200190815260200160002060009055600660008573ffffffffffffffffffffffffffffffffffffffff1673ffffffffffffffffffffffffffffffffffffffff16815260200190815260200160002060008381526020019081526020016000206000905550505050565b600060016008805490506136cd9190614b35565b9050600060096000848152602001908152602001600020549050600060088381548110613723577f4e487b7100000000000000000000000000000000000000000000000000000000600052603260045260246000fd5b90600052602060002001549050806008838154811061376b577f4e487b7100000000000000000000000000000000000000000000000000000000600052603260045260246000fd5b9060005260206000200181905550816009600083815260200190815260200160002081905550600960008581526020019081526020016000206000905560088054806137e0577f4e487b7100000000000000000000000000000000000000000000000000000000600052603160045260246000fd5b6001900381819060005260206000200160009055905550505050565b600061380783611600565b905081600660008573ffffffffffffffffffffffffffffffffffffffff1673ffffffffffffffffffffffffffffffffffffffff168152602001908152602001600020600083815260200190815260200160002081905550806007600084815260200190815260200160002081905550505050565b600073ffffffffffffffffffffffffffffffffffffffff168273ffffffffffffffffffffffffffffffffffffffff1614156138eb576040517f08c379a00000000000000000000000000000000000000000000000000000000081526004016138e2906147b6565b60405180910390fd5b6138f481612189565b15613934576040517f08c379a000000000000000000000000000000000000000000000000000000000815260040161392b906146b6565b60405180910390fd5b61394060008383612e1c565b6001600360008473ffffffffffffffffffffffffffffffffffffffff1673ffffffffffffffffffffffffffffffffffffffff16815260200190815260200160002060008282546139909190614a54565b92505081905550816002600083815260200190815260200160002060006101000a81548173ffffffffffffffffffffffffffffffffffffffff021916908373ffffffffffffffffffffffffffffffffffffffff160217905550808273ffffffffffffffffffffffffffffffffffffffff16600073ffffffffffffffffffffffffffffffffffffffff167fddf252ad1be2c89b69c2b068fc378daa952ba7f163c4a11628f55a4df523b3ef60405160405180910390a45050565b600080823b905060008111915050919050565b60007f01ffc9a7000000000000000000000000000000000000000000000000000000007bffffffffffffffffffffffffffffffffffffffffffffffffffffffff1916827bffffffffffffffffffffffffffffffffffffffffffffffffffffffff1916149050919050565b828054613ad290614c53565b90600052602060002090601f016020900481019282613af45760008555613b3b565b82601f10613b0d57805160ff1916838001178555613b3b565b82800160010185558215613b3b579182015b82811115613b3a578251825591602001919060010190613b1f565b5b509050613b489190613b4c565b5090565b5b80821115613b65576000816000905550600101613b4d565b5090565b6000613b7c613b7784614976565b614951565b905082815260208101848484011115613b9457600080fd5b613b9f848285614be7565b509392505050565b6000613bba613bb5846149a7565b614951565b905082815260208101848484011115613bd257600080fd5b613bdd848285614be7565b509392505050565b600081359050613bf4816154d9565b92915050565b600081359050613c09816154f0565b92915050565b600081359050613c1e81615507565b92915050565b600081359050613c338161551e565b92915050565b600081519050613c488161551e565b92915050565b600082601f830112613c5f57600080fd5b8135613c6f848260208601613b69565b91505092915050565b600082601f830112613c8957600080fd5b8135613c99848260208601613ba7565b91505092915050565b600081359050613cb181615535565b92915050565b600060208284031215613cc957600080fd5b6000613cd784828501613be5565b91505092915050565b60008060408385031215613cf357600080fd5b6000613d0185828601613be5565b9250506020613d1285828601613be5565b9150509250929050565b600080600060608486031215613d3157600080fd5b6000613d3f86828701613be5565b9350506020613d5086828701613be5565b9250506040613d6186828701613ca2565b9150509250925092565b60008060008060808587031215613d8157600080fd5b6000613d8f87828801613be5565b9450506020613da087828801613be5565b9350506040613db187828801613ca2565b925050606085013567ffffffffffffffff811115613dce57600080fd5b613dda87828801613c4e565b91505092959194509250565b60008060408385031215613df957600080fd5b6000613e0785828601613be5565b9250506020613e1885828601613bfa565b9150509250929050565b60008060408385031215613e3557600080fd5b6000613e4385828601613be5565b9250506020613e5485828601613ca2565b9150509250929050565b600060208284031215613e7057600080fd5b6000613e7e84828501613c0f565b91505092915050565b60008060408385031215613e9a57600080fd5b6000613ea885828601613c0f565b9250506020613eb985828601613be5565b9150509250929050565b600060208284031215613ed557600080fd5b6000613ee384828501613c24565b91505092915050565b600060208284031215613efe57600080fd5b6000613f0c84828501613c39565b91505092915050565b600060208284031215613f2757600080fd5b600082013567ffffffffffffffff811115613f4157600080fd5b613f4d84828501613c78565b91505092915050565b600060208284031215613f6857600080fd5b6000613f7684828501613ca2565b91505092915050565b6000613f8b8383614499565b60208301905092915050565b613fa081614b69565b82525050565b6000613fb1826149e8565b613fbb8185614a16565b9350613fc6836149d8565b8060005b83811015613ff7578151613fde8882613f7f565b9750613fe983614a09565b925050600181019050613fca565b5085935050505092915050565b61400d81614b7b565b82525050565b61401c81614b87565b82525050565b600061402d826149f3565b6140378185614a27565b9350614047818560208601614bf6565b61405081614dec565b840191505092915050565b6000614066826149fe565b6140708185614a38565b9350614080818560208601614bf6565b61408981614dec565b840191505092915050565b600061409f826149fe565b6140a98185614a49565b93506140b9818560208601614bf6565b80840191505092915050565b60006140d2601183614a38565b91506140dd82614dfd565b602082019050919050565b60006140f5602083614a38565b915061410082614e26565b602082019050919050565b6000614118602283614a38565b915061412382614e4f565b604082019050919050565b600061413b602b83614a38565b915061414682614e9e565b604082019050919050565b600061415e603283614a38565b915061416982614eed565b604082019050919050565b6000614181602683614a38565b915061418c82614f3c565b604082019050919050565b60006141a4601c83614a38565b91506141af82614f8b565b602082019050919050565b60006141c7600e83614a38565b91506141d282614fb4565b602082019050919050565b60006141ea602483614a38565b91506141f582614fdd565b604082019050919050565b600061420d601983614a38565b91506142188261502c565b602082019050919050565b6000614230602c83614a38565b915061423b82615055565b604082019050919050565b6000614253603883614a38565b915061425e826150a4565b604082019050919050565b6000614276602a83614a38565b9150614281826150f3565b604082019050919050565b6000614299602983614a38565b91506142a482615142565b604082019050919050565b60006142bc602083614a38565b91506142c782615191565b602082019050919050565b60006142df602c83614a38565b91506142ea826151ba565b604082019050919050565b6000614302602083614a38565b915061430d82615209565b602082019050919050565b6000614325602983614a38565b915061433082615232565b604082019050919050565b6000614348602f83614a38565b915061435382615281565b604082019050919050565b600061436b602183614a38565b9150614376826152d0565b604082019050919050565b600061438e603183614a38565b91506143998261531f565b604082019050919050565b60006143b1600883614a38565b91506143bc8261536e565b602082019050919050565b60006143d4601983614a38565b91506143df82615397565b602082019050919050565b60006143f7602c83614a38565b9150614402826153c0565b604082019050919050565b600061441a601783614a49565b91506144258261540f565b601782019050919050565b600061443d601f83614a38565b915061444882615438565b602082019050919050565b6000614460601183614a49565b915061446b82615461565b601182019050919050565b6000614483602f83614a38565b915061448e8261548a565b604082019050919050565b6144a281614bdd565b82525050565b6144b181614bdd565b82525050565b60006144c38285614094565b91506144cf8284614094565b91508190509392505050565b60006144e68261440d565b91506144f28285614094565b91506144fd82614453565b91506145098284614094565b91508190509392505050565b600060208201905061452a6000830184613f97565b92915050565b60006080820190506145456000830187613f97565b6145526020830186613f97565b61455f60408301856144a8565b81810360608301526145718184614022565b905095945050505050565b600060208201905081810360008301526145968184613fa6565b905092915050565b60006020820190506145b36000830184614004565b92915050565b60006020820190506145ce6000830184614013565b92915050565b600060208201905081810360008301526145ee818461405b565b905092915050565b6000602082019050818103600083015261460f816140c5565b9050919050565b6000602082019050818103600083015261462f816140e8565b9050919050565b6000602082019050818103600083015261464f8161410b565b9050919050565b6000602082019050818103600083015261466f8161412e565b9050919050565b6000602082019050818103600083015261468f81614151565b9050919050565b600060208201905081810360008301526146af81614174565b9050919050565b600060208201905081810360008301526146cf81614197565b9050919050565b600060208201905081810360008301526146ef816141ba565b9050919050565b6000602082019050818103600083015261470f816141dd565b9050919050565b6000602082019050818103600083015261472f81614200565b9050919050565b6000602082019050818103600083015261474f81614223565b9050919050565b6000602082019050818103600083015261476f81614246565b9050919050565b6000602082019050818103600083015261478f81614269565b9050919050565b600060208201905081810360008301526147af8161428c565b9050919050565b600060208201905081810360008301526147cf816142af565b9050919050565b600060208201905081810360008301526147ef816142d2565b9050919050565b6000602082019050818103600083015261480f816142f5565b9050919050565b6000602082019050818103600083015261482f81614318565b9050919050565b6000602082019050818103600083015261484f8161433b565b9050919050565b6000602082019050818103600083015261486f8161435e565b9050919050565b6000602082019050818103600083015261488f81614381565b9050919050565b600060208201905081810360008301526148af816143a4565b9050919050565b600060208201905081810360008301526148cf816143c7565b9050919050565b600060208201905081810360008301526148ef816143ea565b9050919050565b6000602082019050818103600083015261490f81614430565b9050919050565b6000602082019050818103600083015261492f81614476565b9050919050565b600060208201905061494b60008301846144a8565b92915050565b600061495b61496c565b90506149678282614c85565b919050565b6000604051905090565b600067ffffffffffffffff82111561499157614990614dbd565b5b61499a82614dec565b9050602081019050919050565b600067ffffffffffffffff8211156149c2576149c1614dbd565b5b6149cb82614dec565b9050602081019050919050565b6000819050602082019050919050565b600081519050919050565b600081519050919050565b600081519050919050565b6000602082019050919050565b600082825260208201905092915050565b600082825260208201905092915050565b600082825260208201905092915050565b600081905092915050565b6000614a5f82614bdd565b9150614a6a83614bdd565b9250827fffffffffffffffffffffffffffffffffffffffffffffffffffffffffffffffff03821115614a9f57614a9e614d30565b5b828201905092915050565b6000614ab582614bdd565b9150614ac083614bdd565b925082614ad057614acf614d5f565b5b828204905092915050565b6000614ae682614bdd565b9150614af183614bdd565b9250817fffffffffffffffffffffffffffffffffffffffffffffffffffffffffffffffff0483118215151615614b2a57614b29614d30565b5b828202905092915050565b6000614b4082614bdd565b9150614b4b83614bdd565b925082821015614b5e57614b5d614d30565b5b828203905092915050565b6000614b7482614bbd565b9050919050565b60008115159050919050565b6000819050919050565b60007fffffffff0000000000000000000000000000000000000000000000000000000082169050919050565b600073ffffffffffffffffffffffffffffffffffffffff82169050919050565b6000819050919050565b82818337600083830152505050565b60005b83811015614c14578082015181840152602081019050614bf9565b83811115614c23576000848401525b50505050565b6000614c3482614bdd565b91506000821415614c4857614c47614d30565b5b600182039050919050565b60006002820490506001821680614c6b57607f821691505b60208210811415614c7f57614c7e614d8e565b5b50919050565b614c8e82614dec565b810181811067ffffffffffffffff82111715614cad57614cac614dbd565b5b80604052505050565b6000614cc182614bdd565b91507fffffffffffffffffffffffffffffffffffffffffffffffffffffffffffffffff821415614cf457614cf3614d30565b5b600182019050919050565b6000614d0a82614bdd565b9150614d1583614bdd565b925082614d2557614d24614d5f565b5b828206905092915050565b7f4e487b7100000000000000000000000000000000000000000000000000000000600052601160045260246000fd5b7f4e487b7100000000000000000000000000000000000000000000000000000000600052601260045260246000fd5b7f4e487b7100000000000000000000000000000000000000000000000000000000600052602260045260246000fd5b7f4e487b7100000000000000000000000000000000000000000000000000000000600052604160045260246000fd5b6000601f19601f8301169050919050565b7f416d6f756e7420697320696e76616c6964000000000000000000000000000000600082015250565b7f537472696e67733a20686578206c656e67746820696e73756666696369656e74600082015250565b7f4f6e6c792061646d696e732063616e2063616c6c20746869732066756e63746960008201527f6f6e000000000000000000000000000000000000000000000000000000000000602082015250565b7f455243373231456e756d657261626c653a206f776e657220696e646578206f7560008201527f74206f6620626f756e6473000000000000000000000000000000000000000000602082015250565b7f4552433732313a207472616e7366657220746f206e6f6e20455243373231526560008201527f63656976657220696d706c656d656e7465720000000000000000000000000000602082015250565b7f4f776e61626c653a206e6577206f776e657220697320746865207a65726f206160008201527f6464726573730000000000000000000000000000000000000000000000000000602082015250565b7f4552433732313a20746f6b656e20616c7265616479206d696e74656400000000600082015250565b7f496e76616c696420616d6f756e74000000000000000000000000000000000000600082015250565b7f4552433732313a207472616e7366657220746f20746865207a65726f2061646460008201527f7265737300000000000000000000000000000000000000000000000000000000602082015250565b7f4552433732313a20617070726f766520746f2063616c6c657200000000000000600082015250565b7f4552433732313a206f70657261746f7220717565727920666f72206e6f6e657860008201527f697374656e7420746f6b656e0000000000000000000000000000000000000000602082015250565b7f4552433732313a20617070726f76652063616c6c6572206973206e6f74206f7760008201527f6e6572206e6f7220617070726f76656420666f7220616c6c0000000000000000602082015250565b7f4552433732313a2062616c616e636520717565727920666f7220746865207a6560008201527f726f206164647265737300000000000000000000000000000000000000000000602082015250565b7f4552433732313a206f776e657220717565727920666f72206e6f6e657869737460008201527f656e7420746f6b656e0000000000000000000000000000000000000000000000602082015250565b7f4552433732313a206d696e7420746f20746865207a65726f2061646472657373600082015250565b7f4552433732313a20617070726f76656420717565727920666f72206e6f6e657860008201527f697374656e7420746f6b656e0000000000000000000000000000000000000000602082015250565b7f4f776e61626c653a2063616c6c6572206973206e6f7420746865206f776e6572600082015250565b7f4552433732313a207472616e73666572206f6620746f6b656e2074686174206960008201527f73206e6f74206f776e0000000000000000000000000000000000000000000000602082015250565b7f4552433732314d657461646174613a2055524920717565727920666f72206e6f60008201527f6e6578697374656e7420746f6b656e0000000000000000000000000000000000602082015250565b7f4552433732313a20617070726f76616c20746f2063757272656e74206f776e6560008201527f7200000000000000000000000000000000000000000000000000000000000000602082015250565b7f4552433732313a207472616e736665722063616c6c6572206973206e6f74206f60008201527f776e6572206e6f7220617070726f766564000000000000000000000000000000602082015250565b7f536f6c64206f7574000000000000000000000000000000000000000000000000600082015250565b7f496e636f727265637420616d6f756e74206f6620657468657200000000000000600082015250565b7f455243373231456e756d657261626c653a20676c6f62616c20696e646578206f60008201527f7574206f6620626f756e64730000000000000000000000000000000000000000602082015250565b7f416363657373436f6e74726f6c3a206163636f756e7420000000000000000000600082015250565b7f5265656e7472616e637947756172643a207265656e7472616e742063616c6c00600082015250565b7f206973206d697373696e6720726f6c6520000000000000000000000000000000600082015250565b7f416363657373436f6e74726f6c3a2063616e206f6e6c792072656e6f756e636560008201527f20726f6c657320666f722073656c660000000000000000000000000000000000602082015250565b6154e281614b69565b81146154ed57600080fd5b50565b6154f981614b7b565b811461550457600080fd5b50565b61551081614b87565b811461551b57600080fd5b50565b61552781614b91565b811461553257600080fd5b50565b61553e81614bdd565b811461554957600080fd5b5056fea2646970667358221220e3e8f637c437f374f09b584abb5174790bb4bb47424c779583e2c8946633ec7764736f6c63430008040033",
  "linkReferences": {},
  "deployedLinkReferences": {}
}