{
  "_format": "hh-sol-artifact-1",
  "contractName": "CryptoHunkz",
  "sourceName": "contracts/CryptoHunkz.sol",
  "abi": [
    {
      "inputs": [
        {
          "internalType": "string",
          "name": "_initURI",
          "type": "string"
        },
        {
          "internalType": "address",
          "name": "_signingAddress",
          "type": "address"
        },
        {
          "internalType": "address",
          "name": "_proxy",
          "type": "address"
        }
      ],
      "stateMutability": "nonpayable",
      "type": "constructor"
    },
    {
      "anonymous": false,
      "inputs": [
        {
          "indexed": true,
          "internalType": "address",
          "name": "owner",
          "type": "address"
        },
        {
          "indexed": true,
          "internalType": "address",
          "name": "approved",
          "type": "address"
        },
        {
          "indexed": true,
          "internalType": "uint256",
          "name": "tokenId",
          "type": "uint256"
        }
      ],
      "name": "Approval",
      "type": "event"
    },
    {
      "anonymous": false,
      "inputs": [
        {
          "indexed": true,
          "internalType": "address",
          "name": "owner",
          "type": "address"
        },
        {
          "indexed": true,
          "internalType": "address",
          "name": "operator",
          "type": "address"
        },
        {
          "indexed": false,
          "internalType": "bool",
          "name": "approved",
          "type": "bool"
        }
      ],
      "name": "ApprovalForAll",
      "type": "event"
    },
    {
      "anonymous": false,
      "inputs": [
        {
          "indexed": true,
          "internalType": "address",
          "name": "from",
          "type": "address"
        },
        {
          "indexed": true,
          "internalType": "address",
          "name": "to",
          "type": "address"
        },
        {
          "indexed": true,
          "internalType": "uint256",
          "name": "tokenId",
          "type": "uint256"
        }
      ],
      "name": "Transfer",
      "type": "event"
    },
    {
      "inputs": [],
      "name": "MAX_SUPPLY",
      "outputs": [
        {
          "internalType": "uint256",
          "name": "",
          "type": "uint256"
        }
      ],
      "stateMutability": "view",
      "type": "function"
    },
    {
      "inputs": [],
      "name": "PUBLIC_SUPPLY",
      "outputs": [
        {
          "internalType": "uint256",
          "name": "",
          "type": "uint256"
        }
      ],
      "stateMutability": "view",
      "type": "function"
    },
    {
      "inputs": [],
      "name": "RESERVED",
      "outputs": [
        {
          "internalType": "uint256",
          "name": "",
          "type": "uint256"
        }
      ],
      "stateMutability": "view",
      "type": "function"
    },
    {
      "inputs": [
        {
          "internalType": "address",
          "name": "",
          "type": "address"
        }
      ],
      "name": "admins",
      "outputs": [
        {
          "internalType": "bool",
          "name": "",
          "type": "bool"
        }
      ],
      "stateMutability": "view",
      "type": "function"
    },
    {
      "inputs": [
        {
          "internalType": "address",
          "name": "to",
          "type": "address"
        },
        {
          "internalType": "uint256",
          "name": "tokenId",
          "type": "uint256"
        }
      ],
      "name": "approve",
      "outputs": [],
      "stateMutability": "nonpayable",
      "type": "function"
    },
    {
      "inputs": [
        {
          "internalType": "address",
          "name": "owner",
          "type": "address"
        }
      ],
      "name": "balanceOf",
      "outputs": [
        {
          "internalType": "uint256",
          "name": "",
          "type": "uint256"
        }
      ],
      "stateMutability": "view",
      "type": "function"
    },
    {
      "inputs": [],
      "name": "baseURI",
      "outputs": [
        {
          "internalType": "string",
          "name": "",
          "type": "string"
        }
      ],
      "stateMutability": "view",
      "type": "function"
    },
    {
      "inputs": [
        {
          "internalType": "uint256",
          "name": "tokenId",
          "type": "uint256"
        }
      ],
      "name": "getApproved",
      "outputs": [
        {
          "internalType": "address",
          "name": "",
          "type": "address"
        }
      ],
      "stateMutability": "view",
      "type": "function"
    },
    {
      "inputs": [],
      "name": "hiddenURI",
      "outputs": [
        {
          "internalType": "string",
          "name": "",
          "type": "string"
        }
      ],
      "stateMutability": "view",
      "type": "function"
    },
    {
      "inputs": [
        {
          "internalType": "address",
          "name": "_owner",
          "type": "address"
        },
        {
          "internalType": "address",
          "name": "_operator",
          "type": "address"
        }
      ],
      "name": "isApprovedForAll",
      "outputs": [
        {
          "internalType": "bool",
          "name": "",
          "type": "bool"
        }
      ],
      "stateMutability": "view",
      "type": "function"
    },
    {
      "inputs": [],
      "name": "maxMintAmount",
      "outputs": [
        {
          "internalType": "uint256",
          "name": "",
          "type": "uint256"
        }
      ],
      "stateMutability": "view",
      "type": "function"
    },
    {
      "inputs": [],
      "name": "maxWLAmount",
      "outputs": [
        {
          "internalType": "uint256",
          "name": "",
          "type": "uint256"
        }
      ],
      "stateMutability": "view",
      "type": "function"
    },
    {
      "inputs": [
        {
          "internalType": "uint256",
          "name": "_amount",
          "type": "uint256"
        },
        {
          "internalType": "address",
          "name": "_to",
          "type": "address"
        }
      ],
      "name": "mintReserve",
      "outputs": [],
      "stateMutability": "nonpayable",
      "type": "function"
    },
    {
      "inputs": [],
      "name": "name",
      "outputs": [
        {
          "internalType": "string",
          "name": "",
          "type": "string"
        }
      ],
      "stateMutability": "view",
      "type": "function"
    },
    {
      "inputs": [
        {
          "internalType": "uint256",
          "name": "tokenId",
          "type": "uint256"
        }
      ],
      "name": "ownerOf",
      "outputs": [
        {
          "internalType": "address",
          "name": "",
          "type": "address"
        }
      ],
      "stateMutability": "view",
      "type": "function"
    },
    {
      "inputs": [],
      "name": "price",
      "outputs": [
        {
          "internalType": "uint256",
          "name": "",
          "type": "uint256"
        }
      ],
      "stateMutability": "view",
      "type": "function"
    },
    {
      "inputs": [],
      "name": "proxyRegistryAddress",
      "outputs": [
        {
          "internalType": "address",
          "name": "",
          "type": "address"
        }
      ],
      "stateMutability": "view",
      "type": "function"
    },
    {
      "inputs": [
        {
          "internalType": "uint256",
          "name": "_quantity",
          "type": "uint256"
        }
      ],
      "name": "publicMint",
      "outputs": [],
      "stateMutability": "payable",
      "type": "function"
    },
    {
      "inputs": [],
      "name": "reveal",
      "outputs": [],
      "stateMutability": "nonpayable",
      "type": "function"
    },
    {
      "inputs": [],
      "name": "revealed",
      "outputs": [
        {
          "internalType": "bool",
          "name": "",
          "type": "bool"
        }
      ],
      "stateMutability": "view",
      "type": "function"
    },
    {
      "inputs": [
        {
          "internalType": "address",
          "name": "from",
          "type": "address"
        },
        {
          "internalType": "address",
          "name": "to",
          "type": "address"
        },
        {
          "internalType": "uint256",
          "name": "tokenId",
          "type": "uint256"
        }
      ],
      "name": "safeTransferFrom",
      "outputs": [],
      "stateMutability": "nonpayable",
      "type": "function"
    },
    {
      "inputs": [
        {
          "internalType": "address",
          "name": "from",
          "type": "address"
        },
        {
          "internalType": "address",
          "name": "to",
          "type": "address"
        },
        {
          "internalType": "uint256",
          "name": "tokenId",
          "type": "uint256"
        },
        {
          "internalType": "bytes",
          "name": "_data",
          "type": "bytes"
        }
      ],
      "name": "safeTransferFrom",
      "outputs": [],
      "stateMutability": "nonpayable",
      "type": "function"
    },
    {
      "inputs": [],
      "name": "saleLive",
      "outputs": [
        {
          "internalType": "bool",
          "name": "",
          "type": "bool"
        }
      ],
      "stateMutability": "view",
      "type": "function"
    },
    {
      "inputs": [
        {
          "internalType": "address",
          "name": "_newAdmin",
          "type": "address"
        }
      ],
      "name": "setAdmin",
      "outputs": [],
      "stateMutability": "nonpayable",
      "type": "function"
    },
    {
      "inputs": [
        {
          "internalType": "address",
          "name": "operator",
          "type": "address"
        },
        {
          "internalType": "bool",
          "name": "approved",
          "type": "bool"
        }
      ],
      "name": "setApprovalForAll",
      "outputs": [],
      "stateMutability": "nonpayable",
      "type": "function"
    },
    {
      "inputs": [
        {
          "internalType": "string",
          "name": "_newURI",
          "type": "string"
        }
      ],
      "name": "setBaseURI",
      "outputs": [],
      "stateMutability": "nonpayable",
      "type": "function"
    },
    {
      "inputs": [
        {
          "internalType": "uint256",
          "name": "_newmaxMintAmount",
          "type": "uint256"
        }
      ],
      "name": "setMaxMintAmount",
      "outputs": [],
      "stateMutability": "nonpayable",
      "type": "function"
    },
    {
      "inputs": [
        {
          "internalType": "uint256",
          "name": "_newPrice",
          "type": "uint256"
        }
      ],
      "name": "setPrice",
      "outputs": [],
      "stateMutability": "nonpayable",
      "type": "function"
    },
    {
      "inputs": [
        {
          "internalType": "address",
          "name": "_proxyRegistryAddress",
          "type": "address"
        }
      ],
      "name": "setProxyRegistryAddress",
      "outputs": [],
      "stateMutability": "nonpayable",
      "type": "function"
    },
    {
      "inputs": [
        {
          "internalType": "address",
          "name": "_signerAddress",
          "type": "address"
        }
      ],
      "name": "setSignerAddress",
      "outputs": [],
      "stateMutability": "nonpayable",
      "type": "function"
    },
    {
      "inputs": [],
      "name": "suffix",
      "outputs": [
        {
          "internalType": "string",
          "name": "",
          "type": "string"
        }
      ],
      "stateMutability": "view",
      "type": "function"
    },
    {
      "inputs": [
        {
          "internalType": "bytes4",
          "name": "interfaceId",
          "type": "bytes4"
        }
      ],
      "name": "supportsInterface",
      "outputs": [
        {
          "internalType": "bool",
          "name": "",
          "type": "bool"
        }
      ],
      "stateMutability": "view",
      "type": "function"
    },
    {
      "inputs": [],
      "name": "symbol",
      "outputs": [
        {
          "internalType": "string",
          "name": "",
          "type": "string"
        }
      ],
      "stateMutability": "view",
      "type": "function"
    },
    {
      "inputs": [
        {
          "internalType": "address",
          "name": "_proxyAddress",
          "type": "address"
        }
      ],
      "name": "toggleProxyState",
      "outputs": [],
      "stateMutability": "nonpayable",
      "type": "function"
    },
    {
      "inputs": [],
      "name": "toggleSaleLive",
      "outputs": [],
      "stateMutability": "nonpayable",
      "type": "function"
    },
    {
      "inputs": [],
      "name": "toggleWhiteList",
      "outputs": [],
      "stateMutability": "nonpayable",
      "type": "function"
    },
    {
      "inputs": [
        {
          "internalType": "uint256",
          "name": "tokenId",
          "type": "uint256"
        }
      ],
      "name": "tokenURI",
      "outputs": [
        {
          "internalType": "string",
          "name": "",
          "type": "string"
        }
      ],
      "stateMutability": "view",
      "type": "function"
    },
    {
      "inputs": [],
      "name": "totalSupplyMinted",
      "outputs": [
        {
          "internalType": "uint256",
          "name": "",
          "type": "uint256"
        }
      ],
      "stateMutability": "view",
      "type": "function"
    },
    {
      "inputs": [
        {
          "internalType": "address",
          "name": "from",
          "type": "address"
        },
        {
          "internalType": "address",
          "name": "to",
          "type": "address"
        },
        {
          "internalType": "uint256",
          "name": "tokenId",
          "type": "uint256"
        }
      ],
      "name": "transferFrom",
      "outputs": [],
      "stateMutability": "nonpayable",
      "type": "function"
    },
    {
      "inputs": [],
      "name": "whiteListActive",
      "outputs": [
        {
          "internalType": "bool",
          "name": "",
          "type": "bool"
        }
      ],
      "stateMutability": "view",
      "type": "function"
    },
    {
      "inputs": [
        {
          "internalType": "address",
          "name": "",
          "type": "address"
        }
      ],
      "name": "whitelistClaimed",
      "outputs": [
        {
          "internalType": "bool",
          "name": "",
          "type": "bool"
        }
      ],
      "stateMutability": "view",
      "type": "function"
    },
    {
      "inputs": [
        {
          "internalType": "bytes",
          "name": "_signature",
          "type": "bytes"
        },
        {
          "internalType": "uint256",
          "name": "_quantity",
          "type": "uint256"
        }
      ],
      "name": "whitelistMint",
      "outputs": [],
      "stateMutability": "payable",
      "type": "function"
    },
    {
      "inputs": [],
      "name": "withdraw",
      "outputs": [],
      "stateMutability": "nonpayable",
      "type": "function"
    }
  ],
  "bytecode": "0x60c06040526005608081905264173539b7b760d91b60a090815262000028916008919062000152565b50611e626009556001600a55611e4e600b556701118f178fb48000600c556006600d556004600e556015600f553480156200006257600080fd5b506040516200325938038062003259833981016040819052620000859162000215565b604080518082018252600b81526a21b93cb83a37a43ab735bd60a91b602080830191825283518085019094526005845264242aa725ad60d91b908401528151919291620000d59160009162000152565b508051620000eb90600190602084019062000152565b5050336000908152601360209081526040909120805460ff1916600117905584516200011e925060079186019062000152565b50601180546001600160a01b039384166001600160a01b031991821617909155601080549290931691161790555062000365565b828054620001609062000312565b90600052602060002090601f016020900481019282620001845760008555620001cf565b82601f106200019f57805160ff1916838001178555620001cf565b82800160010185558215620001cf579182015b82811115620001cf578251825591602001919060010190620001b2565b50620001dd929150620001e1565b5090565b5b80821115620001dd5760008155600101620001e2565b80516001600160a01b03811681146200021057600080fd5b919050565b6000806000606084860312156200022a578283fd5b83516001600160401b038082111562000241578485fd5b818601915086601f83011262000255578485fd5b8151818111156200026a576200026a6200034f565b604051601f8201601f19908116603f011681019083821181831017156200029557620002956200034f565b81604052828152602093508984848701011115620002b1578788fd5b8791505b82821015620002d45784820184015181830185015290830190620002b5565b82821115620002e557878484830101525b9650620002f7915050868201620001f8565b935050506200030960408501620001f8565b90509250925092565b600181811c908216806200032757607f821691505b602082108114156200034957634e487b7160e01b600052602260045260246000fd5b50919050565b634e487b7160e01b600052604160045260246000fd5b612ee480620003756000396000f3fe6080604052600436106102dc5760003560e01c8063704b6c0211610184578063aa592f25116100d6578063d26ea6c01161008a578063e081b78111610064578063e081b78114610791578063e985e9c5146107ab578063f7073c3a146107cb57600080fd5b8063d26ea6c01461072c578063d9915d9b1461074c578063db4bec441461076157600080fd5b8063bbd2dc11116100bb578063bbd2dc11146106cc578063c87b56dd146106ec578063cd7c03261461070c57600080fd5b8063aa592f2514610696578063b88d4fde146106ac57600080fd5b806391b7f5ed11610138578063a035b1fe11610112578063a035b1fe1461064b578063a22cb46514610661578063a475b5dd1461068157600080fd5b806391b7f5ed14610601578063933e95b21461062157806395d89b411461063657600080fd5b80638342083a116101695780638342083a146105b6578063850dd091146105cc5780638cc54e7f146105ec57600080fd5b8063704b6c021461057657806370a082311461059657600080fd5b80632db115441161023d578063429b62e5116101f157806363430b38116101cb57806363430b381461052c5780636352211e146105415780636c0360eb1461056157600080fd5b8063429b62e5146104bd57806351830227146104ed57806355f804b31461050c57600080fd5b806332cb6b0c1161022257806332cb6b0c146104725780633ccfd60b1461048857806342842e0e1461049d57600080fd5b80632db115441461043f5780632e4355cd1461045257600080fd5b806308e3f868116102945780631a21ace2116102795780631a21ace2146103e5578063239c70ae1461040957806323b872dd1461041f57600080fd5b806308e3f868146103b2578063095ea7b3146103c557600080fd5b806306fdde03116102c557806306fdde0314610338578063081812fc1461035a578063088a4ed01461039257600080fd5b806301ffc9a7146102e1578063046dc16614610316575b600080fd5b3480156102ed57600080fd5b506103016102fc366004612a60565b6107e0565b60405190151581526020015b60405180910390f35b34801561032257600080fd5b506103366103313660046128ec565b6107eb565b005b34801561034457600080fd5b5061034d61086a565b60405161030d9190612cdc565b34801561036657600080fd5b5061037a610375366004612b6d565b6108fc565b6040516001600160a01b03909116815260200161030d565b34801561039e57600080fd5b506103366103ad366004612b6d565b610991565b6103366103c0366004612a98565b6109ee565b3480156103d157600080fd5b506103366103e0366004612a35565b610d3d565b3480156103f157600080fd5b506103fb600e5481565b60405190815260200161030d565b34801561041557600080fd5b506103fb600d5481565b34801561042b57600080fd5b5061033661043a366004612947565b610e6f565b61033661044d366004612b6d565b610ef6565b34801561045e57600080fd5b506015546103019062010000900460ff1681565b34801561047e57600080fd5b506103fb60095481565b34801561049457600080fd5b5061033661116b565b3480156104a957600080fd5b506103366104b8366004612947565b6111f2565b3480156104c957600080fd5b506103016104d83660046128ec565b60136020526000908152604090205460ff1681565b3480156104f957600080fd5b5060155461030190610100900460ff1681565b34801561051857600080fd5b50610336610527366004612b27565b61120d565b34801561053857600080fd5b5061033661127c565b34801561054d57600080fd5b5061037a61055c366004612b6d565b6112f3565b34801561056d57600080fd5b5061034d61137e565b34801561058257600080fd5b506103366105913660046128ec565b61140c565b3480156105a257600080fd5b506103fb6105b13660046128ec565b611488565b3480156105c257600080fd5b506103fb600b5481565b3480156105d857600080fd5b506103366105e7366004612b85565b611522565b3480156105f857600080fd5b5061034d61161e565b34801561060d57600080fd5b5061033661061c366004612b6d565b61162b565b34801561062d57600080fd5b506103fb611688565b34801561064257600080fd5b5061034d61169e565b34801561065757600080fd5b506103fb600c5481565b34801561066d57600080fd5b5061033661067c366004612a04565b6116ad565b34801561068d57600080fd5b506103366116b8565b3480156106a257600080fd5b506103fb600f5481565b3480156106b857600080fd5b506103366106c7366004612987565b611721565b3480156106d857600080fd5b506103366106e73660046128ec565b6117af565b3480156106f857600080fd5b5061034d610707366004612b6d565b611830565b34801561071857600080fd5b5060105461037a906001600160a01b031681565b34801561073857600080fd5b506103366107473660046128ec565b6119bd565b34801561075857600080fd5b50610336611a37565b34801561076d57600080fd5b5061030161077c3660046128ec565b60126020526000908152604090205460ff1681565b34801561079d57600080fd5b506015546103019060ff1681565b3480156107b757600080fd5b506103016107c636600461290f565b611aa3565b3480156107d757600080fd5b5061034d611baf565b600060015b92915050565b3360009081526013602052604090205460ff166108485760405162461bcd60e51b81526020600482015260226024820152600080516020612e8f83398151915260448201526137b760f11b60648201526084015b60405180910390fd5b601180546001600160a01b0319166001600160a01b0392909216919091179055565b60606000805461087990612d9f565b80601f01602080910402602001604051908101604052809291908181526020018280546108a590612d9f565b80156108f25780601f106108c7576101008083540402835291602001916108f2565b820191906000526020600020905b8154815290600101906020018083116108d557829003601f168201915b5050505050905090565b6000818152600260205260408120546001600160a01b03166109755760405162461bcd60e51b815260206004820152602c60248201527f4552433732313a20617070726f76656420717565727920666f72206e6f6e657860448201526b34b9ba32b73a103a37b5b2b760a11b606482015260840161083f565b506000908152600460205260409020546001600160a01b031690565b3360009081526013602052604090205460ff166109e95760405162461bcd60e51b81526020600482015260226024820152600080516020612e8f83398151915260448201526137b760f11b606482015260840161083f565b600d55565b600a54323314610a405760405162461bcd60e51b815260206004820152601f60248201527f43616c6c6572206d757374206265206f726967696e616c206164647265737300604482015260640161083f565b60155462010000900460ff16610a985760405162461bcd60e51b815260206004820152601760248201527f57686974656c697374206973206e6f7420616374697665000000000000000000604482015260640161083f565b60155460ff161515600114610aef5760405162461bcd60e51b815260206004820152600e60248201527f53616c6520697320706175736564000000000000000000000000000000000000604482015260640161083f565b600e548210610b405760405162461bcd60e51b815260206004820152600f60248201527f4d617820616d6f756e7420697320330000000000000000000000000000000000604482015260640161083f565b81600c54610b4e9190612d3d565b3414610b9c5760405162461bcd60e51b815260206004820152601960248201527f496e636f727265637420616d6f756e74206f6620657468657200000000000000604482015260640161083f565b3360009081526012602052604090205460ff1615610bfc5760405162461bcd60e51b815260206004820152600f60248201527f416c726561647920636c61696d65640000000000000000000000000000000000604482015260640161083f565b610c9284848080601f016020809104026020016040519081016040528093929190818152602001838380828437600092019190915250506040517f19457468657265756d205369676e6564204d6573736167653a0a333200000000602082015233603c820152605c019150610c6e9050565b60405160208183030381529060405280519060200120611bbc90919063ffffffff16565b6011546001600160a01b03908116911614610cef5760405162461bcd60e51b815260206004820152600b60248201527f4e6f74206f6e206c697374000000000000000000000000000000000000000000604482015260640161083f565b336000908152601260205260408120805460ff191660011790555b82811015610d3457610d1c3383611be0565b60019091019080610d2c81612dda565b915050610d0a565b50600a55505050565b6000610d48826112f3565b9050806001600160a01b0316836001600160a01b03161415610dd25760405162461bcd60e51b815260206004820152602160248201527f4552433732313a20617070726f76616c20746f2063757272656e74206f776e6560448201527f7200000000000000000000000000000000000000000000000000000000000000606482015260840161083f565b336001600160a01b0382161480610dee5750610dee8133611aa3565b610e605760405162461bcd60e51b815260206004820152603860248201527f4552433732313a20617070726f76652063616c6c6572206973206e6f74206f7760448201527f6e6572206e6f7220617070726f76656420666f7220616c6c0000000000000000606482015260840161083f565b610e6a8383611c67565b505050565b610e793382611cd5565b610eeb5760405162461bcd60e51b815260206004820152603160248201527f4552433732313a207472616e736665722063616c6c6572206973206e6f74206f60448201527f776e6572206e6f7220617070726f766564000000000000000000000000000000606482015260840161083f565b610e6a838383611dab565b600a5460155462010000900460ff1615610f525760405162461bcd60e51b815260206004820152601360248201527f57686974656c6973742069732061637469766500000000000000000000000000604482015260640161083f565b333214610fa15760405162461bcd60e51b815260206004820152601f60248201527f43616c6c6572206d757374206265206f726967696e616c206164647265737300604482015260640161083f565b60155460ff161515600114610ff85760405162461bcd60e51b815260206004820152600e60248201527f53616c6520697320706175736564000000000000000000000000000000000000604482015260640161083f565b600d5482106110495760405162461bcd60e51b815260206004820152600e60248201527f496e76616c696420616d6f756e74000000000000000000000000000000000000604482015260640161083f565b600b54600a541061109c5760405162461bcd60e51b815260206004820152600860248201527f536f6c64206f7574000000000000000000000000000000000000000000000000604482015260640161083f565b81600c546110aa9190612d3d565b34146110f85760405162461bcd60e51b815260206004820152601960248201527f496e636f727265637420616d6f756e74206f6620657468657200000000000000604482015260640161083f565b60005b828110156111645761110d3383611be0565b61114c6040518060400160405280601d81526020017f4e465420772f2069643a20257320686173206265656e206d696e74656400000081525083611f78565b6001909101908061115c81612dda565b9150506110fb565b50600a5550565b3360009081526013602052604090205460ff166111c35760405162461bcd60e51b81526020600482015260226024820152600080516020612e8f83398151915260448201526137b760f11b606482015260840161083f565b60405133904780156108fc02916000818181858888f193505050501580156111ef573d6000803e3d6000fd5b50565b610e6a83838360405180602001604052806000815250611721565b3360009081526013602052604090205460ff166112655760405162461bcd60e51b81526020600482015260226024820152600080516020612e8f83398151915260448201526137b760f11b606482015260840161083f565b80516112789060069060208401906127dd565b5050565b3360009081526013602052604090205460ff166112d45760405162461bcd60e51b81526020600482015260226024820152600080516020612e8f83398151915260448201526137b760f11b606482015260840161083f565b6015805462ff0000198116620100009182900460ff1615909102179055565b6000818152600260205260408120546001600160a01b0316806107e55760405162461bcd60e51b815260206004820152602960248201527f4552433732313a206f776e657220717565727920666f72206e6f6e657869737460448201527f656e7420746f6b656e0000000000000000000000000000000000000000000000606482015260840161083f565b6006805461138b90612d9f565b80601f01602080910402602001604051908101604052809291908181526020018280546113b790612d9f565b80156114045780601f106113d957610100808354040283529160200191611404565b820191906000526020600020905b8154815290600101906020018083116113e757829003601f168201915b505050505081565b3360009081526013602052604090205460ff166114645760405162461bcd60e51b81526020600482015260226024820152600080516020612e8f83398151915260448201526137b760f11b606482015260840161083f565b6001600160a01b03166000908152601360205260409020805460ff19166001179055565b60006001600160a01b0382166115065760405162461bcd60e51b815260206004820152602a60248201527f4552433732313a2062616c616e636520717565727920666f7220746865207a6560448201527f726f206164647265737300000000000000000000000000000000000000000000606482015260840161083f565b506001600160a01b031660009081526003602052604090205490565b3360009081526013602052604090205460ff1661157a5760405162461bcd60e51b81526020600482015260226024820152600080516020612e8f83398151915260448201526137b760f11b606482015260840161083f565b600f5482106115cb5760405162461bcd60e51b815260206004820152601160248201527f416d6f756e7420697320696e76616c6964000000000000000000000000000000604482015260640161083f565b600a5460005b838110156115fb576115e38383611be0565b600190910190806115f381612dda565b9150506115d1565b5082600f600082825461160e9190612d5c565b9182905550600f5550600a555050565b6007805461138b90612d9f565b3360009081526013602052604090205460ff166116835760405162461bcd60e51b81526020600482015260226024820152600080516020612e8f83398151915260448201526137b760f11b606482015260840161083f565b600c55565b60006001600a546116999190612d5c565b905090565b60606001805461087990612d9f565b611278338383611feb565b3360009081526013602052604090205460ff166117105760405162461bcd60e51b81526020600482015260226024820152600080516020612e8f83398151915260448201526137b760f11b606482015260840161083f565b6015805461ff001916610100179055565b61172b3383611cd5565b61179d5760405162461bcd60e51b815260206004820152603160248201527f4552433732313a207472616e736665722063616c6c6572206973206e6f74206f60448201527f776e6572206e6f7220617070726f766564000000000000000000000000000000606482015260840161083f565b6117a9848484846120ba565b50505050565b3360009081526013602052604090205460ff166118075760405162461bcd60e51b81526020600482015260226024820152600080516020612e8f83398151915260448201526137b760f11b606482015260840161083f565b6001600160a01b03166000908152601460205260409020805460ff19811660ff90911615179055565b6000818152600260205260409020546060906001600160a01b03166118bd5760405162461bcd60e51b815260206004820152602f60248201527f4552433732314d657461646174613a2055524920717565727920666f72206e6f60448201527f6e6578697374656e7420746f6b656e0000000000000000000000000000000000606482015260840161083f565b601554610100900460ff1661195e57600780546118d990612d9f565b80601f016020809104026020016040519081016040528092919081815260200182805461190590612d9f565b80156119525780601f1061192757610100808354040283529160200191611952565b820191906000526020600020905b81548152906001019060200180831161193557829003601f168201915b50505050509050919050565b60006006805461196d90612d9f565b90501161198957604051806020016040528060008152506107e5565b600661199483612143565b60086040516020016119a893929190612c6d565b60405160208183030381529060405292915050565b3360009081526013602052604090205460ff16611a155760405162461bcd60e51b81526020600482015260226024820152600080516020612e8f83398151915260448201526137b760f11b606482015260840161083f565b601080546001600160a01b0319166001600160a01b0392909216919091179055565b3360009081526013602052604090205460ff16611a8f5760405162461bcd60e51b81526020600482015260226024820152600080516020612e8f83398151915260448201526137b760f11b606482015260840161083f565b6015805460ff19811660ff90911615179055565b6010546040517fc45527910000000000000000000000000000000000000000000000000000000081526001600160a01b03848116600483015260009281169190841690829063c45527919060240160206040518083038186803b158015611b0957600080fd5b505afa158015611b1d573d6000803e3d6000fd5b505050506040513d601f19601f82011682018060405250810190611b419190612b0b565b6001600160a01b03161480611b6e57506001600160a01b03831660009081526014602052604090205460ff165b15611b7d5760019150506107e5565b6001600160a01b0380851660009081526005602090815260408083209387168352929052205460ff165b949350505050565b6008805461138b90612d9f565b6000806000611bcb8585612291565b91509150611bd881612301565b509392505050565b6001600160a01b0382166000908152600360205260408120805460019290611c09908490612d11565b909155505060008181526002602052604080822080546001600160a01b0319166001600160a01b03861690811790915590518392907fddf252ad1be2c89b69c2b068fc378daa952ba7f163c4a11628f55a4df523b3ef908290a45050565b600081815260046020526040902080546001600160a01b0319166001600160a01b0384169081179091558190611c9c826112f3565b6001600160a01b03167f8c5be1e5ebec7d5bd14f71427d1e84f3dd0314c0f7b2291e5b200ac8c7c3b92560405160405180910390a45050565b6000818152600260205260408120546001600160a01b0316611d4e5760405162461bcd60e51b815260206004820152602c60248201527f4552433732313a206f70657261746f7220717565727920666f72206e6f6e657860448201526b34b9ba32b73a103a37b5b2b760a11b606482015260840161083f565b6000611d59836112f3565b9050806001600160a01b0316846001600160a01b03161480611d805750611d808185611aa3565b80611ba75750836001600160a01b0316611d99846108fc565b6001600160a01b031614949350505050565b826001600160a01b0316611dbe826112f3565b6001600160a01b031614611e3a5760405162461bcd60e51b815260206004820152602560248201527f4552433732313a207472616e736665722066726f6d20696e636f72726563742060448201527f6f776e6572000000000000000000000000000000000000000000000000000000606482015260840161083f565b6001600160a01b038216611eb55760405162461bcd60e51b8152602060048201526024808201527f4552433732313a207472616e7366657220746f20746865207a65726f2061646460448201527f7265737300000000000000000000000000000000000000000000000000000000606482015260840161083f565b611ec0600082611c67565b6001600160a01b0383166000908152600360205260408120805460019290611ee9908490612d5c565b90915550506001600160a01b0382166000908152600360205260408120805460019290611f17908490612d11565b909155505060008181526002602052604080822080546001600160a01b0319166001600160a01b0386811691821790925591518493918716917fddf252ad1be2c89b69c2b068fc378daa952ba7f163c4a11628f55a4df523b3ef91a4505050565b6112788282604051602401611f8e929190612cef565b60408051601f198184030181529190526020810180517bffffffffffffffffffffffffffffffffffffffffffffffffffffffff167f9710a9d000000000000000000000000000000000000000000000000000000000179052612502565b816001600160a01b0316836001600160a01b0316141561204d5760405162461bcd60e51b815260206004820152601960248201527f4552433732313a20617070726f766520746f2063616c6c657200000000000000604482015260640161083f565b6001600160a01b03838116600081815260056020908152604080832094871680845294825291829020805460ff191686151590811790915591519182527f17307eab39ab6107e8899845ad3d59bd9653f200f220920489ca2b5937696c31910160405180910390a3505050565b6120c5848484611dab565b6120d184848484612523565b6117a95760405162461bcd60e51b815260206004820152603260248201527f4552433732313a207472616e7366657220746f206e6f6e20455243373231526560448201527f63656976657220696d706c656d656e7465720000000000000000000000000000606482015260840161083f565b60608161218357505060408051808201909152600181527f3000000000000000000000000000000000000000000000000000000000000000602082015290565b8160005b81156121ad578061219781612dda565b91506121a69050600a83612d29565b9150612187565b60008167ffffffffffffffff8111156121d657634e487b7160e01b600052604160045260246000fd5b6040519080825280601f01601f191660200182016040528015612200576020820181803683370190505b5090505b8415611ba757612215600183612d5c565b9150612222600a86612df5565b61222d906030612d11565b60f81b81838151811061225057634e487b7160e01b600052603260045260246000fd5b60200101907effffffffffffffffffffffffffffffffffffffffffffffffffffffffffffff1916908160001a90535061228a600a86612d29565b9450612204565b6000808251604114156122c85760208301516040840151606085015160001a6122bc8782858561269e565b945094505050506122fa565b8251604014156122f257602083015160408401516122e786838361278b565b9350935050506122fa565b506000905060025b9250929050565b600081600481111561232357634e487b7160e01b600052602160045260246000fd5b141561232c5750565b600181600481111561234e57634e487b7160e01b600052602160045260246000fd5b141561239c5760405162461bcd60e51b815260206004820152601860248201527f45434453413a20696e76616c6964207369676e61747572650000000000000000604482015260640161083f565b60028160048111156123be57634e487b7160e01b600052602160045260246000fd5b141561240c5760405162461bcd60e51b815260206004820152601f60248201527f45434453413a20696e76616c6964207369676e6174757265206c656e67746800604482015260640161083f565b600381600481111561242e57634e487b7160e01b600052602160045260246000fd5b14156124875760405162461bcd60e51b815260206004820152602260248201527f45434453413a20696e76616c6964207369676e6174757265202773272076616c604482015261756560f01b606482015260840161083f565b60048160048111156124a957634e487b7160e01b600052602160045260246000fd5b14156111ef5760405162461bcd60e51b815260206004820152602260248201527f45434453413a20696e76616c6964207369676e6174757265202776272076616c604482015261756560f01b606482015260840161083f565b80516a636f6e736f6c652e6c6f67602083016000808483855afa5050505050565b60006001600160a01b0384163b1561269357604051630a85bd0160e11b81526001600160a01b0385169063150b7a0290612567903390899088908890600401612ca0565b602060405180830381600087803b15801561258157600080fd5b505af19250505080156125b1575060408051601f3d908101601f191682019092526125ae91810190612a7c565b60015b612661573d8080156125df576040519150601f19603f3d011682016040523d82523d6000602084013e6125e4565b606091505b5080516126595760405162461bcd60e51b815260206004820152603260248201527f4552433732313a207472616e7366657220746f206e6f6e20455243373231526560448201527f63656976657220696d706c656d656e7465720000000000000000000000000000606482015260840161083f565b805181602001fd5b7fffffffff0000000000000000000000000000000000000000000000000000000016630a85bd0160e11b149050611ba7565b506001949350505050565b6000807f7fffffffffffffffffffffffffffffff5d576e7357a4501ddfe92f46681b20a08311156126d55750600090506003612782565b8460ff16601b141580156126ed57508460ff16601c14155b156126fe5750600090506004612782565b6040805160008082526020820180845289905260ff881692820192909252606081018690526080810185905260019060a0016020604051602081039080840390855afa158015612752573d6000803e3d6000fd5b5050604051601f1901519150506001600160a01b03811661277b57600060019250925050612782565b9150600090505b94509492505050565b6000807f7fffffffffffffffffffffffffffffffffffffffffffffffffffffffffffffff8316816127c160ff86901c601b612d11565b90506127cf8782888561269e565b935093505050935093915050565b8280546127e990612d9f565b90600052602060002090601f01602090048101928261280b5760008555612851565b82601f1061282457805160ff1916838001178555612851565b82800160010185558215612851579182015b82811115612851578251825591602001919060010190612836565b5061285d929150612861565b5090565b5b8082111561285d5760008155600101612862565b600067ffffffffffffffff8084111561289157612891612e35565b604051601f8501601f19908116603f011681019082821181831017156128b9576128b9612e35565b816040528093508581528686860111156128d257600080fd5b858560208301376000602087830101525050509392505050565b6000602082840312156128fd578081fd5b813561290881612e4b565b9392505050565b60008060408385031215612921578081fd5b823561292c81612e4b565b9150602083013561293c81612e4b565b809150509250929050565b60008060006060848603121561295b578081fd5b833561296681612e4b565b9250602084013561297681612e4b565b929592945050506040919091013590565b6000806000806080858703121561299c578081fd5b84356129a781612e4b565b935060208501356129b781612e4b565b925060408501359150606085013567ffffffffffffffff8111156129d9578182fd5b8501601f810187136129e9578182fd5b6129f887823560208401612876565b91505092959194509250565b60008060408385031215612a16578182fd5b8235612a2181612e4b565b91506020830135801515811461293c578182fd5b60008060408385031215612a47578182fd5b8235612a5281612e4b565b946020939093013593505050565b600060208284031215612a71578081fd5b813561290881612e60565b600060208284031215612a8d578081fd5b815161290881612e60565b600080600060408486031215612aac578283fd5b833567ffffffffffffffff80821115612ac3578485fd5b818601915086601f830112612ad6578485fd5b813581811115612ae4578586fd5b876020828501011115612af5578586fd5b6020928301989097509590910135949350505050565b600060208284031215612b1c578081fd5b815161290881612e4b565b600060208284031215612b38578081fd5b813567ffffffffffffffff811115612b4e578182fd5b8201601f81018413612b5e578182fd5b611ba784823560208401612876565b600060208284031215612b7e578081fd5b5035919050565b60008060408385031215612b97578182fd5b82359150602083013561293c81612e4b565b60008151808452612bc1816020860160208601612d73565b601f01601f19169290920160200192915050565b8054600090600181811c9080831680612bef57607f831692505b6020808410821415612c0f57634e487b7160e01b86526022600452602486fd5b818015612c235760018114612c3457612c61565b60ff19861689528489019650612c61565b60008881526020902060005b86811015612c595781548b820152908501908301612c40565b505084890196505b50505050505092915050565b6000612c798286612bd5565b8451612c89818360208901612d73565b612c9581830186612bd5565b979650505050505050565b60006001600160a01b03808716835280861660208401525083604083015260806060830152612cd26080830184612ba9565b9695505050505050565b6020815260006129086020830184612ba9565b604081526000612d026040830185612ba9565b90508260208301529392505050565b60008219821115612d2457612d24612e09565b500190565b600082612d3857612d38612e1f565b500490565b6000816000190483118215151615612d5757612d57612e09565b500290565b600082821015612d6e57612d6e612e09565b500390565b60005b83811015612d8e578181015183820152602001612d76565b838111156117a95750506000910152565b600181811c90821680612db357607f821691505b60208210811415612dd457634e487b7160e01b600052602260045260246000fd5b50919050565b6000600019821415612dee57612dee612e09565b5060010190565b600082612e0457612e04612e1f565b500690565b634e487b7160e01b600052601160045260246000fd5b634e487b7160e01b600052601260045260246000fd5b634e487b7160e01b600052604160045260246000fd5b6001600160a01b03811681146111ef57600080fd5b7fffffffff00000000000000000000000000000000000000000000000000000000811681146111ef57600080fdfe4f6e6c792061646d696e732063616e2063616c6c20746869732066756e637469a2646970667358221220b87d7c66d9e8de100b076a2650b97e7e800a710495bed9fdb104bbb081be775a64736f6c63430008040033",
  "linkReferences": {},
  "deployedLinkReferences": {}
}